:020000040800F2
:2000000048AE00200102000800000101120000001200000012000000120000001200000063
:20002000120000001200000012000000120000000000000000000000000000000000000078
:20004000000000000000000051694672656500000000000000000000000000000000000064
:20006000000000000000000000000000000000000000000000000000000000000000000080
:20008000000000000000000000000000000000000000000000000000000000000000000060
:2000A000000000000000000000000000000000000000000000000000000000000000000040
:2000C000000000000000000000000000000000000000000000000000000000000000000020
:2000E000000000000000000000000000000000005620312E32342E380D0A00000000000048
:2001000048AE002001020008C1190008C1130008BD190008DF030008A13B00080000000054
:20012000000000000000000000000000652C0008B50E0008000000004D1C0008F5350008B8
:200140001B0200081B0200081B0200081B0200081B0200081B0200081B0200081B02000877
:200160001B0200081B0200081B0200081B0200081B0200081B0200081B0200081B02000857
:200180001B0200081B0200081B02000889390008053B00081B0200081B0200081B0200086F
:2001A0001B0200081B0200081B0200081B0200081B0200081B0200081B0200081B02000817
:2001C0001B0200081B0200081B0200081B0200081B020008913600081B0200081B0200084D
:2001E0001B0200081B0200084F390008DFF80CD000F076F8004800478144000848AE0020A2
:200200000648804706480047FEE7FEE7FEE7FEE7FEE7FEE7FEE7FEE7FEE7FEE7F93500080C
:20022000ED010008D2B201E000F8012B491EFBD270470022F6E710B5044608461146024659
:200240002046FFF7EFFF204610BD0146002000E0401C0A5C002AFBD1704730B5054600201B
:20026000034600E05B1C934205D2EC5CC85C201A01D1002CF6D130BD2DE9F05F054600200A
:2002800092469B4688460646814640241DE0284641464746224600F044F8B0EB0A00524610
:2002A0005B4671EB0B0110D310461946224600F029F82D1A67EB01084F4622460120002143
:2002C00000F020F817EB00094E41201EA4F10104DDDC484631462A464346BDE8F09F0000B9
:2002E000064C074D06E0E06840F0010394E8070098471034AC42F6D3FFF77CFFDC4A0008FA
:20030000FC4A0008202A04DB203A00FA02F1002070479140C2F1200320FA03F31943904065
:200320007047202A04DB203A21FA02F00021704721FA02F3D040C2F120029140084319462E
:20034000704770B501EB020410F8015B15F0070301D110F8013B2A1106D110F8012B03E01D
:2003600010F8016B01F8016B5B1EF9D12B0705D40023521E0FD401F8013BFAE710F8013B86
:2003800002F10202A1EB030303E013F8015B01F8015B521EF9D5A142D6D3002070BD10B559
:2003A000044624B1012C07D0022C15D10AE01021012002F021FD10E04FF48051022002F0A2
:2003C000BFFC0AE01021012002F016FD4FF48051022002F0B5FC00E000BF00BF10BD00BF5E
:2003E000FEE70146CAB20B1243EA02207047000010B5002404E0A748005DA7490855641C4C
:20040000A64800888442F6D3A3484068A4494860A14880688860A14800881F280FD002203D
:20042000FFF7BDFF00209C490860487B1A22052102F082FD0021012002F060FD10BD9648CB
:20044000C07B282803D09448C07B2A2816D19248407C01069048807C41EA00418E48C07CFF
:2004600041EA00208C49097D08438E4908608A48C17D807D41EA00208B4908608648006882
:200480008A4988426FD18448407B89490968884207D88148807B012803DB7F48807B102847
:2004A0000DDD0220FFF77BFF7B49487B2422052102F042FD0021012002F020FDE8E07648C5
:2004C000C07B25285FD01BDC15286FD00EDC08286DD006DC00285BD0032830D0042867D1D7
:2004E00076E00A2873D01228F9D12DE01A380A285ED2DFE800F0392EB17D33B1B1B1B143E6
:200500008A286FD00EDC552867D006DC282844D02A284ED02F28E2D154E05A2829D088282D
:20052000DDD176E0A8286DD004DC8F286FD09E28D5D173E0AA287BD0AF28D0D182E056497F
:20054000487B02F0A1F995E05349487B02F074F890E05149487B02F0ABF98BE04E49487BF2
:2005600002F0A6F986E086E04B49487B02F0B4F880E04949487B02F0A5F87BE04649487B38
:2005800002F03EF976E04449487B02F0EBF871E04149487B02F094F96CE03F49487B424978
:2005A0000A684049096802F0A1F863E01BE024E052E03949487B3C490A683A49096802F0AE
:2005C000BBF957E03449487B02F096F952E02AE03149487B02F018F84CE02F49487B02F09B
:2005E0004FF847E029E02C49487B02F049F841E02949487B02F044F83CE02749487B02F054
:200600003FF837E02449487B02F03AF832E01EE00EE02149487B02F033F82BE01E49487BBB
:2006200002F02EF826E01C49487B02F029F821E01949487B02F024F81CE01749487B02F01C
:200640001FF817E01449487B02F01AF812E01249487B02F015F80DE00220FFF7A0FE0E495F
:20066000487B2022052102F067FC0021012002F045FC00BF0CE00220FFF791FE0649487B21
:200680002022052102F058FC0021012002F036FC00BFD3E69C040020DC040020D20000201C
:2006A000FC040020D4000020D8000020555342433801002010B500244AE047F6FF70294977
:2006C00008602948008800F00F002849087008460078274901EB8000D0F8000C84B214F41D
:2006E000004F19D02148007801EB8000D0F8000CC0F30E0048F68F7108401C4909781C4A0E
:2007000002EB8101C1F8000C18490978491E194A52F8210080471BE014F0800F18D01348F6
:200720000078134901EB8000D0F8000C80B248F60F7108400D4909780D4A02EB8101C1F817
:20074000000C0A490978491E0B4A52F8210080470448006880B20449088010F4004FACD140
:2007600010BD0000445C004034010020040200200050004018010020FC00002010B5002483
:2007800023E19748008800F00F00964908700846007800287ED19448006894490880084664
:2007A000008800F03000924908809048008800F440508E4908808F49D1F8001C89B24BF6B2
:2007C000BF7201EA020080F4005080F0200040F4004141F08001874AC2F8001C8048008889
:2007E00010F0100F36D18048006880B248F60F7100EA01001146C1F8000C00F0E3FD7A4919
:20080000096889B24BF6BF7201EA02007749098811F4805F01D080F480507449098811F430
:20082000005F01D080F400507149098811F0100F01D080F010006E49098811F0200F01D0BF
:2008400080F0200081B241F4004141F08001664A116010BD6448006884B214F4006F39D0F5
:2008600061480068C0F30E0048F68F7100EA01006049C1F8000C02F087FB5B49096889B24B
:200880004BF6BF7201EA02005849098811F4805F03D000E059E080F480505449098811F480
:2008A000005F01D080F400505149098811F0100F01D080F010004E49098811F0200F01D07F
:2008C00080F0200081B241F4004141F08001464A1160BEE714F4004F77D043480068C0F343
:2008E0000E0048F68F7100EA01004249C1F8000C01F072F93C49096889B24BF6BF7201EA87
:2009000002003A49098811F4805F01D080F480503649098811F4005F01D080F40050344942
:20092000098811F0100F01D080F010003049098811F0200F01D080F0200081B241F4004171
:2009400041F08001284A116083E726480078294901EB8000D0F8000C84B214F4004F18D08B
:200960002048007801EB8000D0F8000CC0F30E0048F68F7108401B4909781E4A02EB810154
:20098000C1F8000C17490978491E1B4A52F82100804714F0800F18D012480078154901EB1C
:2009A0008000D0F8000C80B248F60F7108400D490978104A02EB8101C1F8000C0949097873
:2009C000491E0E4A52F8210080470D48006880B20349088010F4004F7FF4D3AE00BF38E73E
:2009E0003401002004020020005C0040180200201A0200200050004018010020FC00002085
:200A0000445C00400C4901EB8001D1F8001C11F4804F10D0084901EB8001D1F8001C89B2BD
:200A200048F68F7211404CF280021143024A02EB8002C2F8001C7047005000400C4901EBF9
:200A40008001D1F8001C11F0400F10D0084901EB8001D1F8001C89B248F68F72114048F258
:200A6000C0021143024A02EB8002C2F8001C704700500040084901EB8001D1F8001C89B2AA
:200A800048F68F62114048F280021143024A02EB8002C2F8001C7047005000402DE9F047A1
:200AA0002948006800F110052E8827480068077AEEB9042F1BD125480078012812D1002171
:200AC0002348006880B200F10200224A42F810104FF030002049088000BF4FF000001B4996
:200AE000087003E0072710201B49088027E0AC88A64201D8042000E002200746B44200D913
:200B00003446A0B2A96888478046002000F014FC8146A2B20146404603F044F8A1B20020B9
:200B200002F05AF92888001B288068882044688030200949088000020849088000BF0249B2
:200B400009680F72BDE8F0870802002000020020505C0040006000401A0200201802002039
:200B60002DE9F0412948006800F110042688A068C0B1BEB1A588B54200D93546A8B2A168DF
:200B8000884707462088401B2080608828446080002000F0A1FB8046AAB20146384601F0DE
:200BA00043F800BF208850B14FF44050184908800021084602F010F930201649088020888D
:200BC000A188884204DB03201049096808721AE02088002804DD05200C490968087212E0DA
:200BE000208880B9062009490968087200210A48006880B200F10200084A42F810104FF0C6
:200C0000300004490880BDE8F081000008020020180200201A020020505C0040006000408D
:200C20002DE9F05F9A48006845780027BA46062D1AD197480068007810F07F0F13D19449F5
:200C400009688878012803D192490968CF690AE0022803D18F4909680F6A04E0032802D116
:200C60008C4909684F6A94E0002D64D188480068408800285FD186480068C08802285AD174
:200C8000834800680079002855D181480068007810F07F0F05D17E480068808808B97E4F89
:200CA00077E07B480068007800F07F00012810D1774909684879774909688A6900219047B3
:200CC000002866D172480068807A002861D0724F5FE06F480068007800F07F00022858D1E7
:200CE0006B480068407900F00F0669480068407900F0700966480068407910F0800F07D0AB
:200D0000664800EB8600D0F8000C00F0300806E0624800EB8600D0F8000C00F440586048AF
:200D20000078B04235D9B9F1000F32D1B8F1000F2FD0594F2DE0082D07D155480068007889
:200D400010F07F0F25D1574F23E00A2D21D150480068007800F07F0001281AD14C48006846
:200D6000807AB0B14A480068408890B948480068007970B946480068C088012809D14449A5
:200D800009684879434909688A690021904700B9454F57B13E480068A0F812A03C480068C0
:200DA00087610020B84700240FE0394A12685078384A1268116988470446032C05D1092097
:200DC000334909680872BDE8F09F31480068008AA0F57F41FF3904D109202D490968087221
:200DE000F1E7022C03D02A480068008A20B90820274909680872E6E725480068007810F040
:200E0000800F3BD022480068B0F806B020480068008A584504D91E490968A1F810B023E000
:200E20001B480068008A1A490968C98888421BDA17480068008A1749096891F82C108842C8
:200E400003DA0020194908700EE011480068008A1049096891F82C1090FBF1F201FB120077
:200E600010B90120114908700A48006890F82C10074800688182FFF711FE06E00320044923
:200E80000968087200030A49088000BF9BE70000080200200C0200202D32000800500040F9
:200EA0003C010020B13100080132000800020020180200207047000010B501200649086000
:200EC000064801218268064890470448012182680448904710BD0000EC01002050090020C5
:200EE0002C0500203805002010B500F0BBFC10BD10B500F0FDFC10BD014908607047000027
:200F000014040140002127498279002A43D0264AD2F8002403689A43234BC3F800241A465C
:200F2000D2F8042403689A4301F104031A60027911440A68036842EA03020A601A4AD2F88E
:200F40000824036822EA0302174BC3F808241A46D2F80C24036822EA0302144B1A60427936
:200F6000102A10D1104AD2F8082403681A430E4BC3F808241A46D2F80C2403681A430A4B87
:200F8000C3F80C240DE00749427911440A6803681A430A6005E0027911440A6803689A4306
:200FA0000A60704700040140000001400C04014030B5044604254FF4302000F071F80546AA
:200FC000042D17D10C48006940F002000A49086108464461006940F0400008614FF4302085
:200FE00000F05EF805460448006941F6FD71084001490861284630BD0020024004200C49D5
:20100000C96801F00101012901D101200EE00849C96811F0040F01D0022007E00449C968B3
:2010200011F0100F01D0032000E0042070470000002002400348006940F080000149086168
:20104000704700000020024070B504460D460426F00200F025F80646042E11D10948006972
:2010600040F00100074908612580F00200F018F806460448006941F6FE710840014908614D
:20108000304670BD002002400248034948600348486070472301674500200240AB89EFCD41
:2010A00000B502460423FFF7A9FF034603E0FFF7A5FF0346521E012B01D1002AF7D102B944
:2010C0000523184600BD00000A4908600968FF2904D84FF48061084A116003E04FF400612F
:2010E000054A116003490968044A1268891A014A116070473002002034020020DC010020F0
:201100002DE9F041024600250026002000230024002791F803C00CF00F0591F803C01CF0B3
:20112000100F03D091F802C04CEA0505B1F800C01CF0FF0F31D0146800202BE04FF0010CBB
:201140000CFA00F3B1F800C00CEA03069E4220D183004FF00F0C0CFA03F7BC4305FA03FC83
:201160004CEA040491F803C0BCF1280F06D14FF0010C0CFA00FCC2F814C00AE091F803C018
:20118000BCF1480F05D14FF0010C0CFA00FCC2F810C0401C0828D1D31460B1F800C0BCF1E3
:2011A000FF0F34DD546800202EE000F1080C4FF0010808FA0CF3B1F800C00CEA03069E4290
:2011C00021D183004FF00F0C0CFA03F7BC4305FA03FC4CEA040491F803C0BCF1280F05D1FF
:2011E00000F1080C08FA0CF8C2F8148091F803C0BCF1480F07D100F1080C4FF0010808FA1F
:201200000CF8C2F81080401C0828CED35460BDE8F0810000F0B50A46002300240021002507
:2012200000F00046B6F1004F02D11D4EF16901E01B4E7168C0F3034583B200F44016B6F5A2
:20124000401F08D121F07061154E766826F07066134F7E6012E000F48016B6F5801F06D16A
:20126000032606FA05F4A14341F0706106E0460D360103FA06F6B14341F0706122B1460DE1
:20128000360103FA06F6314300F00046B6F1004F02D1034EF16101E0014E7160F0BD00005A
:2012A000000001400246002093680B4201D0012000E00020704702460020D3680B4201D0D3
:2012C000012000E000207047416170470AB1016100E041617047000001460648006880B258
:2012E00000EBC10000F10400034A52F8100080B270470000505C004000600040014606489C
:20130000006880B200EBC10000F10600034A52F81000C0F309007047505C004000600040EA
:201320000146044800EB8100D0F8000C00F44050704700000050004001460548006880B2E1
:2013400000EBC100034A52F8100080B270470000505C00400060004000200249096888025F
:201360007047000030020020014629B90120034A12681082002070470148FCE70802002094
:201380003801002070B50A4804680A48D0F8EC5709480668344454B108220849204600F0A7
:2013A00049F8042205491031284600F043F870BDE8F7FF1F00F0FF1FF0F7FF1FDE00002063
:2013C00000BFFEE710B518480068047A022C01D0042C05D1FFF762FB13480068047A1CE0C9
:2013E000062C19D110480068407805280ED10E480068007810F07F0F08D10B490968C878AB
:2014000001F03AFC09490968086A80470849096888688047082400E00824034909680C72BD
:2014200000F016FC10BD000008020020140200200C02002030B50B46002100BF16E00A2415
:20144000B4EB107F05D9302404EB107403F8114005E0412404EB10740A3C03F8114000011D
:2014600000254C00641C1D554C1CE1B29142E6DB30BD00000548817A19B10521044A116096
:2014800002E00121024A11607047000064090020CC01002010B5022001F0E2FB10BD10B513
:2014A000022001F0DEFB10BD10B5002000F007F810BD014609B9002070470120FCE770B5C9
:2014C0000446002514B901F073FA01E0012070BD00BF2846FBE700002DE9F04707460C4648
:2014E00016461D464FF0000837BB16480068A04205D92A462146304601F068FA1BE0FFF7DD
:201500002BFF80460F480068241AA04509D9A94605EBD5714A100C496018314601F082FAE7
:2015200009E0A4EB08040748006804442A462146304601F04BFA02E00120BDE8F08700BFC7
:201540000020FAE710000020005000082DE9F04707460C4616461D464FF001094FF00008C7
:20156000002F41D12A463146204602F079FE24480068A04206D92A462146304601F03CFA6B
:20158000B94630E01E480068241AB4F5A04F0BD2AA4605EBD5714A101A496018314601F0F8
:2015A000C9FA00F0FF091CE0FFF7D6FE8046A0450BD9AA4605EBD5714A1012496018314651
:2015C00001F044FA00F0FF090BE0A4EB08040C48006804442A462146304601F00DFA4FF0D6
:2015E0000009FFF769FC02E00120BDE8F08700BFB9F1000F01D00120F7E70020F5E7000024
:20160000100000200050000870B50546002414480068007800F07F00212810D1FE2D0ED1CF
:201620000F480068408850B90D480068808830B90B480068C088012801D10A4C01E0022015
:2016400070BD0CB90220FBE705480068846100210348006841820020A0470020F0E7000065
:20166000080200206913000810B504460249204601F0B4FD10BD00009C01002010B50446C1
:201680000249204601F0AAFD10BD00009401002070B5054606480068C478052C01DD0020EE
:2016A00070BD044800EBC401284601F097FDF7E708020020A40100200246002901DD0220D0
:2016C0007047002A01DD0220FAE70020F8E7000010B5044611480068007800F07F00212849
:2016E0001AD1FF2C18D10D4800684088A0B90B480068808880B909480068C08860B90120D6
:20170000FFF79CF90220FFF77DF905480549086000200549087010BD0220FCE708020020CB
:2017200055534243DC040020D000002010B50020324988723248C0793249096848720020B9
:2017400001F092FA4FF40071002001F077FB2021002001F051FB1821002001F0B7FA2A48CA
:2017600090F82C10002001F0C3FA5821002001F023FB0020FFF77EF9002001F003FB002172
:20178000012001F05BFB9821012001F015FB2021012001F031FB0021012001F0D1FA002168
:2017A000022001F04BFBD821022001F08FFA164890F82C10022001F09BFA4FF4405102207B
:2017C00001F0BEFA0021022001F016FB0E4890F82C10002001F08CFA002001F0D3FA00206C
:2017E00001F04AFA01200949086009480949086000200949087002F089F910BD6409002016
:20180000514A00080802002040010020CC01002055534243DC040020D00000207047704722
:2018200010B5FFF7AFFD002005490968887200F033FA02F071F900200249086010BD00004F
:2018400008020020CC01002010B5044800680449884202D00220FEF7A2FD10BDDC0400208C
:201860005553424310B51E48007802281BD0032828D0042802D005282ED100E000BF002077
:20188000174908704FF44051022001F059FA0220FFF746FDB0F5805F04D14FF4405102208C
:2018A00001F04EFA19E00F48C07B282808D10D49487B0D490A680D49096800F017FF00BFCE
:2018C00000BF0AE00121002001F018FB4FF44051022001F035FA00E000BF00BF10BD0000D8
:2018E000D0000020DC040020D8000020D400002010B51D48C47B1D49022002F023F91C49A8
:2019000008801C48007810B101281CD102E0FEF76FFD26E02A2C08D11349487B16490A6824
:201920001649096801F008F81BE00120FEF737FD0D49487B2422052101F0FEFA00210220F0
:2019400001F0DCFA0DE00220FEF729FD0649487B2422052101F0F0FA0021022001F0CEFA41
:2019600000BF00BF10BD0000DC0400209C040020D2000020D0000020D8000020D40000208E
:2019800010B508480068807A58B10520064908600120FFF753F80220FFF734F800200349D9
:2019A000087010BD08020020CC010020D00000200420014908607047CC01002000BFFEE7BD
:2019C0007047704770B5002100230F22C4784CB31A4C246804F4E064C4F5E0644FEA14212B
:2019E000C1F1040322FA01F2447804FA03F1847804EA020444EA01014FEA0111104C06782C
:201A0000A155047804F01F054FF0010404FA05F405784FEA65154FF0E02606EB8505C5F854
:201A2000004109E0047804F01F050124AC40054D0678761145F8264070BD00000CED00E0D7
:201A400000E400E080E100E002490143024A1160704700000000FA050CED00E0024A0A4010
:201A60000243024B1A60704780FFFF1F08ED00E0BFF34F8F0848006800F4E060074940EA3B
:201A8000010000F104004FF0E021C1F80C0DBFF34F8F00BFFEE700000CED00E00000FA0532
:201AA00070B5022647480068447846480068007810F07F0F44D1092C03D101F037FC06469C
:201AC0005FE0052C14D13F480068C0787F280BDC3C480068807838B93A480068808818B964
:201AE00038480068807A08B1082567E0002648E0032C0ED133480068C078012807D13148E6
:201B00000068808818B901F035FC064639E0022637E0012C35D12B480068C07801280DD171
:201B200028480068808848B926480068407A10F0200F03D001F084FA064622E0022620E04D
:201B400020480068007800F07F00012805D10B2C17D101F08DFC064613E01A4800680078B5
:201B600000F07F0002280BD1012C03D101F068FA064606E0032C04D101F010FC064600E03D
:201B800002264EB1104800684169E0B288470646032E01D1092511E00EB108250EE00625E0
:201BA00000210A48006880B200F10200084A42F810104FF030000749088000BF01490968B8
:201BC0000D7270BD080200200C020020505C0040006000401A02002010B511480068047A35
:201BE000022C01D0042C01D1082412E0032C01D0052C05D1FEF7B4FF09480068047A08E0F8
:201C0000072C05D107490968C8688047082400E00824034909680C7200F01AF810BD0000C1
:201C2000080200200C020020F0B5561C7510064E06EB41042B4604E080CC20F8017B401C95
:201C40005B1E002BF8D1F0BD006000407047000010B50D4890F82C10002001F049F80B4890
:201C60000068007A082805D140020949088010200849088005480068007A092801D1012004
:201C800000E00020C0B210BD4001002008020020180200201A02002010B5012001F05DFED2
:201CA00001240D4804604FF000000C490880084600880B49C1F8400C4FF000000949086002
:201CC0004FF4E05005490880084600880449C1F8400C4FF0000010BD405C00401202002077
:201CE00000500040445C00402DE9F0410024002500260127FC06A068C0F300670121084602
:201D000000F0A2FA27B101211948FFF783FA03E001211848FFF77EFA04F1800000F034F805
:201D2000606BC0F30046E06BC0F3004532462946114802F04DFD114904F1300000F04AF86F
:201D40000F4904F1380000F045F80E4904F1400000F040F80848016809488847064801688D
:201D6000084888470448416804488847BDE8F08100023000000430005009002044050020D6
:201D80002C050020380500202DE9F041054600260027002400BF14E055F824004FF6FF71B9
:201DA00001EA104655F8240087B24EB1074A52F82410074A52F8240033463A4600F0AEF91B
:201DC000641C072CE8DB0020BDE8F081600200204402002070B50246002300250024002076
:201DE0000860486008811068A0F1410306255068C4B21068412804D305F14100166886426F
:201E000002D94FF0FF3070BD102C02D34FF0FF30F9E7074850F823000860064850F8230012
:201E20004860054830F8140008810020EBE7000044020020600200207C0200202DE9F04723
:201E40000024A046A14680254FF0010A002600274FF4E13002F01AFD2C05606BC0F3004900
:201E6000E06BC0F3004835A335A236A136A001F059FF3F493FA001F055FF3FA241A144A024
:201E800001F050FF4648006885B2294645A001F049FF606B82B247A0216B01F043FFE06B58
:201EA00082B248A0A16B01F03DFF606C82B249A0216C01F037FF41464AA001F033FF49460D
:201EC0004CA001F02FFFA568C5F3006AA8B24D49086008460068202801D920200860A9B295
:201EE00049A001F01FFF4C4850F82A104BA001F019FF04F1800700260DE04FF6FF7C3868F1
:201F00000CEA104382B206F14100C1B246A001F009FF3F1D761C072EEFDB04F1480149A0A6
:201F200001F000FF04F1580149A001F0FBFE4B494BA001F0F7FEBDE8F087000038000000D7
:201F40003234000031000000516946726565555342532054726176656C2076657273696F2B
:201F60006E2025732E25732E25730D0A00000000024A0008257300004A756E2020312032BC
:201F80003031350031363A35383A333700000000446174653A2025732D2D25730D0A000080
:201FA000E0F7FF1F465F53495A453A253034580D0A0000004B4559203A205025635F2564F7
:201FC0000D0A00004C4544313A205025635F25640D0A00004C4544323A205025635F256492
:201FE0000D0A00006C65645F6C6F773A25640D0A000000006B65795F6C6F773A25640D0A36
:2020000000000000DC01002055736572446174613A25644B420D0A00E00100207377643ABA
:2020200025730D0A000000004750494F25633A2530345820456E61626C653A253034580D90
:202040000A000000426F6172643A25730D0A0000446174653A25730D0A000000F000000846
:20206000307830383030303046303A257300000038B50446606800B938BD0121206800F001
:20208000E3F82089ADF8000048208DF8030003208DF8020069466068FFF732F800BFEBE755
:2020A00070B504460025606808B9012070BD21896068FFF7F7F8054605F001052846F5E7CE
:2020C00070B504460025606808B9012070BD21896068FFF7E7F80546E843C5B205F0010566
:2020E0002846F3E738B50446606800B938BD0121206800F0A9F82089ADF8000010208DF8AD
:20210000030003208DF8020069466068FEF7F8FF21896068FFF7D8F800BFE7E72DE9F84399
:2021200080460E4617461D4600240121404600F08BF810208DF8030003208DF80200002004
:20214000ADF8000000BF0DE045FA04F010F0010F07D0BDF80000114931F814100843ADF8C8
:202160000000641C102CEFDB69463046FEF7C8FF00240FE045FA04F010F0010F09D047FA88
:2021800004F000F00102054830F814103046FFF79DF8641C102CEDDBBDE8F8837C0200207C
:2021A00070B504460D46606800B970BD05F0010221896068FFF78AF800BFF6E770B50446C2
:2021C0000D46606800B970BDED4305F0010221896068FFF77BF800BFF5E770B504460025CC
:2021E000606800B970BD21896068FFF764F8054605F00105ED4305F0010221896068FFF797
:2022000065F800BFEEE7000029B1064AD2690243044BDA6104E0034AD2698243014BDA61E1
:20222000704700000010024029B1064A12690243044B1A6104E0034A12698243014B1A61A9
:20224000704700000010024029B1064A92690243044B9A6104E0034A92698243014B9A6189
:20226000704700000010024029B1064AD2680243044BDA6004E0034AD2688243014BDA606D
:20228000704700000010024030B500210022002400232D4D6D6805F00C0121B1042905D0A1
:2022A000082923D105E0294D056022E0274D05601FE0254D6D6805F47012234D6D6805F45F
:2022C0008034022505EB92421CB9214D554305600BE01D4D6D6815F4003F03D01C4D5543D9
:2022E000056002E0194D5543056002E0174D056000BF00BF144D6D6805F0F0010909154D7B
:202300006B5C0568DD4045600F4D6D6805F4E061090A104D6B5C4568DD4085600A4D6D684A
:2023200005F46051C90A0B4D6B5C4568DD40C560054D6D6805F44041890B074D6B5CC56895
:20234000B5FBF3F5056130BD0010024000127A0000093D001C0200202C0200200149086030
:2023600070470000D800424270B504460D4616463748007870B9374850F8240068433649F7
:202380000860344850F8240070433449086001202F4908702E480078012846D13048006836
:2023A000C0B92C4850F8240083B22E4A2A4801682046FFF791F840222A49812001F0D9FB1C
:2023C000244850F8240040382549086040202649086011E02348244A1268811840228120C0
:2023E00001F0C7FB1E48006840381D4908601E48006840301C4908604021012000F0ECFCB1
:202400003021012000F0F8FC13480068403012490860124800684038104908601348806832
:20242000403812498860FFF73AF80C48006870B900200B4908600C49086007490860032060
:202440000B490870002002490870FFF723F870BD340000201C000020380000203C0000204B
:202460002C0000209C02002048000020FC040020D000002070B50546072D01D03148057077
:2024800030480078082854D2DFE800F004111A202B3B54552C48006828B900F05BF80620BB
:2024A0002849087002E005202649087047E000F051F80420234908700120234908603EE0CA
:2024C0000220204948700320087038E01D484078401E1C4948700846407808B9042008700B
:2024E0002DE01A48006884B244F010041848C0F8404C4FF00500134908704FF00A004870CA
:202500001DE010484078401E0E4948700846407870B90E48006884B224F010040C48C0F8EA
:20252000404C4FF0060008704FF000000649086005E000BF00BF06200249087000BF00BF92
:2025400070BD0000D8010020D4010020405C00400050004010B50748006884B224F0040426
:202560000548C0F8404CFEF785FF4FF43F400149086010BD405C0040005000402DE9F0415D
:2025800004460D4617461E46B8191C4951F82410884213D92A2D02D10220FDF700FF002015
:2025A000FDF7FDFE21220521204600F0C5FC0021012000F0A3FC0020BDE8F0811048816864
:2025C000104850F824007043814214D02A2D03D10220FDF7E4FE02E00020FDF7E0FE084995
:2025E000487B2422052100F0A7FC0021012000F085FC0020E0E70120DEE700002400002055
:20260000DC0400201C00002010B504462046FEF750FF68B10749487B3A22022100F08CFCA2
:202620000121084600F06AFC0020FDF7B8FE10BD00BFFCE7DC04002070B506460C48007C5A
:2026400010F0010F02D00B4C05250BE00EB90A4C00E00A4C0648C07C242802DC0448C57C98
:2026600000E024252946204600F0F6FF70BD0000DC040020500000205500002079000020CC
:2026800010B504460E48806818B90020FDF787FE0BE00B48007B10F0800F03D00020FDF754
:2026A0007EFE02E00220FDF77AFE0549487B2022052100F041FC0021012000F01FFC10BD6E
:2026C000DC04002010B504460821024800F0C4FF10BD0000A100002010B5044604210248B9
:2026E00000F0BAFF10BD00009D00002070B506460C4615461948007820BB1949487B2B463F
:2027000022462821FFF73AFF00B970BD1448007B10F0800F08D00220104908702A462146EB
:202720003046FFF721FE0CE00220FDF738FE0C49487B2422052100F0FFFB0121084600F008
:20274000DDFBE2E705480078022804D12A4621463046FFF709FE00BFD7E70000D00000205D
:20276000DC04002010B504462046FEF7A2FE68B11F49487B3A22022100F0DEFB0121084653
:2027800000F0BCFB0020FDF70AFE10BD194850F82400401E000E18490870164850F82400CD
:2027A000401E000C4870134850F82400401E000A8870104850F82400401EC8700F4850F8D7
:2027C0002400000E08710D4850F82400000C48710A4850F82400000A8871084850F824004B
:2027E000C8710821044800F037FF00BFCDE70000DC04002024000020BB0000201C00002037
:2028000010B504462046FEF754FE68B11A49487B3A22022100F090FB0121084600F06EFBFA
:202820000020FDF7BCFD10BD144850F82400000E13490871114850F82400000C48710F4872
:2028400050F82400000A88710C4850F82400C8710C4850F82400000C48720A4850F82400CC
:20286000000A8872074850F82400C8720C21044800F0F2FE00BFD6E7DC0400202400002046
:20288000C30000201C00002070B505460648C07C122802DC0448C47C00E0122421460348B3
:2028A00000F0DAFE70BD0000DC040020A900002010B504460121002000F020FB10BD000031
:2028C00010B504462046FEF7F4FD68B10949487B3A22022100F030FB0121084600F00EFB6C
:2028E0000020FDF75CFD10BD0121002000F006FB00BFF8E7DC04002010B504460D48806881
:2029000048B90C48007C10F0040F04D10121002000F0F4FA0CE00220FDF741FD0549487B8D
:202920002422052100F008FB0021012000F0E6FA10BD0000DC04002070B506460C4615463B
:202940001948007820BB1949487B2B4622462A21FFF714FE00B970BD1448007B10F0800F26
:2029600008D10120104908704FF44051022000F0E7F90CE00020FDF712FD0C49487B242259
:20298000052100F0D9FA0021012000F0B7FAE2E705480078012804D12A462146304601F0A1
:2029A0001DF900BFD7E70000D0000020DC040020002000BF03E00021034A1154401CB0F5FE
:2029C000184FF8DB704700004812002030B50346002000BF09E00C18B4F5184F00D330BDA2
:2029E0000C18044D2C5D1C54401C9042F3DB00BFF5E700004812002070B50346002000BF0B
:202A000009E00C18B4F5184F00D370BD1C5C0D18034E7455401C9042F3DB00BFF5E700004B
:202A20004812002030B503460C461546002207E0184600F008F824F812009B1C501C82B265
:202A4000AA42F5DB30BD0146088870472DE9F047064689461446B6F1006F06D328480068B6
:202A6000800200F10060B04202D80120BDE8F087FEF70AFBA6F1006822480068B8FBF0F715
:202A800020480068B8FBF0F100FB1180C0F34F0A1C480068CAEB500085B2AC4200DC2546FD
:202AA00028E019480068B84209D0164A126807FB02F101F10060FEF77BFA134807602A46B5
:202AC0004946304600F022F8AC4200D113E07F1C4FF0000A09EB45092E44601B84B209489B
:202AE0000068B4EB500F04D906480068C0F34F0500E02546D5E700BFFEF79CFA0020B5E7C9
:202B00003002002034020020380200202DE9F04105460E461746002407E036F814102846A5
:202B2000FEF792FAAD1C601C84B2BC42F5DBBDE8F08100002DE9F05F07468A461646B7F12F
:202B4000006F06D343480068800200F10060B84202D80120BDE8F09FFEF796FAA7F1006BB6
:202B60003D480068BBFBF0F83B480068BBFBF0F100FB11B0C0F34F0937480068C9EB500096
:202B800084B2A64200DC34465EE033490968C1F34F02314B1B6808FB03F101F100602F49D1
:202BA000FFF740FF00250BE009EB05002B4931F81000A0F57F41FF3900D003E0681C85B22F
:202BC000A542F1DB00BFA54222DA234A126808FB02F101F10060FEF7EBF9002508E03AF859
:202BE000150005EB09011D4A22F81100681C85B2A542F4DB18490968C1F34F02164B1B6808
:202C000008FB03F101F100601449FFF77FFF04E0224651463846FFF779FFA64200D114E01E
:202C200008F101084FF000090AEB440A2744301B86B209480068B6EB500F04D906480068CD
:202C4000C0F34F0400E034469FE700BFFEF7F2F900207FE730020020340200208009002018
:202C600070477047704700004FF6F8710140014A11607047505C004030B50146104B1A78C8
:202C8000002015E003060F4C04EB9353D3F8003C9BB248F68F74234048F280042343C4B254
:202CA00023430406074D05EB9454C4F8003C401C9042E7D341F08003034C236030BD000025
:202CC0003C010020005000404C5C004010B54A105300054A126892B202EBC00202F10402F8
:202CE000024C44F8123010BD505C00400060004010B502461048006880B200EBC20000F112
:202D000006000E4C04EB40033E290BDD481111F01F0F01D1441EA0B24FF4004444EA80246B
:202D20001C6007E0481011F0010F01D0441CA0B284021C6010BD0000505C004000600040E9
:202D400010B50F4B03EB8003D3F8003C9BB24BF68F7403EA040211F4805F01D082F480525B
:202D600011F4005F01D082F4005242F4004343F08003034C04EB8004C4F8003C10BD0000A0
:202D8000005000400B4A02EB8002D2F8002C92B24BF68F7302EA030181F4805181F4005166
:202DA00041F4004242F08002024B03EB8003C3F8002C70470050004010B54A105300044A3C
:202DC000126892B202EBC002024C44F8123010BD505C004000600040054A126892B202EB67
:202DE000C00202F10202034B43F8121070470000505C00400060004010B50F4B03EB80039C
:202E0000D3F8003C9BB248F6BF7403EA040211F0100F01D082F0100211F0200F01D082F012
:202E2000200242F4004343F08003034C04EB8004C4F8003C10BD000000500040074A02EBEC
:202E40008002D2F8002C92B248F68F131A400A43024B03EB8003C3F8002C70470050004043
:202E600010B500F001F810BD00200021214A126842F010021F4B1A601A46126822F0030298
:202E80001A601A46126842F001021A601A4A5268194B5A601A4652685A601A46526842F4CF
:202EA00080625A601A46526822F47C125A601A46526842F420125A601A46126842F08072C4
:202EC0001A6000BF0C4A126812F0007FFAD00A4A526822F00302084B5A601A46526842F020
:202EE00002025A6000BF044A526802F00C02082AF9D17047002002400010024070B5054676
:202F00000C460A480A490860084605730D22812000F02FFE0520074908702CB10420087039
:202F200030210120FFF768FF70BD000055534253FC040020D0000020014B99701A737047AF
:202F4000A900002010B500F009FD4FF48020FDF7D3FF4FF4802006490860082048710120A8
:202F600088710846FDF7CEFFFEF79EFA10BD00000400002010B50120FFF7F0F90121C80517
:202F8000FFF742F910BD000038B501242948006880B200F10400284951F8100080B201EB39
:202FA0004000009025480068007A092832D0009800782249096808700098401C009000983F
:202FC00000781E49096848700098401C0090009800EB44000090009931F8020B0091FDF7BA
:202FE00000FA164909684880009800EB44000090009931F8020B0091FDF7F3F90F490968DF
:203000008880009800EB44000090009800880B490968C8800120094909680872074800680F
:20302000C08810B9FEF73CFD01E0FDF7F9FDFEF70FFE38BD505C00400060004008020020D9
:203040002DE9F04755480068007800F07F08B8F1000F0AD151480068407A00F0DF004F497A
:20306000096848720020BDE8F087B8F1020F7ED14A480068408818B948480068007908B123
:203080000220F0E7DFF8189144480068477927F080052C4641480068407910F0800F07D0E5
:2030A000404800EB8400D0F8000C00F0300606E03C4800EB8400D0F8000C00F4405699F857
:2030C0000000A84204D91EB134480068807A08B90220C8E717F0800F10D0324800EB84008B
:2030E000D0F8000C00F0300010284DD1E0B2FDF7A5FC3021E0B2FFF77FFE45E0294800EB88
:203100008400D0F8000C00F44050B0F5805F3BD1ECB9254890F82C10E0B2FFF7E9FD214995
:2031200001EB8401D1F8001C89B24BF68F7201EA020080F4805080F4005040F4004141F021
:203140008001184A02EB8402C2F8001C1CE0E0B2FDF758FC134901EB8401D1F8001C89B280
:203160004BF68F7201EA020080F4805000E011E080F4005040F4004141F08001094A02EBE0
:203180008402C2F8001C00BF0849096848698047002068E700BF022065E700000802002014
:2031A0003C01002000500040400100201402002010B504462CB9012006490968088200200C
:2031C00010BD0549096808688047024800680A30F6E70000080200201402002010B50246F6
:2031E00006480068438A32B98888C01A034C24682082002010BD08681844FBE70802002035
:2032000010B504462CB90120064909680882002010BD0549096888688047024800680C30FE
:20322000F6E70000080200201402002010B504462CB90220394909680882002010BD0020B1
:203240003749088035480068007810F07F0F23D132490968487A10F0200F06D030490978DA
:2032600041F002012E4A117005E02D49097801F0FD012B4A117010F0400F06D02849097849
:2032800041F00101264A117005E02549097801F0FE01234A11703AE020480068007800F006
:2032A0007F00012801D11E48C8E71C480068007800F07F00022828D1184A1268517901F012
:2032C0000F0011F0800F0FD0164A02EB8002D2F8002C02F03002102A16D1114A127842F04F
:2032E00001020F4B1A700FE00E4A02EB8002D2F8002C02F44052B2F5805F05D1084A12787B
:2033000042F00102064B1A7001E0002096E70649096808698047024890E70000080200203C
:2033200002020020005000401402002010B50E480068C0780D494978884213DC0A4800685E
:20334000807878B908480068808858B906480068C078054909688872054909684868804796
:20336000002010BD0220FCE7080200203C0100201402002010B507480068407A40F0200018
:2033800004490968487204490968C8698047002010BD000008020020140200202DE9F0416B
:2033A0002F480068467926F080073C462C480068407910F0800F07D02A4800EB8400D0F8AC
:2033C000000C00F0300506E0264800EB8400D0F8000C00F4405524480078A04208D920488D
:2033E0000068408820B91DB11D480068807A10B90220BDE8F08116F0800F15D0194901EB66
:203400008401D1F8001C89B248F6BF7201EA020080F0100040F4004141F08001114A02EBBC
:203420008402C2F8001C15E00E4901EB8401D1F8001C89B24BF68F7201EA020080F48050E0
:2034400040F4004141F08001064A02EB8402C2F8001C00BF05490968886980470020C8E7A7
:2034600008020020005000403C0100201402002010B5174B1B68D978154B1B685879154BF0
:203480001B689A699047044611480068807AE8B13CB90F480068007918B90D48006880787E
:2034A00008B1022010BD8CB90B490968C868804707480068407906490968C8720448006845
:2034C000C0780349096808730020EBE70220E9E7080200200C0200201402002030B5002104
:2034E000002200233D4C2468A0B200BF09E03C4C04EB8104D4F8004CA4B23A4D45F82140E9
:20350000491C0829F3D340F48060344C206040F00100334CC4F8400C20F001002F4C206077
:2035200000BF314C246814F4806FFAD04FF6FF342D4D2C604FF0000109E02A4C54F8214038
:20354000A4B2274D05EB8105C5F8004C491C0829F3D340F00800214C2060214CD4F8404CDC
:20356000A0B240F004001E4CC4F8400C1F4C2368226822F0030242F0010222604FF0E024C2
:20358000D4F8104D44F004044FF0E025C5F8104D134CD4F8444C14F4805F06D1144C246803
:2035A00024F00404C5F8104D16E04EF6FF740E4D2C600B4CD4F8404CA0B220F00800084CD4
:2035C000C4F8400C094C23604FF0E024D4F8104D24F00404064D2C6030BD0000405C0040DB
:2035E000005000400C050020445C00400070004010ED00E07047000010B51348006840F02E
:2036000001001149086008464068104908400E494860084600680E4908400B4908600846F2
:20362000006820F4802008600846406820F4FE0048604FF41F008860FFF712FC4FF0006069
:203640000449086010BD0000001002400000FFF8FFFFF6FE08ED00E070B505460C462246AE
:203660002946812000F085FA30210120FFF7C4FB03200549087005488068001B0349886037
:203680000020087370BD0000D0000020FC04002010B540F225511D4800F098F810B31B48DA
:2036A00000F050F9C4B21A48008810F4004F2BD11748008810F4804F0CD00A2C03D0002063
:2036C0001349088020E01248008840F400401049088019E00D2C06D10D48008840F48040F5
:2036E0000B49088010E00A480088C0F30D0009490C5407480088401C0549088008460088D3
:20370000C72801DD0020088010BD0000003801403C0200208011002021B1828942F400527A
:20372000828104E082894DF6FF731A408281704710B504462048844209D101218803FEF715
:2037400093FD00214FF48040FEF78EFD32E01B48844209D101214804FEF766FD00214FF4F6
:203760000030FEF761FD25E01548844209D101218804FEF759FD00214FF48020FEF754FD81
:2037800018E01048844209D10121C804FEF74CFD00214FF40020FEF747FD0BE00A4884424D
:2037A00008D101210805FEF73FFD00214FF48010FEF73AFD10BD00000038014000440040E6
:2037C00000480040004C00400050004070B502460024002300250020A1F510666A3E00D1C7
:2037E00000BFC1F3421501F01F03012606FA03F3012D02D19689334006E0022D02D1168AB4
:20380000334001E0968A33400C12012606FA04F41688344013B10CB1012000E0002070BDA3
:20382000F0B503460024002600250020A1F510676A3F00D100BF1846C1F3421401F01F0647
:20384000012707FA06F5012C01D10C3004E0022C01D1103000E014301AB107682F430760AE
:2038600002E00768AF430760F0BD00002DE9F04786B005460E460024A24600BFA1460027F6
:20388000B08900B100BF2F462C8A4CF6FF700440F08804432C82AC894EF6F3100440B088FA
:2038A00031890843718908430443AC81AC8A4FF6FF400440B0890443AC8201A8FEF7E4FC20
:2038C0001F48874202D1DDF810A001E0DDF80CA0A88910F4004F08D00AEBCA0000EB0A10DE
:2038E00031684900B0FBF1F807E00AEBCA0000EB0A1031688900B0FBF1F86420B8FBF0F0DA
:2039000004012009642101FB1089A88910F4004F08D0322000EBC900B0FBF1F000F007007A
:20392000044308E0322000EB09106421B0FBF1F000F00F0004432C8106B0BDE8F08700002C
:203940000038014001468888C0F30800704710B54FF48020FDF7D0FA10BD704708B501215C
:203960002020FEF771FC4FF40070ADF8000003208DF8020014208DF8030069460148FDF7FB
:20398000BFFB08BD0014014010B5FCF793FE10BD10B5084808490860022009680872074813
:2039A00007490860074808490860054909680868804710BD6409002008020020400100206C
:2039C0000C020020700100201402002008B54FF4A060FEF739F814208DF8000002208DF86C
:2039E000010000208DF8020001208DF803006846FDF7E8FF2A208DF8000000208DF8010078
:203A00006846FDF7DFFF08BD10B538480068384908800846008800F4004036490988084247
:203A200001D0FCF7ABFE3248008800F4806031490988084206D04FF6FF302C4908602E4950
:203A4000486880472A48008800F4005029490988084203D04DF6FF70244908602448008816
:203A600000F4805023490988084207D04EF6FF701E4908604FF00000FEF7FCFC1C480088CA
:203A800000F400601B49098808420CD01B48007810B1FFF723FD02E00220FEF7EBFC4FF2E4
:203AA000FF70124908601248008800F4007011490988084209D04FF6FF500C4908601048D7
:203AC000007800F101000E4908700948008800F4807008490988084207D04FF6FF600349FD
:203AE00008604FF00700FEF7C5FC10BD445C0040340100201202002040010020D0010020DA
:203B0000F800002010B5FFF77FFF10BD10B50020FFF7A6F810BD00000020074908604FF426
:203B20003F4006490880084600880549C1F8400C4FF0000070470000445C004012020020FC
:203B4000005000402DE9F04104460E46002504F07F00FDF7D3FB054604F07F00FDF7BCFB2D
:203B600007462A4601463046FEF75EF82846BDE8F0812DE9F04104460E46154604F07F0049
:203B8000FDF7DAFB0746AAB20146304600F00AF804F07F00A9B2FFF71FF90020BDE8F081F2
:203BA00000BFFEE7F0B5144604F1010C4FEA6C07DFF824C00CEB41033D460AE00678401C77
:203BC00090F800C046EA0C2223F8022B9B1C401C6D1E002DF2D1F0BD006000402DE9F041D5
:203BE00004460D4616463E48006800F140073D48007870B93C4850F8240068433B490860F9
:203C0000394850F824007043394908600120354908703448007801284ED1002035490860C1
:203C200010E0344801680068401C324A10603248415C32482A4A1268815429480068401C76
:203C40002749086026480068B842EAD3274800682B490988084425490860254800682849BB
:203C60000988401A224908601F4850F824000968B1FBF0F200FB121080B900201849086075
:203C8000194850F8240083B2174850F82400174A1268111A194A2046FDF758FC19488068F7
:203CA00017490988401A174988604FF440510220FFF746F8FDF7F3FB0D48006818B1124885
:203CC000007804280AD10020054908600121FFF715F9002003490870FDF7DCFBBDE8F081A4
:203CE00030000020340000201C00002040000020440000204C0000209C0400209C02002036
:203D0000D2000020FC040020D000002004460D461646324629462046FEF70CFF01E000F08A
:203D200077FDFCE70FB4054B10B503A9044A029800F01AF810BC5DF814FB000065440008DD
:203D40004002002002E008C8121F08C1002AFAD170477047002001E001C1121F002AFBD108
:203D600070470120704700002DE9FF4F8DB005460F460026EEE1252879D100246D1CF94AF7
:203D8000A246A14601212B78203B01FA03F0104202D004436D1CF6E728782A2810D06FF044
:203DA0002F022878A0F13001092915D80AEB8A0102EB410144F0020400EB010A6D1CF0E712
:203DC00057F804ABBAF1000F03DA44F40054CAF1000A44F002046D1C28782E2817D115F84F
:203DE000010F44F004042A280ED06FF02F022878A0F1300109290AD809EB890102EB410194
:203E000000EB01096D1CF2E757F8049B6D1C28786C280FD006DC4C2817D068280DD06A2885
:203E200014D104E0742810D07A280FD10DE044F400140AE044F4801401E044F4401469787E
:203E4000814202D16D1C04F580146D1C95F800C0BCF16E0F2AD012DCBCF1630F3CD007DCC0
:203E6000BCF1000F76D0BCF1580F19D1ACE018E0BCF1640F6FD0BCF1690F11D16BE0BCF160
:203E8000730F32D006DCBCF16F0F71D0BCF1700F06D19BE0BCF1750F6BD0BCF1780F69D0F9
:203EA0006046DDE90F129047761C52E1C4F30250022806D003280AD0042801CF0AD006608F
:203EC00047E101CF4FEAE671C0E9006141E101CF06803EE106703CE101CF8DF800000020B1
:203EE0008DF80100EB46012003E057F804BB4FF0FF3061074FF0000102D40DE008F1010125
:203F0000884649450FDA8045F8DB1BF808100029F4D108E008F1010188468142FADB1BF84F
:203F200008100029F6D1DDE90F23AAEB08008146214600F040F9304400EB080604E0DDE976
:203F40000F121BF8010B9047B8F10108F7D221464846F9E002E10A20C4F302524FF0000B9F
:203F60000890022A07D001CFC117032A09D00AE035E022E023E0FF1D27F00707F7E80201D1
:203F800005E000B2C117042A01D140B2C117002906DA0023D0EB030063EB01012D2202E07D
:203FA000220504D52B228DF82420012203E0E20701D02022F7E7904653E00A2110E01020B7
:203FC0004FF0000B08900EE0102109E010214FF0000B44F004044FF00809089103E008214B
:203FE0004FF0000B0891C4F30252022A04D001CF0021032A06D007E0FF1D27F00707F7E8D8
:20400000020105E080B20021042A01D1C0B200214FF00008220724D5BCF1700F2AD0089BA0
:2040200083F0100353EA0B0309D150EA010206D030228DF824208DF825C002229046089BA0
:2040400083F0080353EA0B030BD150EA010201D1620706D530228DF824204FF00108A9F16B
:20406000010941A2BCF1580F00D044A20B9208AA0A920FE040228DF824200122DEE75B46FB
:20408000089AFCF7F9F80B9B9B5C0A9AA2F101020A92137050EA0102F1D10A98ADEB00006B
:2040A00000F1200B600702D524F4803401E04FF00109002049465A46D94501DDA1EB0200D7
:2040C00000EB0B0141440890AAEB01000B90E00306D4DDE90F2321460B9800F06CF806443E
:2040E0004FF000090DF1240A07E0DDE90F121AF809009047761C09F10109C145F5DBE0033D
:204100000CD5DDE90F2321460B9800F054F8064404E0DDE90F1230209047761C0899481EAB
:2041200008900029F5DC08E00A980A990078491C0A91DDE90F129047761CBBF10001ABF1AF
:20414000010BF1DC0B982146DDE90F2300F020F806446D1C287800287FF40DAE11B030467C
:20416000BDE8F08F0928010030313233343536373839414243444546000000003031323381
:20418000343536373839616263646566000000002DE9F0410446002517461E46880405D4A7
:2041A00006E039462020B04705F10105641EF8D52846BDE8F0812DE9F04104460025302787
:2041C00090461E46C80300D42027880405D506E041463846B04705F10105641EF8D52846BE
:2041E000BDE8F08110B51148006811490840B0F1005F19D100214FF40000FEF705F80B48EE
:2042000040680C490860084600680B4908600749086880F3088800BF052000F015F90648D4
:204220000068804700BFFEE710BD0000005000080000FE2FFC010020F8010020064800686D
:2042400006490840B0F1005F04D1002000F072FBFDF70EFC70470000005000080000FE2F3B
:204260002DE9F041ADF5806D0546884616461848FBF7EBFF87B24FF480616846FBF7D9FFE2
:204280000024B7421FDC3A4641461148FBF7E5FFC8B94FF4A04410E00E492144A1F5A04006
:2042A0004FF400726946FEF7BDFB4FF4806221466846FEF7A1FB04F58064AC42ECD305F59E
:2042C0008060054908600DF5806DBDE8F0810000A449000800500008100000202DE9F0417F
:2042E00000260025002700242048006808B9FDF7BFFBFDF7F9FC002404F1C80704F12805F6
:2043000000BF2EE00A2000F09FF81948016919488847064616B104F13C0703E0BC4201D324
:20432000FFF760FF04F11400A8420AD8104800218268114890470E48012182680F48904730
:204340000EE0AC420AD80A48012182680A4890470748002182680948904701E004F1280593
:204360000A34B4F5C87FCDD3BDE8F081E801002050090020440500202C05002038050020C0
:204380002DE9F0472B4DDFF8B0804FF000094FF0000A00260024002728492868884202D0B2
:2043A000C817BDE8F08725496868884201D0C817F7E7022409E055F8240058F8241088429E
:2043C00002D04FF0FF30ECE7641C402CF3D34FF00065D5F80090D5F804A07822184915484E
:2043E000FEF720FB164EC6F80090C6F804A0032404E055F8240046F82400641C0B2CF8D339
:2044000078220F494FF00060FEF794FBFCF73CFE002708E007497818FCF7CAFD0A2000F097
:2044200013F807F58067B7F5A04FF3D3FCF702FE0020B6E7005000080060000817173688D1
:204440005005002000F04EFC002107E0401E002100E0491C42F6E0629142FADB0028F5DCC6
:204460007047000000BF044A128812F0400FFAD0C2B2024B1A8070470038014004380140BB
:204480008CB00025202104A8FBF7D3FE00200190029003900026804600244F4F4F4FA7F151
:2044A000006739464FF00060FDF7D8FA0520FFF7CBFF002000F03EFA00F0CAF820B9FFF703
:2044C0005FFF08B9FFF7BEFFFFF75AFF4448006801904448D0F8EC070290434800680390D7
:2044E00000BFDDE9010100EA0100019A039921EA020140EA010004900399019800EA010026
:20450000DDE9021221EA020140EA01000590DDE9010180EA0100039980EA01000690039987
:20452000019860EA0100029980EA0100079000BF00BFDDE9040100EA01002C4940EA010026
:2045400008900699049800EA0100294940EA010009900499069820EA0100264940EA010087
:204560000A90DDE9050120EA0100204940EA01000B9000BF4FF001001F4908601F4E4FF020
:20458000100231461E4800F04DF83546002409E004A850F8240055F82410884201D04FF0FC
:2045A0000108641C082CF3D3B8F1000F06D1FFF795FEFDF743FC002000F04CF8FDF794FB56
:2045C000FDF73CFC0FA0FFF7ADFB12A02968FFF7A9FB0A2000F03EF80054000800010008D0
:2045E000E8F7FF1F00F0FF1FF0F7FF1FED847535684573468967C8ADE80100205005002047
:20460000004C0008554944206572726F72210D0A000000007061737377643A253038580D24
:204620000A0000002DE9F04107460D461646002407E0384600F009F825F81400BF1C601C2B
:2046400084B2B442F5DBBDE8F0810146088870470020704706464FF000080027B946002406
:204660004FF48075FDF740FB4948006885B22846FCF72AFD46B1A5F10A004FF48061A0FBC5
:204680000101444908600AE005F1120042490968401A4FF48061A0FB01013E4908604FF4E8
:2046A00000703E4908603B4800680968B0FBF1F03B490860012000F03DF9FEF743FCFEF757
:2046C00059FCFFF783F9FFF763F90A20FFF7BCFE34A0FFF727FB002404F1C80904F13207E3
:2046E00033480121826833489047314801218268314890474BE010E00020304908602C487C
:20470000012182682B4890472948012182682A4890474FF47A70FFF797FE284800680028C5
:20472000EAD10A20FFF790FE0A3421480169244888478046B8F1000F02D004F1320908E05C
:204740004C4506D31FA0FFF7EDFAFFF777FD04F57A7904F19600B8420AD81548002182682E
:2047600014489047124800218268134890470EE0BC420AD80E48012182680E4890470C48BE
:20478000012182680C48904701E004F5FA77B2E7E0F7FF1F14000020DC0100201C0000209C
:2047A000240000206D61696E202E2E2E0D0A0000500900202C05002038050020EC0100201B
:2047C00044050020626F6F74206170700D0A0000084B0360084B4360084B8360084BC360EC
:2047E000084B036109B1084B83600AB1074B036170470000E520000871200008A12100087A
:20480000DB210008A1200008BD210008C1200008002500244FF4FA60FFF716FEFDF764FABA
:2048200000BF04F1280500BF17E00A20FFF70CFE04F11E00A84205D8114800218268114820
:20484000904709E0AC4205D80D48012182680D48904701E004F164050A3442F21070844249
:20486000E3D3074800218268064890470448002182680548904701E0FDF7FAF8FCE70000DE
:20488000500900202C0500203805002010B586B00446012144F20400FDF7D6FC2348FEF72A
:2048A00047FF4FF40070ADF8140003208DF8160018208DF8170005A91D48FCF721FC4FF44E
:2048C0008060ADF8140004208DF8170005A91848FCF716FC25208DF8000003208DF80100F9
:2048E0008DF8020001208DF803006846FDF76AF801940020ADF80800ADF80A00ADF80C00C2
:20490000ADF810000C20ADF80E0001A90748FEF7ADFF012240F225510448FEF781FF0121BB
:204920000248FEF7F9FE06B010BD0000003801400008014010B5044601210420FDF784FC33
:204940004CB11CB31248006880B220F002001149C1F8400C1AE00E48006880B240F002000A
:204960000C49C1F8400C0C48D0F8040820F47F200949C1F804080846D0F8040840F44C3019
:20498000064908604FF000000549086010BD0000405C0040005000400000014004080140A4
:2049A000B0012142536F6A69726F20313D4620342F34207C7C353631322D7C322D3332315E
:2049C000367C332D2D353631327C322D2D2D7C3332313535337C332D353631327C322D2D34
:2049E0002D7C33323136332D7C332D353631327C322D2D2D7C33323136362D7C362D2D301C
:204A00007C002A20417574686F722020203A206D657261666F75722E626C6F672E313633A8
:204A20002E636F6D0D0A2A204461746520202020203A20322F32362F323031350D0A001247
:204A4000010002000000408304205700020102030109022000010100C032090400000208D6
:204A60000650040705810240000007050202400000040309042603510069004600720065A9
:204A8000006500200055005300420020005500700064006100740065002000260351006921
:204AA00000460072006500650020005500530042002000530074006F007200610067006575
:204AC0000010035100690020004D00610073007300446973456E61626C650000FC4A0008A0
:204AE000000000209C02000042030008F84B00089C020020ACAB0000543D0008011102445A
:204B0000503580020220081D225169467265652020534420466C617368204469736B202019
:204B200020312E30202442036206627002150A4208021002141A035512531A4204296901A6
:204B40001213E90E0C1808C319040A15F1208123030113211814082D171B081D081A1F0424
:204B60001309161B08D1041AB9041A7D041A69041A91044132402940DA81501A4938690C8C
:204B80001AB104133F4A3308121A510829BA1A710832041A750832265A9B0822DC33201AE7
:204BA0001AC11072101993D11AD11C1AD40401382D0102030404380906070809020406082B
:204BC00061D94E299C2913298429B029E86A808D140801401A0C041A10041A14041A180421
:204BE0001A1C0415200140011A023C1A08381A20341932D911000000FFFFFFFFFFFFFFFFB7
:204C000010B5D1E900231A400C688B68A3431A4302608B680A681A40D1E90134A3431A439B
:204C20004260D1E900235A408B685A4082608B680A6862EA03024B685A40C260D0E90023EB
:204C40001A40664B1A430261836802681A40644B1A434261036882689A43624B1A4382610C
:204C6000D0E901239A435D4B1A43C26110BD70B502461046D0F8A0300C68C0F8A0400C30E2
:204C80000D688C68AC430460D1E90145AC434460D1E900456C405C4084600C68856865EAEA
:204CA00003056C40C460D1E900452C448D682C440461C56804682C44D1E90156B5432C4362
:204CC0004461056944682C44D1E90156B5432C438461456984682C44D1E90156B5432C43C6
:204CE000C46170BDADF5826D4FF4806101A8FBF7A0FA4FF480744FF4E130FFF7C7FD3A48B1
:204D0000006884B22046FCF7DFF900F039F83748D0F8E807CDF8040435480068CDF80804EA
:204D20003248D0F8F007CDF80C044FF0800201A94FF00060FDF776FE0DF2044101A8FFF710
:204D400096FF802201A91005FDF7F4FE0DF2044106C91144DDF80C24114401F47F51254A81
:204D60008818921401A9FDF75DFE0DF2044101A8FFF746FF4FF4007201A91F48FEF7C6FF4C
:204D80001FB50020009001900290039000241B4820F00104022269462046FDF743FE18486F
:204DA00020F00104022269462046FDF7C3FE154820F00104022269462046FDF7BBFE1FBDBC
:204DC00010B5002300BF11F8014B00F8014B5B1C9342F8D30024047010BD0000ED847535FC
:204DE000684573468967C8ADE0F7FF1F00F0FF1FECF7FF1F00100008004C0008633D0008D0
:204E0000514600084544000870470000785634127856341278563412785634127856341247
:0C4E20007856341278563412785634124A
:00000001FF
