:020000040800F2
:1050000060070020E1510008A157000899570008E7
:105010009D57000881560008B35D0008000000009D
:10502000000000000000000000000000955900088A
:1050300085560008000000005D580008915A0008DD
:10504000FB510008FB510008FB510008FB51000810
:10505000FB510008FB510008FB510008FB51000800
:10506000FB510008FB510008FB510008FB510008F0
:10507000FB510008FB510008FB510008FB510008E0
:10508000FB510008FB510008FB510008FB510008D0
:10509000FB510008FB510008FB510008FB510008C0
:1050A000FB510008FB510008FB510008FB510008B0
:1050B000FB510008FB510008FB510008FB510008A0
:1050C000FB510008FB510008FB510008FB51000890
:1050D000FB510008F55A0008FB510008FB5100087D
:1050E000FB510008FB510008FB510008FB51000870
:1050F000FB510008FB510008FB510008FB51000860
:10510000FB510008FB510008FB510008FB5100084F
:10511000FB510008FB510008FB510008FB5100083F
:10512000FB510008FB510008FB510008FB5100082F
:1051300000F002F800F044F80AA090E8000C824465
:105140008344AAF10107DA4501D100F039F8AFF242
:10515000090EBAE80F0013F0010F18BFFB1A43F055
:10516000010318471417000034170000103A24BF39
:1051700078C878C1FAD8520724BF30C830C144BFBC
:1051800004680C60704700000023002400250026FE
:10519000103A28BF78C1FBD8520728BF30C148BF9A
:1051A0000B607047782900F09B80732900F0018222
:1051B000002070471FB501F019F91FBD10B510BDD3
:1051C00000F02AFA1146FFF7F5FF00F01DFF00F08E
:1051D00048FA03B4FFF7F2FF03BC00F025FE00001D
:1051E0000948804709480047FEE7FEE7FEE7FEE77B
:1051F000FEE7FEE7FEE7FEE7FEE7FEE704480549B7
:10520000054A064B70470000955A000831510008C6
:105210006001002060070020600300206003002080
:10522000704700000FB4044910B503AA029800F0BB
:10523000C5F910BC5DF814FB1C00002070B50446D5
:10524000856900683026C10600D42026C00708D032
:1052500070BDD4E9012130469047206A00F1010079
:1052600020626D1EF5D570BD70B504468569006875
:10527000C00708D170BDD4E9012120209047206AE1
:1052800000F1010020626D1EF5D570BD70B50546B8
:105290000C46012A05D02868800600D5EA6900235B
:1052A00002E0012305E05B1C934202D2E05C00288F
:1052B000F9D1A869E618C01AA861286A18442862BA
:1052C0002846FFF7BBFF04E0D5E9012114F8010BE4
:1052D0009047B442F8D32846FFF7C6FF70BD0000E0
:1052E00070B504460D4621461068AFF30080216872
:1052F000090502D5104A7A4402E00F4A7A440E3278
:10530000002104F1240307E000F00F064FEA10101B
:10531000965D5E5401F101010028F5D1206800235B
:10532000000704D5702D02D009B1113202232046A6
:10533000BDE8704000F0D1B8421500002DE9F05FE3
:105340004FF0000B044689464FF0010AC0F820B028
:105350002046E168884700287ED0252806D0D4E979
:1053600001219047206A401C2062F1E7444F00264B
:105370007F442046E16888472028054608DB312D18
:1053800006D207EB050010F8200C08B10643F0E741
:10539000B00701D526F00406C4F81CB00027C4F8F5
:1053A00018B02A2D0DD05246A5F130010A292DD270
:1053B000BAF1000F2AD0924604EB8708C8F81810FB
:1053C00019E059F8041B204604EB87029161E1685B
:1053D0008847012F05461BD1E069002823DA26F013
:1053E000200620E0D8F8180000EB800005EB400014
:1053F0003038C8F818002046E1688847A0F130012D
:1054000005460A2902D2BAF1000FEBD1012F0AD0CA
:105410002E2D08D12046E16888477F1C0546022FC3
:1054200046F02006BDDBA069002803DA404246F0C2
:105430000106A061F00701D026F0100665B1A5F1C4
:105440004100192802D8203546F400664A4629460C
:10545000204626604E4600E00FE0FFF7A3FE50B165
:10546000012805D0F61D26F0070000F108096FE7B6
:1054700006F104096CE7284671E7206ABDE8F09F51
:10548000F01400004FF0000200B513469446964613
:10549000203922BFA0E80C50A0E80C50B1F1200147
:1054A000BFF4F7AF090728BFA0E80C5048BF0CC0F5
:1054B0005DF804EB890028BF40F8042B08BF704753
:1054C00048BF20F8022B11F0804F18BF00F8012BC5
:1054D000704770477047704770472DE9F0470D4699
:1054E00004469246994600F124080168880604D5CE
:1054F000E06921F01001216000E001200027A842AE
:1055000001DDA0EB0507A16907EB050202EB030033
:10551000A1EB0000A0612068C00602D42046FFF77E
:105520008DFE002608E0D4E901211AF80600904714
:10553000206A401C761C20624E45F4DB2068C006C1
:105540000AD52046FFF77AFE06E0D4E90121302093
:105550009047206A401C2062381EA7F10107F4DC46
:1055600007E0D4E9012118F805009047206A401CA3
:105570002062281EA5F10105F3DC2046FFF774FE2A
:1055800021680220090600D40120BDE8F08710B58B
:10559000436913B1AFF3008001E0FFF777FE01200C
:1055A00010BD126800F124010A7000224A70012225
:1055B000EDE711684FF0FF32E9E70000074B70B5E7
:1055C0000C467B4400F011F80546204600F020F818
:1055D00010B14FF0FF3070BD284670BD270A0000A3
:1055E00001694A1C02610878704700B58FB0CDE9A7
:1055F00001310021059105497944CDE90310114697
:105600006846FFF79BFE0FB000BD0000E5FFFFFFFF
:10561000C06800F080007047754600F029F8AE467B
:1056200005006946534620F00700854618B020B5AE
:10563000FFF7E4FDBDE820404FF000064FF0000703
:105640004FF000084FF0000B21F00701AC46ACE82A
:10565000C009ACE8C009ACE8C009ACE8C0098D4697
:1056600070470446AFF300802046FFF7B2FD00000C
:1056700000487047FC0000200048704700010020EF
:1056800000BFFEE770472DE9F041024600250026E5
:10569000002000230024002791F803C00CF00F0520
:1056A00091F803C01CF0100F03D091F802C04CEA2F
:1056B0000505B1F800C01CF0FF0F31D014680020C0
:1056C0002BE04FF0010C0CFA00F3B1F800C00CEA2B
:1056D00003069E4220D183004FF00F0C0CFA03F713
:1056E000BC4305FA03FC4CEA040491F803C0BCF186
:1056F000280F06D14FF0010C0CFA00FCC2F814C0C0
:105700000AE091F803C0BCF1480F05D14FF0010C3D
:105710000CFA00FCC2F810C0401C0828D1D3146059
:10572000B1F800C0BCF1FF0F34DD546800202EE05A
:1057300000F1080C4FF0010808FA0CF3B1F800C0B2
:105740000CEA03069E4221D183004FF00F0C0CFAA5
:1057500003F7BC4305FA03FC4CEA040491F803C0C8
:10576000BCF1280F05D100F1080C08FA0CF8C2F8BA
:10577000148091F803C0BCF1480F07D100F1080C68
:105780004FF0010808FA0CF8C2F81080401C0828F5
:10579000CED35460BDE8F08100BFFEE700BFFEE756
:1057A000704710B54FF4A06000F044F810BD000041
:1057B00070B5002100230F22C4784CB31A4C246822
:1057C00004F4E064C4F5E0644FEA1421C1F1040379
:1057D00022FA01F2447804FA03F1847804EA02041C
:1057E00044EA01014FEA0111104C0678A1550478F2
:1057F00004F01F054FF0010404FA05F405784FEAA0
:1058000065154FF0E02606EB8505C5F8004109E077
:10581000047804F01F050124AC40054D067876118C
:1058200045F8264070BD00000CED00E000E400E00B
:1058300080E100E002490143024A11607047000024
:105840000000FA050CED00E0024A0A400243024B58
:105850001A60704780FFFF1F08ED00E070470000EE
:1058600029B1064A12690243044B1A6104E0034A53
:1058700012698243014B1A61704700000010024018
:1058800029B1064A92690243044B9A6104E0034A33
:1058900092698243014B9A617047000000100240F8
:1058A00029B1064AD2680243044BDA6004E0034A95
:1058B000D2688243014BDA6070470000001002405A
:1058C00030B500210022002400232D4D6D6805F025
:1058D0000C0121B1042905D0082923D105E0294D67
:1058E000056022E0274D05601FE0254D6D6805F439
:1058F0007012234D6D6805F48034022505EB924249
:105900001CB9214D554305600BE01D4D6D6815F424
:10591000003F03D01C4D5543056002E0194D55432F
:10592000056002E0174D056000BF00BF144D6D68B3
:1059300005F0F0010909154D6B5C0568DD40456017
:105940000F4D6D6805F4E061090A104D6B5C456808
:10595000DD4085600A4D6D6805F46051C90A0B4D44
:105960006B5C4568DD40C560054D6D6805F44041E0
:10597000890B074D6B5CC568B5FBF3F5056130BD60
:105980000010024000127A0000093D0020000020B3
:1059900030000020704710B500F002F810BD000084
:1059A000002100202E4A126842F480322C4B1A60EB
:1059B00000BF2B4A126802F40030491C10B9B1F53F
:1059C000A06FF6D1264A126812F4003F01D00120E0
:1059D00000E00020012842D1224A126842F0100261
:1059E000204B1A601A46126822F003021A601A4607
:1059F000126842F002021A60194A5268184B5A6043
:105A00001A4652685A601A46526842F480625A60D6
:105A10001A46526822F47C125A601A46526842F4BE
:105A2000E8125A601A46126842F080721A6000BF8B
:105A30000B4A126812F0007FFAD0094A526822F02D
:105A40000302074B5A601A46526842F002025A603B
:105A500000BF034A526802F00C02082AF9D17047CD
:105A60000010024000200240042808D14FF0E0213D
:105A7000096941F004014FF0E022116107E04FF0A5
:105A8000E021096921F004014FF0E0221161704723
:105A90007047000010B51348006840F0010011493C
:105AA000086008464068104908400E4948600846AA
:105AB00000680E4908400B4908600846006820F459
:105AC000802008600846406820F4FE0048604FF4DB
:105AD0001F008860FFF75FFF4FF000600449086017
:105AE00010BD0000001002400000FFF8FFFFF6FEAE
:105AF00008ED00E010B540F225511D4800F098F87F
:105B000010B31B4800F050F9C4B21A48008810F4D2
:105B1000004F2BD11748008810F4804F0CD00A2C6E
:105B200003D000201349088020E01248008840F488
:105B300000401049088019E00D2C06D10D4800885E
:105B400040F480400B49088010E00A480088C0F308
:105B50000D0009490C5407480088401C054908807D
:105B600008460088C72801DD0020088010BD00001D
:105B700000380140180000203400002021B1828943
:105B800042F40052828104E082894DF6FF731A408C
:105B90008281704710B504462048844209D1012112
:105BA0008803FFF77DFE00214FF48040FFF778FE69
:105BB00032E01B48844209D101214804FFF750FE1E
:105BC00000214FF40030FFF74BFE25E015488442DA
:105BD00009D101218804FFF743FE00214FF4802002
:105BE000FFF73EFE18E01048844209D10121C804A5
:105BF000FFF736FE00214FF40020FFF731FE0BE0E7
:105C00000A48844208D101210805FFF729FE002136
:105C10004FF48010FFF724FE10BD00000038014053
:105C20000044004000480040004C0040005000404C
:105C300070B502460024002300250020A1F510665F
:105C40006A3E00D100BFC1F3421501F01F030126D7
:105C500006FA03F3012D02D19689334006E0022DA6
:105C600002D1168A334001E0968A33400C12012695
:105C700006FA04F41688344013B10CB1012000E098
:105C8000002070BDF0B5034600240026002500204A
:105C9000A1F510676A3F00D100BF1846C1F3421456
:105CA00001F01F06012707FA06F5012C01D10C307F
:105CB00004E0022C01D1103000E014301AB1076862
:105CC0002F43076002E00768AF430760F0BD0000A4
:105CD0002DE9F04786B005460E460024A24600BFD7
:105CE000A1460027B08900B100BF2F462C8A4CF690
:105CF000FF700440F08804432C82AC894EF6F31008
:105D00000440B08831890843718908430443AC8159
:105D1000AC8A4FF6FF400440B0890443AC8201A82E
:105D2000FFF7CEFD1F48874202D1DDF810A001E049
:105D3000DDF80CA0A88910F4004F08D00AEBCA00C7
:105D400000EB0A1031684900B0FBF1F807E00AEBFC
:105D5000CA0000EB0A1031688900B0FBF1F864203A
:105D6000B8FBF0F004012009642101FB1089A88927
:105D700010F4004F08D0322000EBC900B0FBF1F066
:105D800000F00700044308E0322000EB0910642112
:105D9000B0FBF1F000F00F0004432C8106B0BDE829
:105DA000F08700000038014001468888C0F30800F1
:105DB000704700BFFEE7000030B502460C688B68F4
:105DC000A3431360D1E90134A3435360D1E9003404
:105DD0006340144C634093600B68124DED4394682C
:105DE0002C436340D360D1E9003423448C682344BE
:105DF0001361D46813682344D1E90145AC432343BC
:105E00005361146953681C44D1E90135AB431C4309
:105E10009461546993682344D1E90145AC43234319
:105E2000D36130BDBA510999014600BF704770B5C2
:105E3000ADF5816D05464FF4806102A8FFF722FBA6
:105E40000024002600BF06E04FF00060005902A9C0
:105E500041F82400641CFF2CF6D90C2405E04FF017
:105E6000FF3002A941F82400641C142CF7D33246F9
:105E70004FF4806102A800F063F806462E604FF4EC
:105E800080640AE04FF0006000590190042101A8ED
:105E90002A6800F055F82860241DB4F5205FF1D37E
:105EA0002D1D2E604FF480640AE04FF00060005911
:105EB0000190042101A82A6800F042F82860241DFE
:105EC000B4F5705FF1D32D1D2E604FF480640AE0AD
:105ED0004FF0006000590190042101A82A6800F0E9
:105EE0002FF82860241DB4F5904FF1D32D1D2E609E
:105EF0004FF480640AE04FF00060005901900421E3
:105F000001A82A6800F01CF82860241DB4F5984FF9
:105F1000F1D32D1D2E604FF480640AE04FF0006035
:105F200000590190042101A82A6800F009F82860AE
:105F3000241DB4F5A04FF1D30DF5816D70BD0000A7
:105F400030B503460C46002108E0585C5040C0B212
:105F5000044D55F8200080EA1222491CA142F4D3D6
:105F6000104630BDFC63000810B56FF00400FFF769
:105F70007BFD074800680749B0FBF1F0064908704F
:105F8000084600784FF47A7148430449088010BDF0
:105F90000000002000127A001400002016000020EB
:105FA0000146114A12884A434FF0E0235A61002209
:105FB0009A611A46126942F001021A6100BF4FF05D
:105FC000E022106910F0010F02D010F4803FF6D0EB
:105FD0004FF0E022126922F001024FF0E0231A6133
:105FE00000229A61704700001600002000BF044A9A
:105FF000128812F0400FFAD0C2B2024B1A807047DA
:1060000000380140043801409EB00024202116A829
:10601000FFF738FA002013901490159020210BA858
:10602000FFF730FAA0460027A146142106A8FFF783
:1060300029FA0026A2464FF4A0414FF00060FFF776
:1060400003FCFFF791FFFFF7ACFB4FF4E13000F0EA
:1060500079F961A0FFF7E6F8634800681390634898
:10606000D0F8EC07149062480068159013A916A8A0
:10607000FFF7A2FE4FF001095E4C00250AE016A8CA
:1060800050F8250054F82510884201D04FF001083F
:10609000681CC5B2082DF2DB5649E43156A0FFF763
:1060A000C1F806A8FFF7C3FE4FF0000A00251AE06A
:1060B000554800EB051606993068401C814210D106
:1060C00007997068401C81420BD10899B068401C48
:1060D000814206D10999F068401C814201D14FF0FC
:1060E000010A681CC5B2042DE2D3B8F1000F03D039
:1060F00046A0FFF797F82AE048A0FFF793F8BAF117
:10610000010F03D048A0FFF78DF820E0DDE9092357
:10611000CDE900234AA006A90EC9FFF783F843A0E2
:10612000FFF780F8B9F1000F03D150A0FFF77AF81C
:106130000DE000BF0AE0781C87B2322F03DD4FA0CC
:10614000FFF770F800270A20FFF72AFFF3E750A0B7
:10615000FFF768F854A0FFF765F800230093019358
:1061600054A013A90EC9FFF75DF800230093019313
:10617000A068C31E6068821E2068411E4DA0FFF704
:1061800051F81AA80FC8CDE90323CDE90101199BE5
:10619000009352A016A90EC9FFF744F804F11000AD
:1061A0000FC8CDE90323CDE90101E36800934BA0BB
:1061B0000ECCFFF737F80A9B5B1E099A521ECDE9F9
:1061C00000230898431E0798421E0698411E52A0BD
:1061D000FFF728F8AEE700000D0A417070207374D5
:1061E000617274210D0A0000E8F7FF1F00F0FF1F25
:1061F000F0F7FF1F0C000008626F6F746C6F616432
:1062000065723A2573000000FC6700086D617463D5
:1062100068206572726F72210D0A00006D617463EF
:1062200068204F4B210D0A006E6F742073757070DB
:106230006F727420626F617264210D0A00000000A9
:1062400043524333323A5B25303858207C20253086
:106250003858207C2025303858207C20253038586C
:10626000207C20253038585D0D0A00006D61746374
:106270006832206572726F72210D0A000D0A205576
:106280005342532054657374204170700D0A00000E
:10629000596F7520646576696365206E6F7420722E
:1062A000756E210D0A0000004552524F523A0D0AF8
:1062B00000000000095B25303858207C202530384C
:1062C00058207C2025303858207C20253038582014
:1062D0007C20253038585D0D0A000000095B253010
:1062E0003858207C2025303858207C2025303858DC
:1062F000207C2025303858207C2025303858207CC0
:106300002025303858207C2025303858207C202506
:106310003038585D0D0A0000095B30782530385858
:10632000202C307825303858202C307825303858BB
:10633000202C307825303858202C307825303858AB
:106340005D0D0A0010B586B00446012144F2040038
:10635000FFF796FA2348FFF71DFC4FF40070ADF8E5
:10636000140003208DF8160018208DF8170005A9D9
:106370001D48FFF788F94FF48060ADF81400042041
:106380008DF8170005A91848FFF77DF925208DF82D
:10639000000003208DF801008DF8020001208DF827
:1063A00003006846FFF704FA01940020ADF80800E6
:1063B000ADF80A00ADF80C00ADF810000C20ADF8F7
:1063C0000E0001A90748FFF783FC012240F2255186
:1063D0000448FFF757FC01210248FFF7CFFB06B046
:1063E00010BD0000003801400008014010B5FFF763
:1063F00043F94FF00001016010BD000000000000F3
:10640000963007772C610EEEBA51099919C46D07C1
:106410008FF46A7035A563E9A395649E3288DB0E1C
:10642000A4B8DC791EE9D5E088D9D2972B4CB609FF
:10643000BD7CB17E072DB8E7911DBF906410B71DDC
:10644000F220B06A4871B9F3DE41BE847DD4DA1A15
:10645000EBE4DD6D51B5D4F4C785D38356986C1346
:10646000C0A86B647AF962FDECC9658A4F5C0114BF
:10647000D96C0663633D0FFAF50D088DC8206E3B9D
:106480005E10694CE44160D5727167A2D1E4033CAF
:1064900047D4044BFD850DD26BB50AA5FAA8B535D6
:1064A0006C98B242D6C9BBDB40F9BCACE36CD832C5
:1064B000755CDF45CF0DD6DC593DD1ABAC30D9266C
:1064C0003A00DE518051D7C81661D0BFB5F4B4216F
:1064D00023C4B3569995BACF0FA5BDB89EB802286C
:1064E0000888055FB2D90CC624E90BB1877C6F2FF1
:1064F000114C6858AB1D61C13D2D66B69041DC76EC
:106500000671DB01BC20D2982A10D5EF8985B171C4
:106510001FB5B606A5E4BF9F33D4B8E8A2C9077873
:1065200034F9000F8EA8099618980EE1BB0D6A7F0A
:106530002D3D6D08976C6491015C63E6F4516B6BC3
:1065400062616C1CD83065854E0062F2ED95066C78
:106550007BA5011BC1F4088257C40FF5C6D9B065ED
:1065600050E9B712EAB8BE8B7C88B9FCDF1DDD624A
:10657000492DDA15F37CD38C654CD4FB5861B24DB0
:10658000CE51B53A7400BCA3E230BBD441A5DF4A7A
:10659000D795D83D6DC4D1A4FBF4D6D36AE969433D
:1065A000FCD96E34468867ADD0B860DA732D0444E8
:1065B000E51D03335F4C0AAAC97C0DDD3C71055013
:1065C000AA41022710100BBE86200CC925B56857BA
:1065D000B3856F2009D466B99FE461CE0EF9DE5E03
:1065E00098C9D9292298D0B0B4A8D7C7173DB359B4
:1065F000810DB42E3B5CBDB7AD6CBAC02083B8ED45
:10660000B6B3BF9A0CE2B6039AD2B1743947D5EA51
:10661000AF77D29D1526DB048316DC73120B63E380
:10662000843B64943E6A6D0DA85A6A7A0BCF0EE4DF
:106630009DFF099327AE000AB19E077D44930FF09A
:10664000D2A3088768F2011EFEC206695D5762F791
:10665000CB67658071366C19E7066B6E761BD4FECE
:10666000E02BD3895A7ADA10CC4ADD676FDFB9F9AB
:10667000F9EFBE8E43BEB717D58EB060E8A3D6D66D
:106680007E93D1A1C4C2D83852F2DF4FF167BBD19B
:106690006757BCA6DD06B53F4B36B248DA2B0DD89E
:1066A0004C1B0AAFF64A0336607A0441C3EF60DF41
:1066B00055DF67A8EF8E6E3179BE69468CB361CB2A
:1066C0001A8366BCA0D26F2536E2685295770CCC4F
:1066D00003470BBBB91602222F260555BE3BBAC590
:1066E000280BBDB2925AB42B046AB35CA7FFD7C281
:1066F00031CFD0B58B9ED92C1DAEDE5BB0C2649B72
:1067000026F263EC9CA36A750A936D02A906099CA4
:106710003F360EEB8567077213570005824ABF9517
:10672000147AB8E2AE2BB17B381BB60C9B8ED2929A
:106730000DBED5E5B7EFDC7C21DFDB0BD4D2D386F1
:1067400042E2D4F1F8B3DD686E83DA1FCD16BE8164
:106750005B26B9F6E177B06F7747B718E65A088835
:10676000706A0FFFCA3B06665C0B0111FF9E658FC6
:1067700069AE62F8D3FF6B6145CF6C1678E20AA070
:10678000EED20DD75483044EC2B30339612667A7F6
:10679000F71660D04D476949DB776E3E4A6AD1AE45
:1067A000DC5AD6D9660BDF40F03BD83753AEBCA9D4
:1067B000C59EBBDE7FCFB247E9FFB5301CF2BDBD41
:1067C0008AC2BACA3093B353A6A3B4240536D0BA4A
:1067D0009306D7CD2957DE54BF67D9232E7A66B3E7
:1067E000B84A61C4021B685D942B6F2A37BE0BB494
:1067F000A18E0CC31BDF055A8DEF022D9CBC1675B4
:106800000D39786F95C66B11DA3F07121C6837D7C0
:10681000C56AC3D2CF25B0215A6D32D1C9D70B8DED
:10682000B5350B73A9B7ED0E57DF1952C1F9DE7BF1
:10683000A5C5727CD0AD9B768B1E1AE43031323305
:1068400034353637383941424344454640305800A4
:1068500030313233343536373839616263646566D6
:106860004030780004000008000000000000000232
:1068700000010000100000009868000800000020DF
:10688000340000006C510008CC680008340000207F
:106890002C0700008851000800A24A0400000000F4
:1068A00000000000010203040607080900000000C0
:1068B00000000000000000000000000001020304CE
:0C68C00001020304060708090204060890
:04000005080051316D
:00000001FF
