:020000040000FA
:10000000B80A00107D01000081010000830100009A
:100010008501000087010000890100000000000048
:100020000000000000000000000000008B01000044
:100030008D010000000000008F0100009101000010
:100040009301000093010000930100009301000060
:100050009301000093010000930100009301000050
:100060009301000093010000930100009301000040
:100070009301000093010000930100009301000030
:100080009301000093010000930100009301000020
:100090009301000093010000930100009301000010
:1000A000F50F000093010000930100009301000090
:1000B00093010000930100009301000093010000F0
:1000C00093010000930100009301000000F002F88A
:1000D00000F03CF80AA090E8000C82448344AAF1A6
:1000E0000107DA4501D100F031F8AFF2090EBAE8A4
:1000F0000F0013F0010F18BFFB1A43F0010318475C
:100100009C180000BC180000103A24BF78C878C1C1
:10011000FAD8520724BF30C830C144BF04680C600D
:10012000704700000023002400250026103A28BF55
:1001300078C1FBD8520728BF30C148BF0B60704759
:100140001FB500F0CDF81FBD10B510BD00F058F878
:100150001146FFF7F5FF01F036F900F048F803B457
:10016000FFF7F2FF03BC00F079F8000040BA7047D7
:10017000C0BA7047D0F800D0D0F804F00848004763
:10018000FEE7FEE7FEE7FEE7FEE7FEE7FEE7FEE747
:10019000FEE7FEE703480449024A044B70470000AB
:1001A000CD000000B8080010B80A0010B808001010
:1001B00000F0DEBC7047704770477047022803D0DC
:1001C000032803D100F087BC00F0A2BC7047704741
:1001D0007047704770477047704770477047704767
:1001E00070477047704770477047704770470446C4
:1001F000AFF300802046FFF7B2FF7047443322116F
:10020000754600F023F8AE4605006946534620F0D7
:100210000700854618B020B5FFF7BCFFBDE82040B9
:100220004FF000064FF000074FF000084FF0000BB2
:1002300021F00701AC46ACE8C009ACE8C009ACE865
:10024000C009ACE8C0098D467047000000487047FF
:1002500058080010004870475C0800100149182039
:10026000ABBEFEE726000200194810B50178C07841
:10027000C1F3040149BB16490839012806D0144AC4
:100280000228937806D003281FD112E01148086095
:10029000122012E01048002204E004780CB14488D7
:1002A0002044521C9342F8D1027872B10860408811
:1002B00003E00A481844086000788A88824200D91E
:1002C000888000F064FC012010BD002010BD0000FB
:1002D00034000010C6170000D8170000F9170000FE
:1002E00010B5FFF7B7FF4FF00001016010BD2045CA
:1002F0004E41424C4500000000000000FFFFFFFFA0
:1003000070B553482021C0F8A01100BFD0F8A0114B
:100310004906FBD500F180000325C0F884504FF05A
:100320000003C0F82831C0F82C314FF00104C0F8A8
:100330008C404FF00B01416004604FF0AA01C16096
:100340004FF05502C260A0F1800000BFD0F8886075
:100350007601FBD540F8805FC160C260232646620B
:100360000462C162C262A0F1800000BFD0F8A84060
:100370006405FBD500F18800856141624262354920
:10038000C163C0F8403150F8882933496FEA1262DE
:100390009207D0F80C2102F0030207D092B3012A91
:1003A00044D0022A46D0032A4DD13BE02AB1012A8B
:1003B00011D0022A27D0032A45D150F8882FC2F342
:1003C0000E02521C53000268C2F30742521CB3FBD8
:1003D000F2F2224B0CE050F8882FC2F30E02521CAE
:1003E00053000268C2F30742521CB3FBF2F21C4BEB
:1003F0005A43C36FA0F18800DBB203F10103B2FBE3
:10040000F3F21FE00EE050F8882FC2F30E02521CE8
:1004100053000268C2F30742521CB3FBF2F24FF4DE
:10042000FA43E5E7D0F804210C4B07E0D0F80421AB
:100430000B4B03E0D0F804214FF4FA43D2B2521C24
:10044000B3FBF2F20A6043F23A01016070BD0000B2
:1004500000C00F40DE8728840000001000093D0026
:10046000001BB700FF490020087001207047FE49BB
:10047000002008700120704770B5FC4AFB4C002337
:100480009568FB4AA468526F141B04F6010436E019
:10049000B0F5007F19D213280DD014280ED0B0F576
:1004A000FF7F0ED0A0F58072FF3A0CD01D2821D816
:1004B000F04A125C1FE0C4F347221CE0C4F3474239
:1004C00019E0552217E0AA2215E0B0F5006F06D218
:1004D000E94A0244A2F5805292F8002E0BE0E74A66
:1004E000E74E1268B24205D12A18A2F5805292F85E
:1004F000002800E00022E34E401CF2545B1C8B42BB
:10050000C6D370BD70B5D74DEC68402C00D94024DF
:10051000D748416FD5488068091AA86801F60102DA
:1005200003199A4204D20C1A042104F6010429701A
:100530002146FFF7A1FF2246D249822000F021FD8B
:10054000A8682044A860E868011BCE48E96000F173
:100550009F008268A2EB0402826005D029780229FC
:1005600001D00021017370BD03212970F9E7C5494D
:1005700010B59F31C44808600D22822000F001FDB3
:10058000B8490520087010BD2DE9F05F0546B74851
:100590000E46B5F5007F80682CD3B5F5006F2BD2E1
:1005A000B84FDFF8E8A20024DFF8D0924037DFF838
:1005B000C8824FEA3A4B1BE0291901EB0802385D6B
:1005C000A2F58052E52882F8000E10D1D9F800304B
:1005D000534501D05B450AD1B1F5C46F07D1A1489D
:1005E000006920B900F037FE9E4901200861641CB3
:1005F000B442E1D3BDE8F09F2844BDE8F05F0A466D
:10060000A049A0F50060403100F0D6BD984810B573
:10061000416F9648934C80686378081AA16800F689
:1006200001020B449A4207D2401A401C6070052018
:100630002070022000F05EFC6178A068FFF7A4FF44
:100640006178A0680844A060E068421A8D48E260C2
:1006500000F19F008368A3EB0101816002D0217843
:10066000052904D100210173BDE810407FE710BDCA
:100670002DE9F0417E487B4C416F7C48637880686F
:10068000081AA16800F601020B449A4207D2401AE8
:10069000401C607005202070022000F02BFC794F78
:1006A0000020617807F14003A26808E015181E5C7D
:1006B0007D5DB54202D00020606002E0401C8842AF
:1006C000F4D35018A060E068421A6E48E26000F16E
:1006D0009F008368A3EB0101816002D02178052986
:1006E00007D16268012102B100210173BDE8F04128
:1006F0003DE7BDE8F081634810B58030D0F81110B7
:10070000027D09BA21F0FF011143564A4902916066
:10071000C18A49BA4902D160806888420DD08220DE
:1007200000F0E8FB022000F0E5FB564902209F3173
:100730000873FFF71CFF002010BD012010BD70B52D
:10074000504880300224816800F11F0529B1007BE8
:10075000000607D4022000F0CDFB2C73FFF707FF43
:10076000002070BD012070BD10B546483D4C803062
:1007700080686178884200D2607042496278403176
:10078000822000F0FEFB032020703E4862789F30FC
:100790008168891A81600021017310BD394810B544
:1007A0008030816839B1007B000601D5822000E0ED
:1007B000022000F09FFB334900209F310873BDE801
:1007C0001040D4E610B5FFF7BAFF00281FD02D481F
:1007D0007021403002220170002141708270C1708E
:1007E0000171417181710A22C2710172417281727B
:1007F000C17230220273012242738173C17301748A
:100800004174184912204870BDE81040ACE710BD93
:1008100070B5FFF794FF002858D01A4800224030E6
:1008200080230270437082700121C1702021017108
:1008300043718271C2714B22027265224272692336
:1008400083726C22C272017341738173C1734C2233
:10085000027450224274432282743124C4743722B9
:10086000027515E004000010F0060010AC1800003E
:10087000241900006817000044000010FC0100006B
:1008800044332211440600105553425321436587D7
:10089000302242758275C1754425057643767323EF
:1008A00083766B23C376017741778177C17780F8B0
:1008B00020402E2380F8213080F8222080F8231059
:1008C000A64924204870BDE870404DE770BD10B5C2
:1008D000FFF735FF00280CD0A1480321017000214B
:1008E00041708170C1709D4904204870BDE810407E
:1008F0003AE710BD10B5FFF722FF002810D0984846
:1009000000210622017042708170C1700171417135
:100910008171C171914908204870BDE8104023E7FA
:1009200010BD10B5FFF70BFF00281ED08D48416F9A
:100930008D488068081A00F601004FF0FF3101EB86
:10094000502187480A0E02700A0C42700A0A82700F
:10095000C17000210171417102228271C1717F4910
:1009600008204870BDE81040FEE610BD10B5FFF746
:10097000E6FE002821D07A4800210822017041704B
:100980008170C270774A0171536F774A92689A1AE0
:1009900002F60102530E4371C2F347438371C2F35F
:1009A0004722C2710222027241728272C1726B4985
:1009B0000C204870BDE81040D6E610BD2DE9F0418E
:1009C000664D674C002069784034654A02E0135C4C
:1009D0002354401C0B468842F9D31F2B72D1206848
:1009E000624988426ED15E4E60685F364FF0010802
:1009F0007060A068B060607B18B9A07B08B1102857
:100A000002D986F80C8059E0E07B1E28F9D00FDC73
:100A100012282ED005DC48B30328F2D1BDE8F041FE
:100A2000D0E61528EDD01A28EBD1BDE8F0414EE70D
:100A300002272A2828D010DC23281DD025281ED0E4
:100A40002828DED1FFF757FE002826D0207B00069D
:100A500018D52F70BDE8F04154E52F281ED0552839
:100A6000CFD05A28CDD1BDE8F04143E7BDE8F041F1
:100A700094E6BDE8F041CBE6BDE8F04176E7BDE89D
:100A8000F0414EE7022016E0FFF735FE002804D0C3
:100A9000207B00060ED485F800802AE6FFF72BFEA7
:100AA0000028FAD0207B000604D485F80080C5F821
:100AB00004801EE6822000F01DFA3773BDE8F04185
:100AC00055E5FFE7822000F015FA022000F012FA47
:100AD000062028700DE6214810B50178022908D0BB
:100AE00003290ED004290FD0052901D1002101705E
:100AF00010BD1B484030C07B2828F9D1BDE810400C
:100B000000E5BDE8104032E5822000F0F3F9F8E797
:100B100010B51349022000F001FA10494870087816
:100B200058B101280CD0022000F0E4F90C49022051
:100B30005F310873BDE8104019E5BDE810403DE79E
:100B400007484030C07B2A2804D02F2805D1BDE8B3
:100B500010408DE5BDE8104058E510BD04000010C0
:100B60008406001024190000AC18000055534243BD
:100B7000664800214FF00112818001704170C0E988
:100B80000221704761491C31002000F0C7B910B53F
:100B90005E4C1434A288402A00D94022802021686B
:100BA00000F0EFF9216801442160A188081AA080B3
:100BB00010BD10B5554C00201434216800F0AEF97A
:100BC000216801442160A188081AA08010BD00227C
:100BD0001146802000F0D5B94D49002000F09EB9A3
:100BE0002DE9F041494C00271C34484D2178A4F1EF
:100BF0000806082863D2DFE800F0620464726262CB
:100C00008381FFF7BFFF2078C00900F054F9E08826
:100C1000B0802078C0F34111F1BB61780C294AD231
:100C2000DFE801F00609490B49101A1D1F25314262
:100C300000F0F4FB4DE0002000E0012000F02EFC6D
:100C400050B306E0C0F3040030BBA07840F0800051
:100C50002870BDE8F041BAE7FFF706FB39E0002055
:100C60002AE0C0F30400B8B92848401C1AE0C0F3D9
:100C7000040088B900F05AFC70B1FFF7A8FFBDE886
:100C8000F041FFF799BAC0F30400012813D1687846
:100C900010B12079A97800E00DE088420BD21B4901
:100CA0001031084430601CE0C0F30400012802D178
:100CB00000F0E2FCC4E7802000F01CF9B780BDE83A
:100CC000F081080608D4B0880028F8D0FFF771FF3B
:100CD000B0880028EFD0F2E7BDE8F0417CE70806D5
:100CE00002D5BDE8F04152E728780106E7D500F0CB
:100CF0007F002870BDE8F04100F043B8802000E09C
:100D00000020BDE8F04100F0FFB80000180000101E
:100D1000F006001001464FEA00704FEAD060090665
:100D200000D5401C7047E2491022C1F80822C1F8E2
:100D3000100200BFD1F80002C006FBD57047DC4AA4
:100D40001023C2F80832C2F8100200BFD2F8000225
:100D5000C006FBD5C2F80832C2F81012D2F8000261
:100D6000C006FBD57047D2493022C1F80822C1F82D
:100D7000100200BFD1F800028006FBD5D1F81402A2
:100D8000704730B5CB49CC4D41EA00442146284656
:100D9000FFF7D5FF21462846BDE83040CFE7C748DA
:100DA0000021016040214160012202604160A0F504
:100DB000127000BFD0F80012C905FBD500F5017014
:100DC0004FF0FF314163016341604FF00C0101605E
:100DD0007047B74900B51A20C1F8F40FD1F8F82FC1
:100DE00030EA0202FAD1B648016921F440210161DA
:100DF000016941F480210161C16821F04051C16065
:100E0000C16841F00051C160416821F070514160FA
:100E1000416841F0A0514160AA484FF080710160E3
:100E2000FFF7BDFF00205DF804EBAAE700B1012049
:100E30004FF4807141EA0041A34880E77047704752
:100E4000A2480088800702D5A1499F4877E77047EC
:100E5000704710B500B101204FF4807444EA00419E
:100E60009C48FFF76CFF92480321C0F8441200BF72
:100E7000D0F80012C905FBD5C0F8084210BD10B566
:100E800002468078FFF746FF8C49091F0B68012452
:100E900004FA00F423430B60486090888860A1F551
:100EA000117100BFD1F80002C005FBD54FF480706E
:100EB000C1F8080210BD704700B5FFF72BFF864947
:100EC0005DF804EB41EA0040891338E700B5FFF70D
:100ED00021FF81495DF804EB41EA00407F492EE79C
:100EE00000B5FFF717FF7C495DF804EB41EA0040CD
:100EF000891324E700B5FFF70DFF77495DF804EB90
:100F000041EA004072491AE700B5FFF703FF724952
:100F10005DF804EB41EA0040891310E7F0B505469F
:100F200000F00F00012202EB8000614AC2F82802A3
:100F3000D2F820020305FBD5C0F309030020DC1C16
:100F400006E000BFD2F818620F46091D401C3E6043
:100F5000B0EB940FF6D30020C2F8280241F24820EB
:100F6000E840C0070BD12846FFF7D4FE4FF4A0613C
:100F700041EA0040FFF7D7FE5948FFF7D4FE184674
:100F8000F0BD70B50546134600F00F00022202EBDB
:100F900080024748C0F82822C0F824320022DC1C16
:100FA00005E000BF51F8046BC0F81C62521CB2EBA4
:100FB000940FF7D30021C0F828122846FFF7AAFEA5
:100FC0004FF4A06141EA0040FFF7ADFE4548FFF74E
:100FD000AAFE184670BD10B54348FFF7A4FE434C67
:100FE0002046FFF7C0FE03462046FFF7BCFE43EA5B
:100FF000002010BD2DE9F0412D4DD5F80032C5F887
:10100000083218071BD53048FFF78DFE3848FFF728
:10101000AAFEC10605D5FFF7C2FEBDE8F041FFF705
:10102000C7B8810710D4010709D5400703D5BDE82B
:10103000F041FFF7BFB8BDE8F041FFF7BCB82D4E57
:1010400058074FF001071DD4BDE8F0815FF00004A0
:10105000D5F8301207FA04F0014210D04FEA5401DB
:10106000C5F83802D5F800028006FBD5D5F8140281
:10107000E2070CD056F8211009B103208847641C00
:10108000202CE5D3D5F830020028DFD1DCE744B9C5
:10109000400706D5306820B1014601208847012469
:1010A000D6E756F821100029E9D00220E6E7000033
:1010B00000C00050000180000005D00048C2005070
:1010C00000C0024000E100E00005FE001C0000102E
:1010D000000101000005D8000005400000012000CB
:1010E0000005F2000005FA000005F5000002F50019
:1010F0000002FE006C18000062B670475E4A10479E
:1011000072B6704710B572B633245C4B03F1040C11
:101110001C60ACE807005A484FF47A71564A0068E0
:10112000B0FBF1F0186103F114011846904762B664
:1011300010BD524A32231360C2E9010150484FF4F6
:101140007A710068B0FBF1F0D0604C494A4A143122
:101150004A481047494A34231360C2E9010148480C
:101160004FF47A710068B0FBF1F0D0604349424A15
:1011700014314248104710B572B60224414900BFED
:1011800051F82420824212D93E49783951F824106E
:10119000814207D121462046FFF7CBFF214620465A
:1011A000FFF7D8FF21462046FFF7C3FF02E0641C8B
:1011B0001D2CE5D962B610BD2DE9F041324C2368F3
:1011C00003B9206063682D4E00201D46283605E0D7
:1011D0000F5C05EB000C401C06F80C709042F7D336
:1011E00098184FF480766060B04213D12068FFF702
:1011F000C2FF224D1435286800B1FEE71F49324670
:1012000028312068FFF77EFF286800B1FEE7002044
:10121000606020600020BDE8F0811C494FF4005060
:101220000860FEF7A7BF154810B5352101600221FF
:101230004160114A816000F1140190470F48143059
:101240000068002800D0012010BD1148406BC0028A
:1012500000D5E2E7704710B51D210220FFF769FFB6
:101260001D210220FFF776FF044814300068002893
:1012700000D0FEE710BD0000F11FFF1F3007001077
:1012800000000010241900003C00001008ED00E0F0
:1012900000C00920002201E004C0091F0029FBD181
:1012A000704710B5814205D110BD08C80C1D0B60F8
:1012B0002146121F002AF8D110BDFFF721F84A4934
:1012C00008684FF6FF0200EA0200484A40F48070C6
:1012D00040EA0200086046494FF00000464A0860B4
:1012E00044494FF0F800454B08704FF0FF0048703C
:1012F00088709B68526F4FF00304A2EB030202F662
:1013000001054FF00203204603EB952619E000BFCC
:101310004FF0FF3303EB9523834202D140F6FF7376
:1013200000E0431C070AC7F30307085547EA031701
:1013300001EB040C1B098CF80170E41C8CF80230E2
:10134000801C8642E4D82E4B00200D181C5C401CEB
:1013500085F800444028F8D32A482B4C0368A34260
:101360001ED02A4CA34202D1312481F80344284CD8
:101370000368A34202D1322481F803440068254B5C
:10138000984202D1332381F80334234B04201C18E4
:101390000D1814F8044C401C85F800440B28F6D3B3
:1013A000521C01F23C414FEA12200A7048704FEA89
:1013B000124088704FEA1260C870FFF70AFD0120E2
:1013C000FFF734FDFEE70F4812490068884204D158
:1013D000FFF729FF08B1FFF720FFFFF724FF08B14F
:1013E000FFF733FFFFF769FF0CED00E00000FA059F
:1013F000140000104400001024190000AC18000074
:1014000086170000FC010000443322117856341284
:101410002143658765872143EE02000070B51D48B2
:101420001C4C0078083CC0F3040252B11948A4F1E6
:10143000140319495D780079012A06D0022A26D1C1
:1014400009E01448183820601DE005B39A789042EE
:101450001DD2002015E000F08F02012000FA02F0FA
:10146000160604D502F00F064FF48030B0400DB9D7
:1014700012070CD19A68024209D0DA680242E8D019
:10148000012008802160FFF782FB012070BD002051
:1014900070BD000034000010F006001070B5024668
:1014A0002148014603784988C3F30403A0F11C04D2
:1014B00023B1012B29D0022B27D111E0012924D1FE
:1014C00032B10120FFF7C4FCA08840F0020005E023
:1014D0000020FFF7BDFCA08820F00200A08021E0E2
:1014E0000079012500F08F0005FA00F5030604D508
:1014F00000F00F034FF480359D4063782BB1030754
:1015000003D0A3682B4200D009B1002070BD22B1E6
:10151000FFF7F0FCE068284303E0FFF7F5FCE06824
:10152000A843E060012070BD340000102DE9F84FA1
:101530004F4F4FF000094FF0010BB8784FF4803A4D
:10154000A7F11C06002869D04A4C63E060780228A5
:1015500004D0042840D005285AD140E06179B878F9
:10156000814237D170702179B170414900200C3926
:1015700001F80090401C0428FAD301254FEA060820
:101580000BFA05F0D8F80810084202D02846FFF7F9
:101590009DFCD8F808100AFA05F0084203D045F07F
:1015A0008000FFF793FC6D1C102DE9D34FF0011064
:1015B000C8E902090120FFF74CFCE0794006B8F8C1
:1015C000040002D540F0010001E020F00100A8F87D
:1015D00004001DE060881CE0E078009018E00098AE
:1015E000B0B9A07800F08F050BFA05F1280603D5F5
:1015F00005F00F000AFA00F1B0680843B060204619
:10160000FFF73DFC2846FFF757FC2846FFF768FC2C
:10161000207804442078002898D120E086F80190B2
:1016200001245D464FEA0A08B16805FA04F0084251
:1016300002D02046FFF74AFCB16808FA04F00842DD
:1016400003D044F08000FFF741FC641C102CEBD366
:101650004FF00110C6E902090020FFF7FAFBB87845
:101660007178884202D10120BDE8F88F0020FBE7A5
:1016700034000010D81700002DE9FC5F384D687861
:1016800000286AD00027374C05F11C0661E060781D
:10169000022804D0042808D0052858D11AE060791F
:1016A0006978884253D0608852E094F8028094F8B8
:1016B0000390002200923179414548D1B1784945E3
:1016C00045D127490127103111F80800019001F890
:1016D00008903CE03179414539D1A178012001F0F1
:1016E0008F0A00FA0AF05FEA0A6104D50AF00F01D6
:1016F0004FF480308840B1788346494515D1A868B9
:1017000040EA0B00A860E968204621EA0B01E96085
:10171000FFF7B5FB5046FFF7CFFB5046FFF7E0FB66
:10172000009840EA0B00009011E0019989450ED124
:10173000009810EA0B0F0AD1A86820EA0B00A860F5
:10174000E86820EA0B00E8605046FFF7BFFB20780E
:101750000444207800289AD13846BDE8FC9F000058
:1017600018000010D8170000EB3C904D53444F5325
:10177000352E300002020100011000EC03F80200D7
:101780000100010000004352502044495341424CA3
:1017900045280000000000000000000000000000DC
:1017A0000000000000004649524D57415245424951
:1017B0004E2018BC41973738373800003D6E2B3823
:1017C000020000D00700120110010000004051C2C9
:1017D00003130001042048010902200001010080D8
:1017E0003209040000020806506207058202400028
:1017F000000705020240000000040309041C034E18
:1018000000580050002000530065006D006900631F
:10181000006F006E006400200028034E0058005046
:101820000020004C00500043003100370078007861
:101830000020004D0065006D006F007200790020EF
:10184000001A03440045004D004F003000300030C6
:1018500000300030003000300030000E034D0065D5
:10186000006D006F0072007900000000E10B0000C5
:1018700000000000BD0100000000000000000000AA
:101880000000000000000000000000000000000058
:101890000000000000000000000000000000000048
:1018A0000000000000000000000000000000000038
:1018B0000010000000200000003000000040000088
:1018C0000050000000600000007000000080000078
:1018D0000090000000A0000000B0000000C0000068
:1018E00000D0000000E0000000F000000000010057
:1018F00000800100000002000080020000000300E0
:1019000000800300000004000080040000000500C7
:1019100000800500000006000080060000000700AF
:1019200000800700FF0F0000FF1F0000FF2F0000D6
:10193000FF3F0000FF4F0000FF5F0000FF6F00004F
:10194000FF7F0000FF8F0000FF9F0000FFAF00003F
:10195000FFBF0000FFCF0000FFDF0000FFEF00002F
:10196000FFFF0000FF7F0100FFFF0100FF7F02007B
:10197000FFFF0200FF7F0300FFFF0300FF7F040063
:10198000FFFF0400FF7F0500FFFF0500FF7F06004B
:10199000FFFF0600FF7F0700FFFF0700BC190000E4
:1019A000000000104400000008010000001A0000C0
:1019B00044000010740A00002401000000093D00EA
:1019C0000000000000000000000000000000000017
:1019D0000000000000000000000000000000000007
:1019E00000000000000000000000000000000000F7
:1019F00000000000000000000000000000000000E7
:04000005000000CD2A
:00000001FF
