:020000040800F2
:20000000F01401203D05000800000001050A9D157F0FCC443A115F2701000042400830384D
:2000200073A7E63DCD0028FA94AB0A81CE08383C4500000004000000460000000900FFFFEA
:20004000460000000A00FFFF516946726565005F2330215C73090B06323031352E30362ED0
:2000600031392030303A3337002D0209F569DA399E3DEB346A70291EE566B77E6369673A41
:2000800000000000000000000000000000000000000000000000000000000000540D2B19BB
:2000A000000000007314811304066239C530993FD477EA1586488D2697150A2D2B79CD5C38
:2000C0008A1B5D1DF52C65111673F106C72E83224A05F1633530335B89118154DD756E3E4D
:2000E000805CEA61FA1D53035B4BF77C3635B4265620312E32342E380D0A00000000000056
:20010000F01401203D05000800000000000000000000000000000000000000000000000070
:200120000000000000000000000000000000000000000000000000000000000000000000BF
:2001400000000000000000000000000000000000000000000000000000000000000000009F
:2001600000000000000000000000000000000000000000000000000000000000000000007F
:2001800000000000000000000000000000000000000000000000000000000000000000005F
:2001A00000000000000000000000000000000000000000000000000000000000000000003F
:2001C00000000000000000000000000000000000000000000000000000000000000000001F
:2001E0000000000000000000000000000000000000000000000000000000000000000000FF
:20020000F01401209D0300208B0F0020350D0020890F00203B050020BB32002000000000B8
:20022000000000000000000000000000911C0020490A00200000000045100020411D00208B
:20024000B7030020B7030020B7030020B7030020B7030020B7030020B7030020B7030020CE
:20026000B7030020B7030020B7030020B7030020B7030020B7030020B7030020B7030020AE
:20028000B7030020B7030020B7030020B7030020B7030020B7030020B7030020B70300208E
:2002A000B7030020B7030020B7030020B7030020B7030020B7030020B7030020B70300206E
:2002C000B7030020B7030020B7030020B7030020B7030020B7030020B7030020B70300204E
:2002E000B7030020B7030020B7030020B7030020B7030020B7030020B7030020B70300202E
:20030000B70300201D1B0020B7030020B7030020B7030020B7030020B7030020B70300208F
:20032000B7030020B7030020B7030020B7030020B7030020B7030020B7030020B7030020ED
:20034000B7030020B7030020B703002039100020B7030020B7030020B7030020B70300203E
:20036000B7030020B7030020B7030020B7030020B7030020B7030020B7030020B7030020AD
:20038000B7030020B7030020DFF80CD000F076F80048004775380020F01401200648804702
:2003A00006480047FEE7FEE7FEE7FEE7FEE7FEE7FEE7FEE7FEE7FEE7451D00208903002088
:2003C000D2B201E000F8012B491EFBD270470022F6E710B504460846114602462046FFF752
:2003E000EFFF204610BD0146002000E0401C0A5C002AFBD1704730B505460020034600E0AD
:200400005B1C934205D2EC5CC85C201A01D1002CF6D130BD2DE9F05F0546002092469B46D8
:2004200088460646814640241DE0284641464746224600F044F8B0EB0A0052465B4671EB2A
:200440000B0110D310461946224600F029F82D1A67EB01084F4622460120002100F020F896
:2004600017EB00094E41201EA4F10104DDDC484631462A464346BDE8F09F0000064C074D79
:2004800006E0E06840F0010394E8070098471034AC42F6D3FFF77CFFB83C0020D83C0020E4
:2004A000202A04DB203A00FA02F1002070479140C2F1200320FA03F3194390407047202A11
:2004C00004DB203A21FA02F00021704721FA02F3D040C2F12002914008431946704770B5B2
:2004E00001EB020410F8015B15F0070301D110F8013B2A1106D110F8012B03E010F8016BE4
:2005000001F8016B5B1EF9D12B0705D40023521E0FD401F8013BFAE710F8013B02F1020261
:20052000A1EB030303E013F8015B01F8015B521EF9D5A142D6D3002070BDFEE74FF00051FE
:200540008A100020CB13145C0C54401C9842FAD3014840688047FEE70002002010B50A465C
:200560000C0601F07F0303EB830100EBC10102D501F58E7101E001F55D71D2090B704A7056
:2005800002F08EFC002010BD0A4610B5090602F07F0306D503EB830100EBC10101F58E716B
:2005A00005E002EB820100EBC10101F55D7100248C700B70D2094A7002F059FC002010BD11
:2005C00010B50A0604D501F07F0102F07BFD01E002F05AFD002010BD70B50C460E0601F0FF
:2005E0007F0505EB850100EBC10102D501F58E7101E001F55D71E4090D704C708A60CB7098
:2006000000D0CD80022B01D100220A7102F006FC002070BD01F07F0C0CEB8C0100EBC10133
:2006200010B501F55D714B61CA6000238B614B7081F800C0C378012B00D10A611CF0FF0F9B
:2006400003D002F062FC002010BD02F072FBFAE70069002261F30A1201681143016070477A
:200660000A4610B5090602F07F0306D503EB830100EBC10101F58E7105E002EB820100EBB3
:20068000C10101F55D7101248C700B70D2094A7002F023FC002010BD70B511F07F0404EB0D
:2006A000840100EBC10101F58E714FF001054D700C70CA600A614FF00002C1E9053203D00B
:2006C00002F023FC002070BD02F033FBFAE700002DE9F0410746002502F03EFD044655E056
:2006E000E00751D03869EAB20369416BD14007EB820201F00101926943EAC11196680E40DD
:20070000F1071AD00126426B06FA05F18A43426307EB8500806986601F48E9B20068426861
:2007200038469047F878012807D135B997F81101042802D1384602F05FFB300704D507EB99
:200740008500082680698660F00604D507EB8500102680698660700604D507EB85004026A0
:2007600080698660B00704D507EB8500022680698660300608D52946384600F02AF907EBA7
:2007800085018020896988606D1C6408002CA7D10120BDE8F08100003C6000202DE9F04780
:2007A0000746002502F0DEFC0446DFF8989044E0E00740D0E9B28846384602F0D9FC06469D
:2007C000C00725D007EB85000126416D8E60F97801290CD1406D05EB850107EBC10100696B
:2007E000D1F87C23C0F31200101AC1F88C03D9F800004146026838469047F878012807D1D2
:2008000035B997F81101052802D1384602F0F4FAB00704D507EB85000226406D86603007F2
:2008200009D5D9F8000081683846884707EB85010820496D88606D1C6408002CB8D10120CA
:20084000BDE8F0873C60002070B50546C068816921F010018161E868066AC6F3030000EBD3
:20086000800005EBC004C6F3434004F55D74072821D2DFE800F0202004202020150047F66F
:20088000F070064217D0C6F30A1632462846E16802F076FCE0683044E060A069304409E0FB
:2008A000082205F2CC51284602F06AFCA069C6F30A110844A061E868816941F010018161AC
:2008C000012070BD70B50446006900250126416821F0010141602946204602F0F3FB002074
:2008E000FF2106E004EB8002401C93699960526D916062788242F5D821694FF0FF30886134
:200900002846216966F30F0066F31F40C861216945F00B004861216945F00B000861206967
:20092000016821F4FE610160204602F065FAE1684FF480504861034800680169204688476B
:20094000012070BD3C60002070B5044602F02AFC0125002184F8125184F81411084640238E
:200960000EE000BF00EB800204EBC20202F58E7255701070D080D170C2E90231401C5161F1
:2009800062788242EED800200EE000BF00EB800204EBC20202F55D7251701070D080D1706E
:2009A000C2E90231401C516162788242EED8204602F09AF9204602F094F80021204602F09F
:2009C00053FC204602F0CEF82046BDE8704002F053BB2DE9F047074601EB810007EBC00432
:2009E00004F58E740E46D4E90502A168801A814200D20846C01C850807EB860915E0A0EBF4
:200A00000108A068404500D2804608F1030085081FFA88F3F2B23846E16802F03AFCE068B0
:200A20004044E060A0694044A061D9F81800806980B2A84205D9D4E90501814201D2002817
:200A4000DDD10120BDE8F0877047000010B507490120074C48600146A26806489047A26843
:200A6000BDE810400121044810470000C0600020D8100120B4100120C01001200649002826
:200A8000D1F8000C02D040F4806001E020F48060C1F8000C704700000030024030B50546A8
:200AA000002429B1012929D002292AD04FF4407400F082F8082820D1134B186820F44070CC
:200AC0001860186840EA04001860186820F0F8001860186845F0020140EA0100186018689D
:200AE00040F48030186000F067F8196821F002011960196821F0F801196030BD4FF4807415
:200B0000D6E74FF40074D3E7103C02400D490820D1F80C2CD20301D501207047D1F80C2C16
:200B2000D20601D505207047D1F80C2C12F0EF0F01D006207047D1F80C1C8907FAD5072005
:200B400070470000003002400248016841F0004101607047103C024030B504460D4600F02F
:200B60002BF8082813D10A4B186820F440701860186840F400701860186840F00100186068
:200B8000256000F019F8196821F00101196030BD103C02400548D0F8101C002905DA0449B1
:200BA000C0F8041C0349C0F8041C70470030024023016745AB89EFCD00B500BFFFF7A6FF41
:200BC0000128FBD000BD000010B5002305E000BF50F8234041F823405B1C9342F8D300205A
:200BE00010BD00002DE9F0410024054688461646B0F1006F01D3A80703D04FF0FF30BDE8CF
:200C0000F081FFF7C7FF0020FFF738FF17498D4217D2174F13E000BF55F82400401C0DD080
:200C200005EB8400C0F38730402800D94020022137F81000FFF732FF082810D1641CB44225
:200C4000EAD3002409E000BF58F8241005EB8400FFF782FF082802D1641CB442F4D301203B
:200C6000FFF70CFFFFF770FF0020C8E70000FF1F4C610020F0B5002201234FF0030C00BF5C
:200C80000D6803FA02F42540A5422DD1056854000CFA04F7BD4305600D790668A54035432A
:200CA00005600D79012D01D0022D12D18568BD4385604D798668A54035438560456803FAC6
:200CC00002F6B543456045688E799640B6B235434560C56856000CFA06F7BD43C560CD797F
:200CE000C668A5403543C560521C102AC8D3F0BD4B07DB0E9A40C90810B500EB8100016AD2
:200D00000F249C40A1430162016A1143016210BD0246002012690A4200D0012070474183F3
:200D200070470AB1018370474183704700487047B46C0020FEE7000070B504460D480E4D48
:200D4000017B39B9806828B1687818B901212046FFF786FC81212046FFF782FC687802282D
:200D600007D12046BDE870401F23024A0121FFF751BC70BD906600205C6000202DE9F041C7
:200D8000284D044605F1200768687860A868B8600121204601F0B8F9234E1F280AD123497E
:200DA0002868884206D1697B012903D8A87B08B1102807D9687B2022052100F037FE022093
:200DC000707006E0174A20460F3200F0FFFB002804DA2046BDE8F041FFF7AEBF30780228E4
:200DE0001ED001281CD003281AD0708890B1A968814200D2084683B2B8680D4AC01AB86010
:200E000000203873042030702046BDE8F0418121FFF742BC2046BDE8F041002100F096B8D6
:200E2000BDE8F081906600205C600020555342439062002010B5094C6278022A08D0090664
:200E40000BD5012A09D0BDE81040012100F07EB88121FFF705FC0020607010BD5C6000203F
:200E600010B504460C480078022805D0032801D0042810D1002109E0084800F10F02417B77
:200E8000204600F0A3FB002805DA01212046BDE8104000F05BB810BD5C6000209066002018
:200EA00010B504460C48007880B1012813D10B4800F10F02417B204600F088FB00280ADA23
:200EC0002046BDE81040012100F040B82046BDE81040FFF753BF10BD5C600020906600208B
:200EE00001490020087070475C60002010B50D4904460020087048700B4800680168002084
:200F0000884701212046FFF75BFB81212046FFF757FB20461F23BDE81040044A0121FFF7DB
:200F200079BB00005C600020F460002090660020044900221F230A7001224A70024A0121A1
:200F4000FFF768BB5C6000209066002010B504460B480A4A0D23026001730A490020084A05
:200F6000087081212046FFF797FB054A20461F23203ABDE810400121FFF74CBB55534253C7
:200F8000B06600205C600020FEE77047F0B50F22C57803784FF0E0210124EDB1D1F80C5DE0
:200FA000467805F4E065C5F5E065C5F30725C5F10407EA408578BE40154035430B442A0125
:200FC00083F800240078420900F01F00844001EB8200C0F80041F0BD03F01F008440580991
:200FE00001EB8000C0F88041F0BD00000249084302490860704700000000FA050CED00E087
:20100000024A1140014302480160704780FFFF1F08ED00E0BFF34F8F05480168054A01F491
:20102000E06141EA02010160BFF34F8FFEE700000CED00E00400FA05014801F04FB900004D
:20104000C06600207047000010B50446803000F03FF9606BC0F30042E06BC0F30041124853
:2010600002F028FD104904F130000C3900F04CF90D4904F13800243900F046F90A4904F10A
:201080004000183900F040F9074CA4F12400216888472168A4F118008847A4F10C006168C3
:2010A000BDE8104008470000D81001202DE9F0410446406B0025C0F30047E06B35A3C0F3B2
:2010C000004635A235A136A002F0F8F83C493DA002F0F4F83CA23FA141A002F0EFF8444821
:2010E000006881B243A002F0E9F8606B216B82B244A002F0E3F8E06BA16B82B245A002F001
:20110000DDF8606C216C82B246A002F0D7F8314648A002F0D3F839464AA002F0CFF8A06880
:20112000C0F300674B48D0F8220A86B231464AA002F0C4F84C48202E066001D92021016003
:20114000B1B24AA002F0BAF84748001D50F827104AA002F0B3F804F180063068030C82B296
:2011600005F14100C1B248A002F0A8F8361D6D1C072DF2DB04F148014AA002F09FF804F1C8
:2011800058014BA002F09AF8BDE8F0414B494CA002F094B838000000323400003100000024
:2011A000516946726565555342532076657273696F6E2025732E25732E25730D0A00000035
:2011C000593C0020257300004A756E20313920323031350030303A30373A3336000000007F
:2011E000446174653A2025732D2D25730D0A0000E0F7FF1F465F53495A453A253034580D79
:201200000A0000004B4559203A205025635F25640D0A00004C4544313A205025635F25646A
:201220000D0A00004C4544323A205025635F25640D0A00006C65645F6C6F773A25640D0A9F
:20124000000000006B65795F6C6F773A25640D0A000000000070FF1F466C6173683A2530AF
:2012600038580D0A00000000CC61002055736572446174613A25644B420D0A007377643A72
:2012800025730D0A000000004750494F25633A2530345820456E61626C653A253034580D3E
:2012A0000A000000426F6172643A25730D0A0000446174653A25730D0A000000F0000008F4
:2012C000307830383030303046303A25730D0A002DE9F0410B4E05460024A6F11C0700BF57
:2012E00055F82400030C82B205D056F8241057F8240000F081F8641C072CF1DB0020BDE8C3
:20130000F0810000F461002010B500220A604A600A81D0E900244FF0FF30A2F14103412AD4
:2013200004F0FF0C13D3472A11D8BCF1100F0ED2074850F82300086005481C3050F823009C
:2013400048600348383030F81C000881002010BDD86100201CB504464068002812D0012130
:20136000206800F0A1F82089009000208DF8040003208DF8050001208DF8070069466068A9
:20138000FFF778FC1CBD10B5426832B101891046FFF7BEFC00F0010010BD012010BD10B5B7
:2013A00042683AB101891046FFF7B2FCC04300F0010010BD012010BD1CB50446406800287A
:2013C00018D00121206800F06FF82089009001208DF8040000218DF8061003218DF80510C7
:2013E0008DF8070069466068FFF744FC21896068FFF795FC1CBD00002DE9FC418846174664
:201400001D460024012100F04FF8012000218DF804008DF8061003228DF80520134E8DF8D1
:201420000700009125FA04F0C00704D036F81410009808430090641C102CF3DB69464046E2
:20144000FFF718FC5FF0000425FA04F0C00708D027FA04F000F0010236F814104046FFF7A7
:2014600060FC641C102CEFDBBDE8FC81106200204368002B05D001F0010201891846FFF759
:2014800050BC70474368002B06D0C94301F0010201891846FFF745BC704741680289486962
:2014A0005040486170470000054A0029D2F8301801D0014300E08143C2F830187047000040
:2014C00000300240054A0029D2F8341801D0014300E08143C2F83418704700000030024024
:2014E000054A0029D2F8441801D0014300E08143C2F84418704700000030024030B5264902
:20150000D1F80828254B12F00C0204D0244C042A03D0082A03D003601EE004601CE0D1F87E
:201520000428D1F80458C2F38052002A05F03F0202D0B4FBF2F201E0B3FBF2F2D1F8043896
:20154000C3F388135A43D1F80438C3F301435B1C5B00B2FBF3F2026001F608010A68114B0A
:2015600002F0F0024FEA12129C5C026822FA04F242600C6804F4E0544FEA94241C5D22FAEE
:2015800004F48460096801F460414FEA5131595C22FA01F2C26030BD003002400024F40050
:2015A00040787D01AE6000201144074A00B59268914206D92122052100F038FA4FF0FF30C7
:2015C00000BD002000BD0000446000202DE9F04103464F480C460025436113786F1E4D4EB8
:2015E0004D49232B69D00FDC1A2B4FD007DC4B480068BBB1032B26D0122B11D129E01B2BA3
:2016000042D01E2B0CD13FE02A2B68D004DC252B59D0282B04D15CE02F2B66D05A2B40D004
:20162000202266E03E498A681AB1487B2022052106E081682046884790B33A220221204687
:2016400000F0F4F95FE02046BDE8F041114600F0B9B95378DB0703D00720324B30800CE0B9
:20166000C06904EBC40300EB830312791879401D824200D81046308003E0401E80B21A5C16
:201680000A540028F9D115E0358013E00820264A3080401E0004000C135C0B54F9D109E026
:2016A00033E00820214A3080401E0004000C135C0B54F9D12846BDE8F0812046BDE8F0410E
:2016C000114600F047B92046BDE8F041114600F00DB92046BDE8F041114600F0B5B8204624
:2016E000BDE8F041114600F0B7B95178890702D524220521A3E701698AB2C1682046FFF70C
:2017000053FF002801DA3846D5E735800020D2E7446000205E60002090620020F460002084
:2017200090660020C03B0020C73B0020CF3B00202DE9F0411B4E05464FF480643069A0428F
:2017400000D204467068B4FBF0F18BB2F168B1FBF0F215481549006807692846B8470028B9
:2017600008DA11220421284600F060F94FF0FF30BDE8F08123460D4A81217069FEF78CFF39
:20178000F0680B492044F0603069001B30618A68A2EB04028A6002D1064903200870002058
:2017A000E6E7000044600020F460002090620020B06600205C6000202DE9F0411E4D804688
:2017C0004FF4806628693446B04200D204466868B4FBF0F18BB2E968B1FBF0F2174818498B
:2017E000006847694046B847002808DA03220421404600F01BF94FF0FF30BDE8F081E8689A
:2018000010492044E8602869001B28618A68A2EB04028A600AD0B04200D20646B3B2084A7E
:2018200001216869FEF7F6FE0020E6E700216869FFF78CFBF8E7000044600020F460002059
:2018400090620020B06600202DE9F047224F80460C463878B0BB214E4FF0FF39307B0006B8
:201860002CD51F48006881684046884728B13A220221404600F0DAF811E0D4F80200194D95
:2018800000BA20F0FF0160790143E960B4F8070042BA40462A61FFF787FE002802DA48464B
:2018A000BDE8F087022038706968E8684843E860286948432861B168814204D02022707BCC
:2018C0000521D7E7FFE708494FF4806008804046BDE8F047FFF72CBF5C600020906600200D
:2018E000F4600020446000205E60002010B504461448154A0068111D43682046984738B199
:201900003A220221204600F091F84FF0FF3010BD0D4A0E48121F9168491E0B0E03700B0C4D
:2019200043700B0A8370C17051680A0E02710A0C42710A0A8271C171054908200880002057
:2019400010BD0000F460002048600020906200205E6000207CB504460020174D01462954CB
:20196000401C80B20C28FAD314486A4601A9006843682046984738B13A220221204600F00C
:2019800055F84FF0FF307CBD0820E8700198401E010E2971010C6971010AA971E8710220AC
:2019A00028720098010C6972010AA9720449E8720C20088000207CBD90620020F4600020AD
:2019C0005E60002070B50020144A04461454401CC0B21228FAD3702010700C20D07110482A
:2019E00003784578AB420FD00E4D15F8336005EBC30596706E7916732D7955735B1CDAB249
:201A00000270042A00D104700748122202800979122900D80180002070BD00009062002067
:201A200044600020706200205E60002010B50948074C1202437804F8331004EBC3015B1C71
:201A40004A60D9B24170042901D10021417010BD70620020446000202DE9F0472A4F8046C0
:201A60000C46387820B14046BDE8F047FFF7A4BE264E4FF0FF39307B000632D4244D286836
:201A800081684046884720B13A2208E0FFF7CEFF1AE02868C1684046884718B127220221F3
:201AA0004046F3E7D4F802001A4D00BA20F0FF0160790143E960B4F8070042BA40462A61A1
:201AC000FFF772FD002802DA4846BDE8F0876968E8684843E860286948432861B16881427E
:201AE00003D02022707B0521D0E7012139708902884200D201468BB2074A01216869FEF75A
:201B000089FD0020E1E700005C60002090660020F460002044600020906200207047000064
:201B20000020044902464FF424430A54401C9842FBDB7047B46C002070B500234FF42445F1
:201B4000084C0AE001EB030CAC4502D34FF0FF3070BD14F80C60C6545B1C9342F2DB002020
:201B600070BD0000B46C002070B500234FF42445084C0AE001EB030CAC4502D34FF0FF3097
:201B800070BDC65C04F80C605B1C9342F2DB002070BD0000B46C00204FF400701060044879
:201BA000D0F8220A0004C00B08600020704700000070FF1F0020704710B5FFF7B1FF002033
:201BC00010BD0020704700207047000008465102094A10B512688A4204D95A06120CFFF73A
:201BE000ABFF07E0A1EB020C01460448DA016044FEF7EAFF40B210BDD06000200040000873
:201C00002DE9F0475F0289461D465402BEB21648FEF7E9FB82B2DFF85480B2420BD84946A2
:201C20001148FEF7E8FB30B904F5806110A0C8F8001001F043FBD8F800102046A14205D9FA
:201C40000146BAB24846FFF78FFF0AE0FEF7FEFED8F800000D4B201AEA0149461844FEF7B7
:201C6000C1FF40B2BDE8F087D73B0020D060002052414D5F46415433325F4F6666736574CF
:201C80003A20253038580D0A00000000004000087047000027480021D0F8002842F001023A
:201CA000C0F800284FF4A063D0F80028491C12F0020F01D19942F7D1D0F80018890737D5A5
:201CC00000F50060026C1C4942F0805202640A6842F480420A6081688160816841F4004175
:201CE00081608268154942F4A05282604160016841F080710160A0F5006000BFD0F8001890
:201D00008901FBD540F20561C0F8001CD0F8081821F00301C0F80818D0F8081841F002010C
:201D2000C0F80818D0F80818C1F381010229F9D17047000000300240007000401054000774
:201D4000704700000E4810B5016841F0010101604FF00001816002680A4B02EA0302026081
:201D6000094A4260026822F480220260C160FFF791FF4FF0E0214FF00060C1F8080D10BDC9
:201D800000380240FFFFF6FE10300024C943018070470029818902D041F4005101E021F4AE
:201DA00000518181704700007FB50446008A0D4620F44051E88808432082A08941F20C61F3
:201DC0008843A9882A8911436A8902431143A181A08A20F44071A8890843A0826846FFF721
:201DE0008DFB1D48844202D01C48844201D1039800E00298A1890904002900EBC00101EB55
:201E00000010296802DA4FEA410101E04FEA8101B0FBF1F26420B2FBF0F14FEA01114FEA0A
:201E200011136FF018056B43A58902EB83024FF032032D0406D503EBC202B2FBF0F000F005
:201E4000070005E003EB0212B2FBF0F000F00F00084320817FBD000000100140001401403A
:201E600010B5D0F8E42552689047002010BD10B5134600240A462146FEF7CCFB204610BD66
:201E800010B5134600240A462146FEF705FC204610BD10B504468021FEF7E2FB0021204617
:201EA000FEF7DEFB2046BDE8104000F0A5BF70B504460025052084F811012B462A4629460E
:201EC0002046FEF7A7FB204600F096FF284670BD10B5C0F83C210223C0F8382180F81131B5
:201EE000134600240A462146FEF7D6FB204610BD70B504460025042084F811012B462A468E
:201F000029462046FEF7C8FB204600F075FF284670BD000070B5054641B1D5F8E40542690C
:201F20008AB395F81201032846D047E000F58E7495F811010026022833D1E169A06881425D
:201F40000FD9081AE061E878012803D1D4E902100844E060E069E16882B22846FFF790FFC5
:201F60001FE0216AB1FBF0F200FB121262B981420AD3606A814207D2002211462846FFF72C
:201F80007FFF66620DE016E0D5F8E405C16829B195F81201032801D1284688472846FFF721
:201FA00086FF95F81601012808D1054800682969486085F8166101E028469047002070BDA0
:201FC0004060002010B5044641B1D4F8E4058269FAB194F8120103282AD02BE094F8111178
:201FE00004F55D70032925D18268C169914211D9891AC161E178012902D1C1681144C1606E
:20200000C169914200D311468AB2C1682046FFF72EFF0FE0D4F8E405016929B194F8120124
:20202000032801D1204688472046FFF761FF01E020469047002010BD38B5044648880D464D
:20204000010A04295BD2DFE801F05A021420D4F8EC15A0780A68694690470146E8884028D7
:2020600003D094F81201012837D10820ADF8000037E0D4F8E415A0788A6A6946904702225E
:2020800042700146C4F8F00527E0C0B2062836D2DFE800F003080D12171CD4F8EC15A078EE
:2020A0004A6817E0D4F8EC15A0788A6812E0D4F8EC15A078CA680DE0D4F8EC15A0780A6952
:2020C00008E0D4F8EC15A0784A6903E0D4F8EC15A0788A69694690470146BDF8000000281B
:2020E0000CD0E888002809D0BDF80020904200D80246ADF800202046FFF7EAFE38BD29465F
:202100002046FFF7C6FE38BD01EB810100EBC100D0F88C0380B2704770B5002500281FD0EF
:202120000346002402E0641CE4B25B1C1E78002EF9D1022303EB440313804B556D1CEAB283
:2021400003238B54521CD2B2002406E08B54521CD2B2401C8C54521CD2B20378002BF5D113
:2021600070BD2DE9F0410446884617461D46069E00F07CFC04F2E4524146E0C22046FEF757
:20218000E3FBD4F8E805006880472046BDE8F04100F058BC10B5D0F8E415096A8847002051
:2021A00010BD10B5D0F8E415496A8847002010BD10B5FEF755FE002010BD10B5FEF770FE3B
:2021C000002010BD10B504468121FEF7C7F901212046FEF7C3F92046FEF782FE002010BDAB
:2021E00020200880004870478E60002010B50446FFF7E8FF0223402281212046FEF7ECF9B5
:202200000223402201212046FEF7E6F92046FEF76DFE002010BD000070B5054608780C46E6
:202220002C4E10F0600129D0202950D16178FE2902D0FF291CD111E06188C9B9E18801298A
:2022400016D1000614D5244800688069804710F0FF0030700CD001221E491AE0618839B94A
:20226000E18829B9000603D42846FEF761FE2EE021462846FFF70DFE022070BD6078012840
:202280000ED00A2802D00B2821D106E011490122491C2846FFF71CFE19E06088707016E03A
:2022A000A088C1B22846FEF78BF9A088C1B22846FEF754F9A08802230106C1B240222846BA
:2022C000FEF78AF9A088C1B22846FEF7B3FD002070BD00008C600020F46000202DE9F047BE
:2022E0000446002500F029FF00287ED0204600F02EFF06007AD0300303D52046FEF74EFA60
:202300000546700303D52046FEF7E2F90543B0074FF0000A02D5E16802204861524F4FF0DE
:202320000109002E17DAA07A30B1D4F80C01D4F80C1120F0030008602069416821F00101F7
:2023400041603868816920468847E1684FF00040486145F00105300529D5386894F812817F
:2023600041692046884720698068E2684FF400615161A17AC9B1C00717D094F8150101285F
:2023800013D1B8F1030F10D1D4F80C01016841F001010160D4F80C01026842F0030202600B
:2023A0003249086840F00600086045F00105300708D53868C16820468847E168082048612D
:2023C00045F00105F00603D52046FEF73DFA0543F00403D52046FEF775FA0543B0041DD596
:2023E000204600F089FCE06801E02FE02FE0D0F80C80204600F088FE03282AD084F8029058
:202400004020A08028F4705000F5A050E2684FF40051D060E068416145F00105F00209D578
:202420003868C16920468847E1684FF48010486145F00105B00209D53868016A20468847CD
:20244000E1684FF40010486145F001052846BDE8F08784F802A04FF40070A08028F47050A5
:2024600000F51050D2E700003C60002010ED00E090F8CC250A7090F8CD254A7090F8CE2513
:2024800090F8CF3502EB03224A8090F8D02590F8D13502EB03228A8090F8D22590F8D3359E
:2024A00002EB032292B2CA800121C0F8402180F81111704710B50023044640221946FEF708
:2024C0008BF80023402280212046FEF785F8012084F81201D4F8E815A0784968884700204A
:2024E00010BD10B50446D0F8E80500698047032084F81201002010BD10B5D0F8E415C969C4
:2025000001B18847002010BD10B50446D0F8E405026820469047D4F8E8058068804700205E
:2025200010BD000070B50446084649881A4DC9B20129297005D894F81221022A07D0032ACF
:202540000CD001462046BDE87040FFF7A2BCA1B184F81011032084F812010BE091B194F8EF
:202560001001884209D001462046FFF779FC297884F810112046FFF7C7FF2046BDE8704074
:20258000FFF7B6BC022084F8120184F810112046FFF766FCF1E700000060002010B5044660
:2025A0004888012201280FD0022831D1888810F0FF0F2DD12369010A586806291FD2DFE89A
:2025C00001F01E0B0F13171BC4F81821D4F8E40582682046904716E020F0700010300EE018
:2025E00020F0700020300AE020F07000303006E020F07000403002E020F07000503005493B
:20260000086084F816212046BDE81040FFF770BC10BD0000406000201CB504466946FFF7D5
:2026200027FF9DF8000010F01F010AD001290DD0022910D000F080012046FEF711F80020DE
:202640001CBD6946204600F00BF8F8E76946204600F0EEF8F3E76946204600F07DF8EEE7A6
:202660002DE9F04104464878002601270A285CD2DFE800F03A555B515B09055B29252046F1
:20268000FFF7DAFC54E08888F0BBC888E0BB488894F81221C0F30605032A46D084F8145123
:2026A00029462046FDF7D4FF2046FFF721FC1DB1022084F812013BE084F8127138E02046EE
:2026C000FFF730FF34E0C88801282ED194F81201022802D0032828D102E001221D4916E029
:2026E000012204F5887112E094F81201022801D003281AD117480838C760D4F8181109B1AE
:202700000321C160022200E00FE01249091D2046FFF7DEFB0CE02046FFF740FF08E094F8D0
:202720001201022807D0032805D02046FFF7B1FB3046BDE8F08148880128F9D10020C4F852
:202740001801D4F8E4058268204690472046FFF7CFFBEDE70860002070B50D46044689882F
:2027600068780026C9B258B3012816D0032831D194F8120102282FD0032827D1688828B9D5
:2027800021B1802902D02046FDF76AFFD4F8E40529468268204690470EE094F81201022827
:2027A0001AD0032812D16888A0B929B1802903D02046FDF7E9FEE9E72046FFF799FB09E098
:2027C00094F81201022807D003280DD029462046FFF75FFB304670BD0029FBD08029F9D023
:2027E0002046FDF73DFFF5E710480D064FF000024FF0010308D501F07F0101EB810104EBCD
:20280000C10191F81E1105E001EB810104EBC10191F8761309B1436000E0426003490222D9
:20282000091D2046FFF754FBD4E700000060002070B5044690F8120100260D4603280ED1FF
:20284000A888C0B201280AD8D4F8E405826820469047E88830B92046FFF74AFB02E02046AD
:20286000FFF717FB304670BD10B500F588708178C1704FF004018170D0F8D804C068804709
:20288000002010BD10B50A46024903A0FFF744FC004810BD306200204D534320436F6E66C2
:2028A0006967000001A000F009BD00003E204D534320496E74657266616365207374617225
:2028C0007465642E0D0A000001A000F0F7BC00003E205553422044657669636520436F6E3A
:2028E0006E65637465642E0D0A00000012200880004870473461002001A000F0DFBC000086
:202900003E205553422044657669636520446973636F6E6E65637465642E0D0A00000000C7
:2029200018B1012803D003A002E004A000E005A000F0C4BC5B3F3F5D0D0A00005B48535D14
:202940000D0A00005B46535D0D0A00007047000001A000F0B3BC00003E2044657669636593
:2029600020496E2073757370656E64206D6F64652E0D0A007047000010B50A46024903A09A
:20298000FFF7CAFB004810BD306200204D534320496E746572666163650000000420088075
:2029A000004870473061002010B50A46024903A0FFF7B2FB004810BD306200205169467288
:2029C00065655553425300000A4610B5044928B104A000BFFFF7A0FB014810BD04A0F9E727
:2029E000306200205553422053746F72616765004D6173732053746F7261676520696E20A6
:202A00004853204D6F6465000A4610B5044928B104A000BFFFF780FB014810BD05A0F9E7CC
:202A200030620020303030303030303030303142000000003030303030303030303031413F
:202A40000000000008B54FF4C060FEF7CFFA43208DF8000001208DF8010003218DF802104E
:202A60008DF803006846FEF791FA08BD1CB501210846FEF719FD4FF4C050009003208DF804
:202A8000050002208DF8040000208DF806000D4C8DF8070069462046FEF7ECF80A220B21B0
:202AA0002046FEF725F90A220C212046FEF720F901218803FEF714FD01218020FEF702FD67
:202AC0001CBD0000000002404FF47A714843AFF300800021C0EB0010C000491C8142FCD967
:202AE000704770B50446017A0025C068012915D0C16841F04001C160204600F0C9F8617A2B
:202B00004FF4341009B14FF47410E16888631420FFF7DAFFE078012819D020E0816B627A44
:202B200021F480310AB141F480118163E068C16821F0401121F42021C160204600F0A8F82A
:202B4000E07801280BD1E1682A208860E2E7E068816821F01E010A3141F020018160284697
:202B600070BD00002DE9F0410446D0F80C014FF000084546C0F800802069016821F4C051A0
:202B80000160E07A4026012827D10321204600F0CEFAE168802048622946E26866F31F41AC
:202BA00060F30F01916201EB11412B4661F30F0360F31F43E068C0F8043103EB134060F32C
:202BC0000F03E06865F31F43C0F8083103EB134060F30F03E068C0F80C311021204600F086
:202BE00071FA204600F050FA206905612069456121694FF0FF3088612069C56100204FF0BD
:202C00009047FF2112E000BF04EB8002D2F818C0DCF80030002B01DA3B4600E02B46CCF859
:202C200000309369401C1D619269916062788242EAD8002212E000BF04EB8203D3F854C01C
:202C4000DCF80000002801DA384600E02846CCF80000586D0561586D8160521C6078904224
:202C6000EAD82069016941F480710161E078012808D1032066F38A00216940F4803066F3F0
:202C800059400863204600F0D3F94046BDE8F081F8B50026054634460096124F0320FFF7CA
:202CA00018FFE86800690090641CBC4201D90020F8BD00980028F1DA0099002041F0010110
:202CC00000910099EA681161E9680A69401C0092B84202D8009AD207F7D10320FFF7F9FE35
:202CE0003046F8BD400D0300C0680021826822F0010282600846704710B5016983690022ED
:202D00008968C1F3410419682CB1012C03D0022C04D0032C05D16FF30A0102E06FF30A01A8
:202D2000C91C19600069416841F480714160104610BDF0B54A7800254C69012A17D00A7864
:202D4000002C00EB82035A6D146812693CD0D1F808C0C1F814C06CF3060222F4C01202F5A9
:202D600000225B6D1A61C278012A35D03AE083691F681A6934B18E68B44206D966F3060263
:202D80004E6104E022F07F0201E064F3060222F4C01202F500221A61C278012A05D10C7892
:202DA0000A6900EB8404A469626147F004421A60C278F2B94A69E2B10A780069012191405D
:202DC000426B0A43426314E08E6866F3060222F4C01202F50022C4E70B780A6900EB8303F6
:202DE0005B6D5A61097844F0044200EB8100406D02602846F0BD0000426D07491161C17815
:202E0000012908D1436D00F2CC524FF080215A61406D026801607047180008C0F0B50C781C
:202E2000012200254E78A2402B46012E00EB840419D0646D62F31F43226816040DD48E68A3
:202E4000CF78C98866F30A0267F3934261F3995242F0805141F4004121600069C16919431E
:202E6000C1612846F0BDA46962F30F03E4E710B502464C780B78002002EB8302012C09D0EA
:202E8000526D1468CB7824F40011032B04D0022B02D003E09269F4E741F08051116010BD91
:202EA00010B54C780978034601228A400020012C03EB81010BD0D1F854C0014662F31F4161
:202EC000CCF800001A69D3698B43D36110BDD1F818C0014662F30F01F2E702464B780978EE
:202EE000002002EB8101012B05D0496D0A6842F400120A6070478A691168002901DA41F010
:202F0000804141F40011116070472DE9F0414C780A7801254B694FF00008012C00EB820238
:202F200015D0566D002B3468326961D08D682B445B1EB3FBF5F363F3DC42C2F3C9436B4300
:202F400063F312023261C278012A57D05CE096693468326963B18F6863F312023B445B1E09
:202F6000B3FBF7F363F3DC42CB78012B05D008E06FF3120265F3DC4203E022F0C04202F143
:202F800000523261C278012A0ED0CA78012A12D04A69C2B10B7802699D40536B2B435363E7
:202FA000CA78012A07D00EE00B780A6900EB83039B695A61F4E702699268C2F30D22D207BC
:202FC0000CD044F080540B7844F0044200EB83039B691A60CA78012A03D026E044F0005453
:202FE000F1E74A6993B20A78C96800F052F91CE08B6863F3120265F3DC42A3E70B780A69C4
:2030000000EB83035B6D5A61CA78012A06D14A7912B144F0005401E044F08054097844F0CC
:20302000044200EB8100406D02604046BDE8F08170B5C468002211466FF08043A261C46818
:203040006361C668551E0B4C7560C5686B61C3689C61C37803B91021C36841F4872141F05D
:203060000811986941F44011884308439861104670BD000000080080C0680021826842F031
:20308000010282600846704738B50024014620460094009A42F010020092009ACB681A613C
:2030A000074AC9680B69401C0093904202D8009BDB06F7D40320FFF70CFD204638BD0000BB
:2030C000400D030038B50024024620460094009B43F020030093009B61F38A130093009911
:2030E000D3681961074BD1680A69401C0092984202D8009A9206F7D40320FFF7EAFC204619
:2031000038BD0000400D03000146002009698968C1F3410139B1012903D0022905D0032997
:2031200000D10220704703207047012070470269106861F3010010607047C068406900F013
:203140000100012801D00120704700207047C068416980690840704700698169C069084047
:2031600080B2704700698169C0690840000C704700EB8101496D89680069406908407047BA
:20318000034630B508460021D21C9208D3F8D03004E01C68491C051D046028469142F8D3E0
:2031A00030BD000070B500220125C27040268570144613468680012901D061B114E0C57237
:2031C0000821017004214FF0A04241709115C1800221017208E0C3720C210170062141704E
:2031E000204A4FF4A061C18002F50061C0E9032100210CE002EB411303F5106500EB810C88
:2032000003F53063CCF81850491CCCF8543043788B42EFD802F5806141614031C0F8CC107C
:20322000002108E002EB411300EB810503F5A063491CC5F8903003788B42F3D8002108E0DA
:2032400002EB013300EB810503F58053491CC5F8D03003788B42F3D802F56062C0F80C213E
:20326000204670BD0000044010B5C2680024D068012920F0C04001D019B104E040F00050F3
:2032800001E040F08040D0603220FFF71DFC204610BD30B5C47800256CB900EB820000249D
:2032A000DB1C9B08D0F8D00003E051F8042B0260641C9C42F9D3284630BDFEE70FB4054BA2
:2032C00010B503A9044A029800F01AF810BC5DF814FB0000613800204861002002E008C82F
:2032E000121F08C1002AFAD170477047002001E001C1121F002AFBD17047012070470000F8
:203300002DE9FF4F8DB005460F460026EEE1252879D100246D1CF94AA246A14601212B785C
:20332000203B01FA03F0104202D004436D1CF6E728782A2810D06FF02F022878A0F13001AF
:20334000092915D80AEB8A0102EB410144F0020400EB010A6D1CF0E757F804ABBAF1000F57
:2033600003DA44F40054CAF1000A44F002046D1C28782E2817D115F8010F44F004042A28D3
:203380000ED06FF02F022878A0F1300109290AD809EB890102EB410100EB01096D1CF2E745
:2033A00057F8049B6D1C28786C280FD006DC4C2817D068280DD06A2814D104E0742810D002
:2033C0007A280FD10DE044F400140AE044F4801401E044F440146978814202D16D1C04F516
:2033E00080146D1C95F800C0BCF16E0F2AD012DCBCF1630F3CD007DCBCF1000F76D0BCF194
:20340000580F19D1ACE018E0BCF1640F6FD0BCF1690F11D16BE0BCF1730F32D006DCBCF166
:203420006F0F71D0BCF1700F06D19BE0BCF1750F6BD0BCF1780F69D06046DDE90F12904712
:20344000761C52E1C4F30250022806D003280AD0042801CF0AD0066047E101CF4FEAE671D5
:20346000C0E9006141E101CF06803EE106703CE101CF8DF8000000208DF80100EB460120CB
:2034800003E057F804BB4FF0FF3061074FF0000102D40DE008F10101884649450FDA80455D
:2034A000F8DB1BF808100029F4D108E008F1010188468142FADB1BF808100029F6D1DDE9F6
:2034C0000F23AAEB08008146214600F040F9304400EB080604E0DDE90F121BF8010B904798
:2034E000B8F10108F7D221464846F9E002E10A20C4F302524FF0000B0890022A07D001CFB6
:20350000C117032A09D00AE035E022E023E0FF1D27F00707F7E8020105E000B2C117042A09
:2035200001D140B2C117002906DA0023D0EB030063EB01012D2202E0220504D52B228DF8B2
:203540002420012203E0E20701D02022F7E7904653E00A2110E010204FF0000B08900EE023
:20356000102109E010214FF0000B44F004044FF00809089103E008214FF0000B0891C4F3EB
:203580000252022A04D001CF0021032A06D007E0FF1D27F00707F7E8020105E080B20021A1
:2035A000042A01D1C0B200214FF00008220724D5BCF1700F2AD0089B83F0100353EA0B0375
:2035C00009D150EA010206D030228DF824208DF825C002229046089B83F0080353EA0B0313
:2035E0000BD150EA010201D1620706D530228DF824204FF00108A9F1010941A2BCF1580F9E
:2036000000D044A20B9208AA0A920FE040228DF824200122DEE75B46089AFCF7FBFE0B9B32
:203620009B5C0A9AA2F101020A92137050EA0102F1D10A98ADEB000000F1200B600702D5A7
:2036400024F4803401E04FF00109002049465A46D94501DDA1EB020000EB0B014144089087
:20366000AAEB01000B90E00306D4DDE90F2321460B9800F06CF806444FF000090DF1240A48
:2036800007E0DDE90F121AF809009047761C09F10109C145F5DBE0030CD5DDE90F232146DB
:2036A0000B9800F054F8064404E0DDE90F1230209047761C0899481E08900029F5DC08E0DC
:2036C0000A980A990078491C0A91DDE90F129047761CBBF10001ABF1010BF1DC0B982146B1
:2036E000DDE90F2300F020F806446D1C287800287FF40DAE11B03046BDE8F08F0928010074
:20370000303132333435363738394142434445460000000030313233343536373839616237
:2037200063646566000000002DE9F0410446002517461E46880405D406E039462020B0477F
:2037400005F10105641EF8D52846BDE8F0812DE9F04104460025302790461E46C80300D4B4
:203760002027880405D506E041463846B04705F10105641EF8D52846BDE8F0810448006837
:2037800004490840B0F1005F01D1FDF743FC7047004000080000FE2F2DE9F047DFF870804F
:2037A0000024C826D8F80000322578B3DFF86490194F0A2000F03CF839691848884740B95A
:2037C000B44208D3D9F8000015490840B0F1005F11D004F1C806AC4207D9F96804F13205A2
:2037E00010488847F968104888470A34B4F5C87FDFD3BDE8F087D9F80400C8F80C00C8F8BD
:203800000800D9F8001081F308888047FDF702FCC060002000400008D8100120CC10012074
:203820000000FE2FB4100120C010012000F04EFB42F6E0614B1010E0401E0022521C8A42CE
:20384000FCDB0022521C8A42FCDB0022521C8A42FCDB0022521C9A42FCDB0028ECDC704741
:2038600003490A885206FCD5C2B28A80704700000010014088B020216846FCF7A8FD4FF0BD
:20388000000844464A494FF00050FDF7B9FB4FF000694846FDF7D8FB00F0A8F8454FD8B91A
:2038A000C8261E250A20FFF7C3FF39690A344248884760B1B4420DD2AC42F3D9F96804F1C6
:2038C00064053E488847F9683D488847EAE704F5C876F1E7FFF7AAFF3A4908684A68896860
:2038E00000EA020321EA000443EA0403009300EA010322EA010443EA0403019380EA0203CD
:2039000060EA010083EA010380EA0200CDE90230DDE9000100EA01002B492C4A40EA0100D0
:203920000490009800EA030040EA02000590009A23EA0200264A40EA0200069001986A4689
:2039400020EA030040EA0100224907904FF00100086021494FF0000052F8203051F8204099
:20396000A34201D04FF00108401C0828F4D34FF4E134B8F1000F11D0204600F0D9F84FF49B
:203980007A74F9680D488847F9680D48884713A0FFF794FC2046FFF74BFFF2E7FFF7FCFE87
:2039A000204600F0C5F84846FDF780FB00F020F800020000D8100120CC100120B410012002
:2039C000C0100120107AFF1FED84FD356845A34B894EC2ADC0600020003E000850617373AD
:2039E0007764204572726F72210D0A000020704708B5214B00930024204B214A0121214872
:203A0000FEF7AFFB20A0FFF759FCC8263225DFF88480214F0EE00021C8F80410BA68012145
:203A20001E489047BA6801211D4890474FF47A70FFF7FEFED8F804100029ECD10A20FFF7C0
:203A4000F7FE39690A341748884710B104F57A7607E0B44205D314A0FFF730FCFFF78EFEAC
:203A6000F4E7AC42E6D9F96804F596750B488847F9680B488847DDE7F86000206060002098
:203A800014610020C06600206D61696E202E2E2E0D0A0000C0600020D8100120B4100120B7
:203AA000C0100120CC100120626F6F74206170700D0A0000084B0360084B4360084B83600A
:203AC000084BC360084B036109B108498160002A01D0074901617047B913002055130020F5
:203AE000711400209B14002087130020851400209F13002000240B4E282542F210770A205E
:203B0000FFF796FEAC4207D9F16804F1640506488847F168054888470A34BC42EFD3FDF712
:203B200079FA0000D8100120B4100120C010012070B50446012186B00846FDF7B5FC012157
:203B40001020FDF7CDFC1C4E072209213046FDF7CFF807220A213046FDF7CAF84FF4C060A7
:203B6000049002208DF814008DF8150000258DF8165001208DF8170004A93046FDF77AF806
:203B80000094ADF8085008200C4CADF80450ADF80A00ADF80650ADF80C5069462046FEF766
:203BA00003F901212046FEF7F4F840212046FEF7EDF806B070BD0000000002400010014089
:203BC0000000000300808300000000000000000006000000000000536F6A69726F20313DD5
:203BE0004620342F34207C7C353631322D7C322D333231367C332D2D353631327C322D2D2F
:203C00002D7C3332313535337C332D353631327C322D2D2D7C33323136332D7C332D3536FA
:203C200031327C322D2D2D7C33323136362D7C362D2D307C00008002021F000000516946E6
:203C400072656520205553425320626F6F746C6F6164657220312E30302A20417574686F36
:203C6000722020203A206D657261666F75722E626C6F672E3136332E636F6D0D0A2A2056F9
:203C8000657273696F6E20203A2056312E302E300D0A2A204461746520202020203A2032AC
:203CA0002F32362F323031350D0A00446973456E61626C6500000000D83C00200060002044
:203CC00030020000DE040020F43D002030620020C0B20000EC320020011013C51F1B2015A5
:203CE000041319261420F9241B20B5041369281B20E3081395211B20A304818B10600C012B
:203D0000181AED301AC5048B19222C1AB1109ABB48413AE110140902202008010104C0323C
:203D20000904200B020806500507058102402C07050107412D010203040405130607080925
:203D400022A013B91B1B2099041AC3041AC7041ACD041B011CCC190813353C1B20D4B813AE
:203D600075291B2021041AA5DC1A51081A4D041AC90C1AF9041AED041A9D102AA9141904F0
:203D800013092A1B2085141A790C1704030904120132021640830420571A028C820112085F
:203DA00012101A18C94902DA2802DA3002DA3802DA4002DA4802DA5002DA5802411AABE0F1
:203DC0001AAE04299329A53A04962132102A20B5511302401A04041A08041A0C041A100411
:203DE0001A14042C180240DB3A04C81A202C2280D9110000FFFFFFFFFFFFFFFFFFFFFFFF44
:203E0000F0B5D1E900248B68934322401A430260D1E901530C689D431C402C434460D1E9AA
:203E200000368D6873406B40836020C902EA040742C99C4365EA06054D405249524E0F43D8
:203E4000C0E9035702EA0305354345614F4D23EA02022A430C43C0E90624F0BD30B5D0F8B7
:203E6000A0300C68C0F8A04000F10C020C688868A0431060D1E90104A0435060D1E90004A0
:203E80006040584090600C6860EA03004440D46091E81900184420441061D1E90105D468C2
:203EA0001368A843234403435361D1E9010514695368A843234403439361D1E9010554693A
:203EC0009368A84319190143D16130BD0EB500244FF4E130FFF72CFEFCF728FF4FF000664D
:203EE00005467113305D2855641C8C42FAD3284600F02BF8264801680091416801918068C2
:203F0000029028466946FFF7A9FFDDE900010844029905F57852084400F47F5100204FF46F
:203F2000007344182C5D1454401C9842F9D369461046FFF765FF4FF4805229463046FCF773
:203F400051FE00BFFFF7D6FDFCE7134B30B5114A23F00103002122F00102A3F10053545C25
:203F60005D18491C44550429F9D30C4921F00103A3F1005300215D18545C491C4455042913
:203F8000F9D330BDED84FD356845A34B894EC2AD107AFF1FFB320020ED3900202D38002024
:00000001FF
