:020000040800F2
:1050000060070020E5510008315B00083B5A0008AA
:105010002D5B0008FD5600086B61000800000000D1
:10502000000000000000000000000000755D0008A6
:105030000157000800000000155C0008495E0008E8
:10504000FF510008FF510008FF510008FF51000800
:10505000FF510008FF510008FF510008FF510008F0
:10506000FF510008FF510008FF510008FF510008E0
:10507000FF510008FF510008FF510008FF510008D0
:10508000FF510008FF510008FF510008FF510008C0
:10509000FF510008FF510008FF510008FF510008B0
:1050A000FF510008FF510008FF510008FF510008A0
:1050B000FF510008FF510008FF510008FF51000890
:1050C000FF510008FF510008FF510008FF51000880
:1050D000FF510008AD5E0008FF510008FF510008B5
:1050E000FF510008FF510008FF510008FF51000860
:1050F000FF510008FF510008FF510008FF51000850
:10510000FF510008FF510008FF510008FF5100083F
:10511000FF510008FF510008FF510008FF5100082F
:10512000FF510008FF510008FF510008FF5100081F
:1051300000F002F800F047F80AA090E8000C824462
:105140008344AAF10107DA4501D100F03CF8AFF23F
:10515000090EBAE80F0013F0010F18BFFB1A43F055
:10516000010318479C140000BC140000103A24BF2F
:1051700078C878C1FAD8520724BF30C830C144BFBC
:1051800004680C60704700000023002400250026FE
:10519000103A28BF78C1FBD8520728BF30C148BF9A
:1051A0000B607047642900F09D80782900F0D6805C
:1051B000732900F03C82002070471FB501F0C6F94A
:1051C0001FBD10B510BD00F065FA1146FFF7F5FFE1
:1051D00001F0E6F800F083FA03B4FFF7F2FF03BC36
:1051E00000F0D2FF0948804709480047FEE7FEE784
:1051F000FEE7FEE7FEE7FEE7FEE7FEE7FEE7FEE787
:1052000004480549054A064B704700004D5E0008FA
:105210003151000860010020600700206003002079
:1052200060030020704700000FB4044910B503AAC2
:10523000029800F001FA10BC5DF814FB1800002081
:1052400070B50446856900683026C10600D4202662
:10525000C00708D070BDD4E9012130469047206ACC
:1052600000F1010020626D1EF5D570BD70B50446D9
:1052700085690068C00708D170BDD4E901212020EC
:105280009047206A00F1010020626D1EF5D570BDC7
:1052900070B505460C46012A05D02868800600D561
:1052A000EA69002302E0012305E05B1C934202D27D
:1052B000E05C0028F9D1A869E618C01AA861286A3C
:1052C000184428622846FFF7BBFF04E0D5E9012116
:1052D00014F8010B9047B442F8D32846FFF7C6FFF5
:1052E00070BD00002DE9F0410746002510687529C2
:1052F000394616A411D0AFF30080002803DAC0F1BC
:10530000000013A407E039688A0701D511A402E060
:10531000490704D510A4012501E0AFF30080002166
:105320000A2307F1240607E0B0FBF3F203FB1200A7
:10533000303070541046491C0028F5D12B462246C7
:105340003846BDE8F04100F006B90000000000005A
:105350002D0000002B0000002000000070B5044666
:105360000D4621461068AFF300802168090502D57B
:10537000104A7A4402E00F4A7A440E32002104F1C6
:10538000240307E000F00F064FEA1010965D5E540C
:1053900001F101010028F5D120680023000704D5A0
:1053A000702D02D009B1113202232046BDE87040B1
:1053B00000F0D1B84E1200002DE9F05F4FF0000B65
:1053C000044689464FF0010AC0F820B02046E16843
:1053D000884700287ED0252806D0D4E901219047AF
:1053E000206A401C2062F1E7444F00267F4420469B
:1053F000E16888472028054608DB312D06D207EBF7
:10540000050010F8200C08B10643F0E7B00701D5FD
:1054100026F00406C4F81CB00027C4F818B02A2DE2
:105420000DD05246A5F130010A292DD2BAF1000F54
:105430002AD0924604EB8708C8F8181019E059F8EA
:10544000041B204604EB87029161E1688847012F25
:1054500005461BD1E069002823DA26F0200620E06B
:10546000D8F8180000EB800005EB40003038C8F891
:1054700018002046E1688847A0F1300105460A2956
:1054800002D2BAF1000FEBD1012F0AD02E2D08D194
:105490002046E16888477F1C0546022F46F020061B
:1054A000BDDBA069002803DA404246F00106A06196
:1054B000F00701D026F0100665B1A5F141001928CA
:1054C00002D8203546F400664A4629462046266022
:1054D0004E4600E00FE0FFF765FE50B1012805D011
:1054E000F61D26F0070000F108096FE706F1040930
:1054F0006CE7284671E7206ABDE8F09FFC110000C8
:105500004FF0000200B5134694469646203922BF5C
:10551000A0E80C50A0E80C50B1F12001BFF4F7AFA7
:10552000090728BFA0E80C5048BF0CC05DF804EB89
:10553000890028BF40F8042B08BF704748BF20F8F7
:10554000022B11F0804F18BF00F8012B70477047F5
:105550007047704770472DE9F0470D460446924664
:10556000994600F124080168880604D5E06921F015
:105570001001216000E001200027A84201DDA0EB1E
:105580000507A16907EB050202EB0300A1EB000090
:10559000A0612068C00602D42046FFF751FE002615
:1055A00008E0D4E901211AF806009047206A401C5F
:1055B000761C20624E45F4DB2068C0060AD52046E2
:1055C000FFF73EFE06E0D4E9012130209047206A33
:1055D000401C2062381EA7F10107F4DC07E0D4E983
:1055E000012118F805009047206A401C2062281EFF
:1055F000A5F10105F3DC2046FFF738FE2168022003
:10560000090600D40120BDE8F08710B5436913B145
:10561000AFF3008001E0FFF73BFE012010BD1268F0
:1056200000F124010A7000224A700122EDE711689E
:105630004FF0FF32E9E70000074B70B50C467B44A2
:1056400000F011F80546204600F020F810B14FF0A8
:10565000FF3070BD284670BD430D000001694A1C33
:1056600002610878704700B58FB0CDE901310021A3
:10567000059105497944CDE9031011466846FFF7C5
:105680009BFE0FB000BD0000E5FFFFFFC06800F00B
:1056900080007047754600F029F8AE46050069465F
:1056A000534620F00700854618B020B5FFF7A8FD47
:1056B000BDE820404FF000064FF000074FF0000813
:1056C0004FF0000B21F00701AC46ACE8C009ACE894
:1056D000C009ACE8C009ACE8C0098D467047044673
:1056E000AFF300802046FFF777FD000000487047C9
:1056F000FC000020004870470001002000BFFEE7CA
:105700007047000030B5044604254FF4302000F007
:10571000A5F80546042D17D10C48006940F0020099
:105720000A49086108464461006940F04000086188
:105730004FF4302000F092F805460448006941F625
:10574000FD71084001490861284630BD0020024033
:1057500004200C49C96801F00101012901D101208F
:105760000EE00849C96811F0040F01D0022007E0DB
:105770000449C96811F0100F01D0032000E0042093
:1057800070470000002002402DE9F04107460E4618
:105790001546002415F0030F0BD02C4602E0FF2025
:1057A0003055641C4FF6FC7105EA0100001DA04253
:1057B000F5D8002405E03159384600F011F83F1DB6
:1057C000241DAC42F7D30020BDE8F08103480069F6
:1057D00040F080000149086170470000002002404D
:1057E000F0B504460D4604260027F00200F036F816
:1057F0000646042E22D11248006940F001001049EB
:1058000008612580F00200F029F80646042E0ED12A
:10581000A71C280C3880F00200F020F80646084843
:10582000006941F6FE7108400549086106E0044838
:10583000006941F6FE710840014908613046F0BD3B
:10584000002002400248034948600348486070470E
:105850002301674500200240AB89EFCD00B5024629
:105860000423FFF775FF034603E0FFF771FF0346CC
:10587000521E012B01D1002AF7D102B90523184687
:1058800000BD2DE9F041024600250026002000233E
:105890000024002791F803C00CF00F0591F803C015
:1058A0001CF0100F03D091F802C04CEA0505B1F8C6
:1058B00000C01CF0FF0F31D0146800202BE04FF027
:1058C000010C0CFA00F3B1F800C00CEA03069E428A
:1058D00020D183004FF00F0C0CFA03F7BC4305FAFC
:1058E00003FC4CEA040491F803C0BCF1280F06D174
:1058F0004FF0010C0CFA00FCC2F814C00AE091F859
:1059000003C0BCF1480F05D14FF0010C0CFA00FCAC
:10591000C2F810C0401C0828D1D31460B1F800C0F0
:10592000BCF1FF0F34DD546800202EE000F1080CBC
:105930004FF0010808FA0CF3B1F800C00CEA0306B6
:105940009E4221D183004FF00F0C0CFA03F7BC43A9
:1059500005FA03FC4CEA040491F803C0BCF1280FDB
:1059600005D100F1080C08FA0CF8C2F8148091F87F
:1059700003C0BCF1480F07D100F1080C4FF001083B
:1059800008FA0CF8C2F81080401C0828CED35460E6
:10599000BDE8F081F0B50A4600230024002100256F
:1059A00000F00046B6F1004F02D11D4EF16901E052
:1059B0001B4E7168C0F3034583B200F44016B6F580
:1059C000401F08D121F07061154E766826F0706690
:1059D000134F7E6012E000F48016B6F5801F06D1EA
:1059E000032606FA05F4A14341F0706106E0460D76
:1059F000360103FA06F6B14341F0706122B1460D5B
:105A0000360103FA06F6314300F00046B6F1004FC6
:105A100002D1034EF16101E0014E7160F0BD000062
:105A2000000001400246002093680B4201D0012093
:105A300000E0002070470161704700BFFEE70000F2
:105A400008B50121202000F0F7F801210648FFF7F2
:105A5000A1FF4020ADF8000048208DF80300694602
:105A60000248FFF70EFF08BD00023000001401409D
:105A700010B5044640210448FFF7D4FF08B90320BD
:105A800010BD0020FCE700000014014000F0010000
:105A9000C04300F00101014A1160704784012342B4
:105AA00000F00100C04300F00101014A116070479D
:105AB000B401214208B50121402000F0BDF80220C8
:105AC000ADF8000010208DF8030003208DF80200CF
:105AD00069461348FFF7D5FE02211148FFF7ABFFD7
:105AE0000121084600F0A8F801210E48FFF752FFF7
:105AF0000121042000F0A0F84FF40050ADF80000A0
:105B000010208DF8030003208DF802006946064836
:105B1000FFF7B7FE4FF400510348FFF78CFF08BDB5
:105B200000180140000430000008014000BFFEE7FB
:105B30007047000070B5002100230F22C4784CB3D9
:105B40001A4C246804F4E064C4F5E0644FEA1421BC
:105B5000C1F1040322FA01F2447804FA03F18478D3
:105B600004EA020444EA01014FEA0111104C0678EC
:105B7000A155047804F01F054FF0010404FA05F460
:105B800005784FEA65154FF0E02606EB8505C5F868
:105B9000004109E0047804F01F050124AC40054DE4
:105BA0000678761145F8264070BD00000CED00E047
:105BB00000E400E080E100E0024A0A400243024BB8
:105BC0001A60704780FFFF1F08ED00E00448054998
:105BD000086005484860054888600846704700002E
:105BE000415A00081C000020715A00087161000829
:105BF000044805490860054848600548886008462B
:105C000070470000B55A0008280000208D5A00088F
:105C1000A15A00087047000029B1064A12690243E0
:105C2000044B1A6104E0034A12698243014B1A6172
:105C3000704700000010024029B1064A92690243F1
:105C4000044B9A6104E0034A92698243014B9A61D2
:105C5000704700000010024029B1064AD268024392
:105C6000044BDA6004E0034AD2688243014BDA60F5
:105C7000704700000010024030B5002100220024CF
:105C800000232D4D6D6805F00C0121B1042905D0CC
:105C9000082923D105E0294D056022E0274D056044
:105CA0001FE0254D6D6805F47012234D6D6805F4F5
:105CB0008034022505EB92421CB9214D5543056005
:105CC0000BE01D4D6D6815F4003F03D01C4D55438E
:105CD000056002E0194D5543056002E0174D05606F
:105CE00000BF00BF144D6D6805F0F0010909154DA6
:105CF0006B5C0568DD4045600F4D6D6805F4E06143
:105D0000090A104D6B5C4568DD4085600A4D6D6881
:105D100005F46051C90A0B4D6B5C4568DD40C560F8
:105D2000054D6D6805F44041890B074D6B5CC568F6
:105D3000B5FBF3F5056130BD0010024000127A009A
:105D400000093D00000000201000002030B503468F
:105D50000C461546002207E0184600F008F824F823
:105D600012009B1C501C82B2AA42F5DB30BD0146DA
:105D700008887047704710B500F002F810BD0000A9
:105D8000002100202E4A126842F480322C4B1A6007
:105D900000BF2B4A126802F40030491C10B9B1F55B
:105DA000A06FF6D1264A126812F4003F01D00120FC
:105DB00000E00020012842D1224A126842F010027D
:105DC000204B1A601A46126822F003021A601A4623
:105DD000126842F002021A60194A5268184B5A605F
:105DE0001A4652685A601A46526842F480625A60F3
:105DF0001A46526822F47C125A601A46526842F4DB
:105E0000E8125A601A46126842F080721A6000BFA7
:105E10000B4A126812F0007FFAD0094A526822F049
:105E20000302074B5A601A46526842F002025A6057
:105E300000BF034A526802F00C02082AF9D17047E9
:105E400000100240002002407047000010B51348C7
:105E5000006840F001001149086008464068104998
:105E600008400E494860084600680E4908400B4942
:105E700008600846006820F48020086008464068F2
:105E800020F4FE0048604FF41F008860FFF773FFA6
:105E90004FF000600449086010BD0000001002408F
:105EA0000000FFF8FFFFF6FE08ED00E010B540F23D
:105EB00025511D4800F098F810B31B4800F050F928
:105EC000C4B21A48008810F4004F2BD1174800883C
:105ED00010F4804F0CD00A2C03D000201349088006
:105EE00020E01248008840F400401049088019E082
:105EF0000D2C06D10D48008840F480400B490880E5
:105F000010E00A480088C0F30D0009490C54074806
:105F10000088401C0549088008460088C72801DD24
:105F20000020088010BD000000380140140000204F
:105F30003400002021B1828942F40052828104E0C1
:105F400082894DF6FF731A408281704710B504466E
:105F50002048844209D101218803FFF77DFE0021FA
:105F60004FF48040FFF778FE32E01B48844209D1AD
:105F700001214804FFF750FE00214FF40030FFF7E5
:105F80004BFE25E01548844209D101218804FFF722
:105F900043FE00214FF48020FFF73EFE18E010483A
:105FA000844209D10121C804FFF736FE00214FF4D5
:105FB0000020FFF731FE0BE00A48844208D101219E
:105FC0000805FFF729FE00214FF48010FFF724FE9B
:105FD00010BD00000038014000440040004800406F
:105FE000004C00400050004070B5024600240023E1
:105FF00000250020A1F510666A3E00D100BFC1F364
:10600000421501F01F03012606FA03F3012D02D108
:106010009689334006E0022D02D1168A334001E012
:10602000968A33400C12012606FA04F4168834408E
:1060300013B10CB1012000E0002070BDF0B50346A3
:106040000024002600250020A1F510676A3F00D13A
:1060500000BF1846C1F3421401F01F06012707FADA
:1060600006F5012C01D10C3004E0022C01D11030D6
:1060700000E014301AB107682F43076002E0076898
:10608000AF430760F0BD00002DE9F04786B005463C
:106090000E460024A24600BFA1460027B08900B1E9
:1060A00000BF2F462C8A4CF6FF700440F088044352
:1060B0002C82AC894EF6F3100440B0883189084335
:1060C000718908430443AC81AC8A4FF6FF40044019
:1060D000B0890443AC8201A8FFF7CEFD1F48874278
:1060E00002D1DDF810A001E0DDF80CA0A88910F4C1
:1060F000004F08D00AEBCA0000EB0A1031684900D3
:10610000B0FBF1F807E00AEBCA0000EB0A103168B7
:106110008900B0FBF1F86420B8FBF0F0040120091D
:10612000642101FB1089A88910F4004F08D03220A7
:1061300000EBC900B0FBF1F000F00700044308E0F9
:10614000322000EB09106421B0FBF1F000F00F00E9
:1061500004432C8106B0BDE8F08700000038014000
:1061600001468888C0F30800704700BFFEE70000C2
:1061700010B540210348FFF755FC08B9032010BDB6
:106180000020FCE700140140014600BF70470000FA
:1061900010B5ADF5806D4FF480616846FFF7B0F93A
:1061A000002429480068294900EA0100B0F1005F95
:1061B00047D1FFF747FB00BF08E004F10060FFF79D
:1061C000A1FA0A2000F0D0F804F58064B4F5A04FDD
:1061D000F3D3002414E01C4960188A146946FFF7C1
:1061E000B5FD0A2000F0C0F804F100604FF48062B1
:1061F0006946FFF7C9FA0A2000F0B6F804F5806492
:10620000B4F5A04FE7D31048FFF77CFAFFF7DEFAAA
:106210000FA0FFF709F8282000F0A6F800BF1048EB
:10622000006800F4E0600F4940EA010000F104005A
:106230004FF0E021C1F80C0DBFF3408F00BF00BF4D
:10624000FEE70DF5806D10BD007800080000FE2F00
:1062500053797374656D5265736574210D0A00007E
:106260000CED00E00000FA0538B500240025FFF72A
:10627000ADFC054628688047FFF7BAFC0446206855
:1062800080474FF4E13000F00DF90823009312230A
:10629000002210A110A0FEF7C7FF194919A0FEF7B0
:1062A000C3FF19A21BA11EA0FEF7BEFF2048006875
:1062B00081B220A0FEF7B8FFC922224922A0FEF732
:1062C000B3FF0020A1688847002061688847FFF776
:1062D0005FFF38BD415439000D0A0D0A2573207542
:1062E000706461746520626F6F7420766572736983
:1062F0006F6E2025642E25642E25640D0A00000093
:106300005A650008257300004D6172203330203239
:106310003031350031343A30363A33310000000044
:10632000446174653A2025732D2D25730D0A0000F4
:10633000E0F7FF1F465F53495A453A253034580D60
:106340000A000000AE6500085B2573204025645DEF
:106350002075706461746520626F6F746C6F616426
:106360006572210D0A000000002107E0401E002197
:1063700000E0491C42F6E0629142FADB0028F5DCBD
:106380007047000000BF044A128812F0400FFAD094
:10639000C2B2024B1A8070470038014004380140F5
:1063A0000024002600254FF440514FF00060FFF715
:1063B00003FC0520002107E0401E002100E0491CED
:1063C00042F6E0629142FADB0028F5DC00BFFFF7FD
:1063D0000FFC0446206880470120A16888470120FF
:1063E000616888474FF47A70FFF7BEFF002519E017
:1063F0000A20FFF7B9FF05F11E00B04206D80020C1
:10640000A16888470020616888470AE0B54206D83D
:106410000120A168884701206168884701E005F1F3
:1064200046060A35B5F5FA6FE2D3FFF71DFF01E026
:1064300000F001F8FCE770B5002600250024FFF706
:10644000D7FB04462068804700BF05F1280600BF3F
:1064500019E00A20FFF788FF05F11E00B04206D8B8
:106460000020A16888470120616888470AE0B5429A
:1064700006D80120A168884700206168884701E0AC
:1064800005F164060A35B5F5FA6FE2D30120A1687B
:1064900088470120616888474FF47A70FFF764FFEE
:1064A00070BD000010B586B00446012144F204001E
:1064B000FFF7C2FB2348FFF749FD4FF40070ADF82A
:1064C000140003208DF8160018208DF8170005A978
:1064D0001D48FFF7D6F94FF48060ADF81400042092
:1064E0008DF8170005A91848FFF7CBF925208DF87E
:1064F000000003208DF801008DF8020001208DF8C6
:1065000003006846FFF716FB01940020ADF8080071
:10651000ADF80A00ADF80C00ADF810000C20ADF895
:106520000E0001A90748FFF7AFFD012240F22551F7
:106530000448FFF783FD01210248FFF7FBFC06B08A
:1065400010BD0000003801400008014010B5FFF701
:10655000D1F84FF00001016010BD2A204175746828
:106560006F722020203A206D657261666F75722E01
:10657000626C6F672E3136332E636F6D0D0A2F2FCD
:106580002A2056657273696F6E20203A2056312E8C
:10659000302E300D0A2A20446174652020202020EE
:1065A0003A20322F32362F323031350D0A00766FD5
:1065B000696420636F64655F656E74727928766FB5
:1065C0006964290030313233343536373839414245
:1065D0004344454640305800303132333435363745
:1065E00038396162636465664030780004000008F1
:1065F0000000000000000002000100001000000088
:1066000020660008000000201C0000006C510008FB
:106610003C6600081C000020440700008851000868
:106620000000000001020304010203040607080938
:0C6630000204060800000000000000004A
:020000040800F2
:10780000B80A002001010008D7100008950E0008F2
:10781000D5100008A5010008A91D000800000000FF
:10782000000000000000000000000000FD1400083F
:10783000310A0008000000008D120008891A0008B3
:107840001B0100081B0100081B0100081B010008A8
:107850001B0100081B0100081B0100081B01000898
:107860001B0100081B0100081B0100081B01000888
:107870001B0100081B0100081B0100081B01000878
:107880001B0100081B0100081B0100081B01000868
:10789000851D00081B0100081B0100081B010008D2
:1078A0001B0100081B0100081B0100081B01000848
:1078B0001B0100081B0100081B0100081B01000838
:1078C0001B0100081B0100081B0100081B01000828
:1078D0001B0100081B0100081B0100081B01000818
:1078E000350A00081B010008A91B0008DFF80CD0AE
:1078F00000F018F800480047451E0008B80A0020AC
:107900000648804706480047FEE7FEE7FEE7FEE739
:10791000FEE7FEE7FEE7FEE7FEE7FEE78D1A00085A
:10792000ED000008064C074D06E0E06840F001035A
:1079300094E8070098471034AC42F6D3FFF7DAFF1B
:10794000D0210008F021000870B501EB020410F806
:10795000015B15F0070301D110F8013B2A1106D194
:1079600010F8012B03E010F8016B01F8016B5B1EAE
:10797000F9D12B0705D40023521E0FD401F8013B87
:10798000FAE710F8013B02F10202A1EB030303E066
:1079900013F8015B01F8015B521EF9D5A142D6D361
:1079A000002070BDFEE7C1B2000A40EA0120704726
:1079B0002DE9F05F4BF6BF7648F280074F4D40F659
:1079C0008F7848F60F7ADFF838914E4C32E0018814
:1079D0004D4A11F00F01117035D004EB8100D0F841
:1079E000001C1FFA81FB5FEA0B410ED5D0F8001C8A
:1079F000134689B201EA0801C0F8001C434819780F
:107A000000EB810050F8040C80475FEA0B6011D551
:107A10003D48017804EB8101D1F8002C92B202EAD2
:107A20000A02C1F8002C3A49007801EB800050F8B6
:107A3000040C8047D4F8441C4846A9F800100904F7
:107A4000C5D4BDE8F09FD4F8001C2980298801F036
:107A500030016980298801F440512980D4F8001C44
:107A600089B2314081F4005181F020013943C4F8DA
:107A7000001C0088C0060028D4F8000C80B218DB77
:107A800000EA0A00C4F8000C00F006FE28E029888D
:107A9000890401D580F400506988C9062AD4698810
:107AA000890601D580F0200080B23843C4F8000C6C
:107AB000C7E7010509D5D4F8000C80B200EA080038
:107AC000C4F8000C01F00EFA0AE00004B2D5D4F8B4
:107AD000000C80B200EA0800C4F8000C00F0A2FF1D
:107AE000D4F8000C298880B23040C904CFD580F486
:107AF0008050CCE780F01000D1E700009202002017
:107B0000820100200050004080020020A8010020D7
:107B10008C010020094901EB8000D0F8001C4904C9
:107B20000AD5D0F8001C48F68F7389B24CF2800257
:107B300019401143C0F8001C70470000005000407D
:107B4000094901EB8000D0F8001C49060AD5D0F89D
:107B5000001C48F68F7389B248F2C00219401143E5
:107B6000C0F8001C7047000000500040074901EBBE
:107B70008001D1F8000C48F68F6380B248F2800291
:107B800018401043C1F8000C70470000005000403E
:107B9000164910B50A68117801F07F01212922D118
:107BA000134B0228197806D001280AD0052810D0D6
:107BB000032810D017E0022901D0092913D10D495B
:107BC0000AE0022901D005290DD1032018700A49C5
:107BD00002E00A4900E00A4929B10020916150827F
:107BE0008847002010BD022010BD00008402002044
:107BF00014000020DD1A0008DD0600085D0C0008F6
:107C0000790C0008014901F037BA0000DC010020BE
:107C1000014901F031BA0000D4010020054909688A
:107C2000C978082901D900207047034A02EBC10135
:107C300001F022BA8402002014020020032901D896
:107C4000022801D9022070470020704770B52949E9
:107C50000968097801F07F01212912D1284B264EAD
:107C6000002226491D78012807D00224022813D0BB
:107C7000042817D0062828D003E0052D03D0022DB4
:107C800001D0022070BD0120B060062018704A703B
:107C90008A70CA7008712BE01C704A708A70CA70B2
:107CA0000C7125E00A2D09D00A2018700E230B70E4
:107CB0004A708A70CA7008714A7119E01C700A70A3
:107CC0004A708A70CA700C71F6E7022D07D0032D36
:107CD00005D0052D03D0062D01D0092D08D11C702B
:107CE0000A704A708A70CA700C714A713260726090
:107CF000002070BD84020020C4010020200000206C
:107D00001400002070B523490020244A88722249BB
:107D10001268234CC97951722065206848F68F118A
:107D200080B200EA010040F400702060206848F64C
:107D3000BF7180B200EA010080F0200048F28001AB
:107D400040EA01002060216D4FF01000154D4FEA10
:107D5000014105EBD131144E88604FF000003178BD
:107D600000F0F0FF216D5020090405EBD1310860CF
:107D70003178002001F01AF80020FFF7F7FE00200C
:107D800001F000F8002000F0BBFF08490120086066
:107D900070BD0000980600203800002084020020FA
:107DA000005C004000600040100200206C020020D7
:107DB0000348807A002802D00249052008607047F5
:107DC000980600206C0200200149042008607047DA
:107DD0006C0200207047000070B5214840780328ED
:107DE00021D1204D2878042805D007281BD1BDE8D3
:107DF000704000F053B81C4C21462068496898B187
:107E0000012806D98002E268A0F50060104400F065
:107E10004DFD002060601549032220602A700A7120
:107E200048708870C87070BD11480278002AF0D080
:107E300043788678212A03EB0623C678007903EB82
:107E4000064303EB006007D0412AE2D10529E0D1C7
:107E5000E06000F0E7FCDCE70529DAD1E060D8E774
:107E60009806002014000020C401002020000020FB
:107E70009802002070B5074D00F0F4FB0024AC72AE
:107E800000F026FE01F080FB01F0B2FA0248046027
:107E900070BD0000980600206C0200200C490020F4
:107EA0000C4A8860183109680B7D0B495B0706D5C1
:107EB000062313700B7148708870C87070470823D0
:107EC00013700B7148708870C87000F037BE0000E6
:107ED000C4010020140000202000002010B50E492D
:107EE0000E4CCB788A7803EB02222260CA798B7918
:107EF00003EB022262600A4C498A03232370094C77
:107F0000521A92B2237110B10748084410BD0748B5
:107F100000680282002010BD98060020C4010020E5
:107F2000140000202000002098020020840200207D
:107F30002DE9F05FDFF89C90DFF89C804FF0300A6D
:107F4000D9F8001001F11005088A0E7A08B9042E3C
:107F500029D0AC880426A04200D90226844200D948
:107F60000446A0B2A968074688478346002000F06F
:107F70006BFB01463A46584601F018FB3946002093
:107F800000F014FF2888001B28806888204468803F
:107F9000A8F800A011494FF440500880D9F800001B
:107FA0000672BDE8F09F0E480178012904D007262B
:107FB0001021A8F80010F1E70A4A002113680A4AC4
:107FC0004FEA034302EBD3325160A8F800A00170DE
:107FD000E4E70000840200209402002092020020C6
:107FE0007C020020505C0040006000402DE9F0471A
:107FF000234EDFF890904FF03008346834F8100FBB
:10800000A168B1B108B3A588854200D90546A8B2D8
:108010000746884782462088401B20806088284485
:108020006080002000F000FB01463A46504600F018
:108030001DFD208848B114494FF4405008800021AC
:10804000084600F0B3FEA9F800802088A188884285
:1080500001D3032001E020B1052031680872BDE89A
:10806000F0873268094B062111721A68002008490E
:108070004FEA024201EBD2314860A9F80080EEE7F6
:10808000840200209402002092020020505C0040F4
:10809000006000402DE9F0415C4C5D4D09262068F0
:1080A000002729684278062A05D0AAB1082A4DD0AF
:1080B0000A2A50D06BE00278520668D180780128F5
:1080C00004D0022804D0032804D060E0C96956E037
:1080D000096A54E0496A52E04288B2BBC288022A67
:1080E00055D102798ABB0278530601D1838833B116
:1080F00002F07F02012A04D0022A0CD047E0454951
:108100003DE08A69407900219047F0B92068807A83
:108110000028F4D13BE040793F4A00F070010306AB
:1081200000F00F0002EB8002D2F8002C03D5C2F35E
:108130000112120102E0C2F301321203374B1B7825
:10814000834224D909B9002AD9D120E00078400619
:108150001DD1334913E0027802F07F02012A16D1C3
:10816000827AA2B1428892B9027982B9C288012A80
:108170000DD18A6940790021904740B9294931B130
:1081800020684782816100208847002006E0296836
:108190002068096940788847032808D021680A8A3E
:1081A000A2F57F43FF3B05D10E72BDE8F081206848
:1081B0000672FAE7022808D03AB1087800061FD5FF
:1081C000C888824204D9088212E008200872ECE7CD
:1081D0000ED22868144B90F82C00824201D21F70F6
:1081E00006E0B2FBF0F400FB142008B9012018707F
:1081F000286890F82C008882BDE8F041FFF798BE0F
:1082000003200872094900030880CEE78402002099
:1082100088020020C11800080050004044020020DD
:1082200051180008991800087C02002092020020D2
:108230007047000010B54FF40074204600F018F8A5
:1082400000280CD006480068407A800602D501203C
:1082500000F088FC2046BDE8104000F003B810BDD7
:1082600084020020014908607047000014040140A6
:10827000064B014600201A685B6902EA01020B42C4
:1082800002D0002A00D00120704700000004014005
:1082900030B51F4A8179036899B311460C6824EA06
:1082A00003040C604B68046823EA04034B60047900
:1082B00004EB02031C68056844EA05041C608B6833
:1082C000046823EA04038B60CB68046823EA040390
:1082D000CB604379A1F58061102B05D099180A680D
:1082E000006802430A6030BD01F581610A680368D5
:1082F00042EA03020A604A68006842EA00024A60F1
:1083000030BDFFE700791044016899430160F7E749
:108310000004014001490320086070476C020020FE
:1083200070B505464FF43026304600F085F8042835
:1083300011D1094C206940F002002061656120697B
:1083400040F040002061304600F076F8216941F6A7
:10835000FD721140216170BD0020024008490420D7
:10836000CA68D20701D001207047CA68520701D5F8
:1083700002207047C968C906FBD50320704700007A
:108380000020024010B5FFF7CBFF002010BD0020F9
:10839000704770472DE9F04106460E4D0C468807A0
:1083A0000AD04FF6FC73FF2201EA0300001D01E032
:1083B0006A54491C8842FBD8002705E0E959304639
:1083C00000F00AF8361D3F1DA742F7D30020BDE894
:1083D000F0810000980200202DE9F04105464FF49D
:1083E00000570E46384600F027F8042814D10B4CED
:1083F000206940F0010020612E80B846384600F028
:108400001BF8BF1E042804D1300C6880404600F0E1
:1084100013F8216939402161BDE8F0810020024054
:1084200003480249416003494160704723016745A1
:1084300000200240AB89EFCD00B50346FFF78EFF69
:1084400003E000BFFFF78AFF5B1E012803D0002B6B
:1084500000D1052000BD002BF4D1FAE708B1044893
:108460007047044901200968088200207047000015
:10847000140000208402002070B5214B0446002225
:108480001D7820492048032D02D0062D2FD117E05A
:1084900045689DB104221A700A7101681A48C068C3
:1084A00019B91A490978412905D0164A5FF0010126
:1084B00000F0CCF91BE0134A0021F9E7052011E098
:1084C0008068012801D030B111E0072018700871D0
:1084D0000120487009E00C4818300068007D400712
:1084E00005D50220187008714A708A70CA700CB1E4
:1084F000044870BD0649062009680882002070BD46
:108500001400002020000020C40100209802002058
:10851000840200202DE9F041CA780025D30602F03C
:108520000F0201D58B781A430B884FF00F084FF0DC
:10853000010C13F0FF0F1CD0D0F800400E880CFA8D
:1085400005F31E409E4210D1AF0008FA07F624EA58
:10855000060602FA07F43443CE78282E02D0482EBD
:1085600002D002E0436100E003616D1C082DE5D3F9
:1085700004600B88FF2B1DD94468002505F108060F
:108580000CFA06F30E881E409E420FD1AF0008FA87
:1085900007F624EA060602FA07F43443CE78282EBA
:1085A00000D14361CE78482E00D103616D1C082DA7
:1085B000E4D34460BDE8F081F0B5144C002801DA42
:1085C000E36900E06368420D120185B2C0F3015710
:1085D0009540C0F30346032F05D0C2020AD50322FB
:1085E000B240934307E023F07062636823F0706346
:1085F000636002E0AB4343F0706201B12A4300289C
:1086000001DAE261F0BD6260F0BD000000000140EF
:108610000246002092680A4200D001207047416162
:1086200070470161704700000549096889B201EB94
:10863000C000044901EB4000806880B27047000030
:10864000505C0040006000400449096889B201EBB9
:10865000C000034951F8100080B27047505C0040E0
:1086600000600040094810B5D0E90014806808187F
:108670000BD00822064900F03DF8054920460422A7
:10868000BDE81040103100F035B810BDE8F7FF1F0D
:10869000A4000020FEE7000010B5134C2068017A0A
:1086A000022904D0042902D0062905D015E0FFF7DD
:1086B0003FFC2068007A11E04178052909D1017852
:1086C000490606D1C07800F01BFB08480068006A24
:1086D0008047074800688068804708202168087242
:1086E000BDE8104000F0D4B9840200208C020020C4
:1086F00088020020F0B500230A2530274FF0370C00
:108700001C460FE0B5EB107F02D907EB107601E0B5
:108710000CEB107601F8136001EB430600015B1CC3
:108720007470DBB29342EDD3F0BD000008B50121B7
:10873000202000F0F1F901210648FFF73DFF40201D
:10874000ADF8000048208DF8030069460248FFF7A5
:10875000E1FE08BD000230000014014010B54021C8
:108760000348FFF755FF08B1002010BD022010BDDF
:1087700000140140024900F0010008607047000049
:1087800084012342024900F00100086070470000A4
:10879000B4012142F8B50121402000F0BDF90220CA
:1087A000ADF800001024154E8DF8034003258DF818
:1087B000025069463046FFF7ADFE02213046FFF712
:1087C00030FF0121084600F0A7F901210C48FFF70E
:1087D000F3FE0121042000F09FF96602ADF800606D
:1087E0008DF80340074C8DF8025069462046FFF78C
:1087F00091FE31462046FFF714FFF8BD00180140F6
:1088000000043000000801400448817A044809B19E
:10881000052100E00121016000F038BD980600202C
:108820006C020020064910F07C4206D0B2F1006FC5
:1088300001D001207047034A00E0034A0A60104754
:1088400000000020850B00084B140008C0F3816372
:1088500001F00100064901EB830131F8103053703B
:1088600031F81000000A90700020D07070470000AE
:10887000BC21000810B5FFF78AFD00F0EBF90020DD
:1088800010BD0000064A10F07C4306D0B3F1006F23
:1088900001D000207047034B00E0034B9360184762
:1088A00000000020930B000861140008064A10F035
:1088B0007C4306D0B3F1006F01D001207047034B19
:1088C00000E0034B5360184700000020950B0008A0
:1088D00075140008FEE770477047F0B50F22C578A1
:1088E00003784FF0E0210124E5B1D1F80C5D467822
:1088F00005F4E065C5F5E0652D0AC5F10407EA4019
:108900008578BE40154035430B442A0183F8002486
:108910000078420900F01F00844001EB8200C0F89B
:108920000041F0BD03F01F008440580901EB8000B6
:10893000C0F88041F0BD00000249084302490860C8
:10894000704700000000FA050CED00E070B5304DF6
:108950002868017844784A0606D001F07F00012893
:1089600028D002282BD035E0092C06D0052C07D0C2
:10897000032C0ED0012C14D02CE000F0EBFB28E0EF
:10898000C1787F292ED8817861BB818851BB807ADC
:1089900027E0C17801291DD18088D8B900F0F6FB05
:1089A00017E0C178012915D1818899B9407A8006EC
:1089B0000AD40FE00B2C0DD100F040FC09E0012C93
:1089C00002D0032C03D005E000F0C2FA01E000F071
:1089D000EFFB58B10F4800684169E0B288470328AF
:1089E00002D018B108200FE009200DE00A4A062045
:1089F00000211368094A4FEA034302EBD332516066
:108A0000074A4FF0300111802968087270BD0000DC
:108A10008402002088020020505C0040006000407A
:108A20009402002010B50F4C2068007A022811D063
:108A300004280FD0032804D0052802D0072805D029
:108A400008E0FFF7D3FA2068007A04E006480068DF
:108A5000C0688047082021680872BDE8104000F017
:108A600017B800008402002088020020064B10B5D1
:108A7000521C520803EB410104D010C920F8024BEC
:108A8000521EFAD110BD0000006000407047000087
:108A90000B4810B590F82C10002000F053F909484D
:108AA0000068017A082905D1074A48021080074A60
:108AB000102010800120092900D0002010BD0000E6
:108AC000E401002084020020920200209402002091
:108AD00010B5012000F06CFC0748012101604FF047
:108AE0000001064A016041604FF4E05111800160CD
:108AF0004FF0000010BD0000405C004090020020DC
:108B0000044A0029D16901D0014300E08143D161C9
:108B10007047000000100240044A0029916901D00A
:108B2000014300E081439161704700000010024062
:108B30000149086070470000D8004242002000F060
:108B400037FCBFF34F8F05480168054A01F4E06127
:108B500041EA02010160BFF34F8FFEE70CED00E038
:108B60000400FA052DE9F041234C072800D02070BD
:108B70002278214D0626052104272048062A0BD2FB
:108B8000DFE802F0030C11161E29686810B121708D
:108B9000BDE8F08100F034F82670F9E700F030F815
:108BA0002770012026E00220607003202070EFE78C
:108BB0006078401E607060780028E9D12770E7E790
:108BC000D0F8402C92B242F01002C0F8402C217034
:108BD0000A206070DCE76178491E617061780029C5
:108BE000D6D1D0F8401C89B221F01001C0F8401C49
:108BF000267000206860CBE774020020005000401F
:108C000010B5064C206880B220F004002060FFF709
:108C1000FBFD4FF43F40206010BD0000405C004071
:108C20000029018802D041F0400101E021F040011B
:108C3000018070470246002012890A4200D00120BC
:108C40007047808970478181704710B500F068FDDA
:108C5000002010BD10B500F085FD002010BD000003
:108C60008AB210B50146024800F0E2FD004810BD8E
:108C7000980200202DE9F041114E0546C1F307246A
:108C800011F0FF0F0AD001F47F40FF2200F5807041
:108C900001E07254491C8842FBD8641C00274FF441
:108CA000807808E006EB07204246294600F02EFEB9
:108CB00005F580757F1CA742F4D30020BDE8F08144
:108CC0009802002070B502884D8802F441530A884A
:108CD0008C88CE882A4334430D8922434C892A4309
:108CE0008D892243CC892A4322431A430280828BF6
:108CF00022F400628283098A018270BD70470000FD
:108D0000F0B50E490E4A48F68F770C78002148F2EC
:108D1000800C0CE0CEB202EB8605D5F8003C9BB28D
:108D20003B40334343EA0C03C5F8003C491CA142D5
:108D3000F0D340F08000C2F84C0CF0BD440200209B
:108D4000005000400D4A13680D4A9BB203EBC0006F
:108D500002EB40023E2909D94809C90601D1401E4B
:108D600080B24FF4004141EA802005E04808C9077D
:108D700001D0401C80B2800210607047505C0040FF
:108D80000C600040084901EB8001D1F8000C4BF663
:108D90008F7280B2104080F4405048F2800210433D
:108DA000C1F8000C7047000000500040044A1268EF
:108DB000044B92B202EBC00003EB400041607047ED
:108DC000505C0040006000400C4A10B502EB80028D
:108DD000D2F8000C48F6BF7480B2CB0600EA04005B
:108DE00001D580F01000890601D580F0200048F2FE
:108DF00080010843C2F8000C10BD00000050004084
:108E00001949086840F010000860086820F0030065
:108E100008600A68154842F001020A604168416032
:108E200041684160416841F480614160416821F4DA
:108E30007C114160416841F420114160016841F0BA
:108E40008071016001688901FCD5416821F003014E
:108E50004160416841F0020141604168C1F3810114
:108E60000229FAD1704700000020024000100240A1
:108E700038B5FFF7D5FA01212020FFF74DFE4FF45A
:108E80000070ADF8000003208DF8020014208DF86A
:108E9000030069460C48FFF73DFB002000F088FA0C
:108EA000FFF7E8FC012000F083FA4FF4802420460D
:108EB000FFF7D8F9054908200C6048710120887136
:108EC0000846FFF7E5F938BD001401400C0000200A
:108ED00010B50120FFF72CFE0121BDE81040C805A8
:108EE000FFF70EBE70B51748016817484FEA0141F9
:108EF00000EBD131154D89684FEA014100EBD134C7
:108F00002868017A09290FD02178017061784170B1
:108F1000A088FEF748FD296848802089FEF743FDB8
:108F200029688880A089C880286801210172C088CA
:108F300028B1FFF7AFF8BDE87040FFF7A9BDFFF714
:108F400005FDF8E7505C004000600040840200200E
:108F50002DE9F04139480168087810F07F0002D00F
:108F6000022805D068E0487A00F0DF0048724FE040
:108F70004888002860D1087900285DD14A79314CB1
:108F8000130622F08000002B04EB80032C4DD3F855
:108F9000003C03DAC3F301131B0102E0C3F3013306
:108FA0001B032E780546864246D9A3B3897A91B32E
:108FB000110610D504EB8001D1F8001CC1F301119A
:108FC000012921D1E8B20446FEF7BAFD302120463E
:108FD000FFF7FAFE18E004EB8005D5F8001CC1F39A
:108FE0000131012910D14BF68F7648F2800798B1F4
:108FF000C0B2FEF78FFDD5F8000C80B2304080F48F
:1090000040503843C5F8000C0F480068406980475D
:109010000020BDE8F0810FE00C4890F82C100020F3
:10902000FFF790FED4F8000C80B2304080F440503E
:109030003843C4F8000CE7E70220EAE78402002086
:1090400044020020005000408C020020E401002077
:1090500010B5074C30B107480068006880472068A9
:109060000A3010BD216801200882002010BD0000D8
:10907000840200208C020020064A00281268508AD0
:1090800002D00968084470478988081A10820020B5
:10909000704700008402002010B5074C30B107482B
:1090A00000688068804720680C3010BD216801206E
:1090B0000882002010BD0000840200208C020020E5
:1090C000204910B5096860B11F48002202800A7863
:1090D00053060AD002F07F02012A16D0022A16D0C7
:1090E00001E002200882002010BD497A8A06027839
:1090F00002D542F0020201E002F0FD0249060270D0
:10910000D1B212D401F0FE0111E00F4810BD4A792E
:1091100002F00F0113060D4A02EB8101D1F8001C89
:1091200007D5C1F3011106E0017841F0010101709A
:1091300003E0C1F301310129F6D005480068006958
:109140008047E2E7840200207E02002000500040B9
:109150008C0200200A4810B50A4900684A78C17894
:10916000914203D882780AB982880AB1022010BDE0
:1091700081720548006840688047002010BD0000EB
:1091800084020020440200208C020020064810B512
:109190000068417A41F02001417204480068C069CA
:1091A0008047002010BD0000840200208C020020B7
:1091B00070B51E4803681E48597921F0800500EB00
:1091C00085000C06D0F8004C21F0800203D5C4F3D2
:1091D0000114240102E0C4F301342403154D2D7859
:1091E000954211D95A887AB974B19A7A62B109064E
:1091F000D0F8001C48F2800208D548F6BF7389B247
:10920000194081F0100107E0022070BD4BF68F730A
:1092100089B2194081F480511143C0F8001C0648FE
:10922000006880698047002070BD00008402002033
:1092300000500040440200208C02002010B50E4C6B
:109240000E4A20681268C178926940799047216877
:109250008A7A22B118B9087908B9887808B1022049
:1092600010BD07480068C068804720684179C17216
:10927000C1780173002010BD840200208802002004
:109280008C020020FFF746B8704700000F4810B569
:10929000016841F00101016041680D4A11404160DF
:1092A00001680C4A11400160016821F480210160CD
:1092B000416821F4FE0141604FF41F018160FFF716
:1092C0009FFD05494FF00060086010BD001002408E
:1092D0000000FFF8FFFFF6FE08ED00E02DE9F04783
:1092E00005462B48DFF8AC80DFF8AC90C278817877
:1092F0004FF0090712EB0126C8F80060C1798079A8
:10930000264A00EB0121C8F80410D9F800C024480F
:109310004FF00003BCF8124016D0012E30D9077070
:10932000177153709370D370B002D8F80C20A0F569
:1093300000601044FFF7A6FAD8F80410091B89B2A0
:10934000CDB12044BDE8F087032902D90221017084
:1093500000E0077000781071537012489370D3705A
:109360000370212141704121817005B1EAE703209A
:10937000ACF8100002E0D9F8000001820020E1E71B
:109380000F210170117153709370D370F6E70000D4
:1093900098060020C4010020840200202000002044
:1093A00014000020980200204FF48020FEF75ABFDE
:1093B000044A00284FF40071104601D0FFF72FB97E
:1093C000FFF72FB900140140064805490222016049
:1093D0000A72064A0449C0E9011208680047000001
:1093E0009806002084020020E401002048020020AA
:1093F00038B54FF4A060FFF79FFA14208DF80000F5
:1094000002208DF8010000248DF8024001258DF81E
:1094100003506846FFF761FA2A208DF800008DF8A6
:1094200001408DF803506846FFF757FA38BD000039
:109430002DE9F0414E4E88B00024D6F8440C4D4D35
:10944000688068884C4F39880840000401D5FEF7D1
:10945000AFFA688839884FF6FF380840400504D5D0
:10946000C6F8448C45484068804769883888014080
:10947000890403D54DF6FF71C6F8441C6988014084
:10948000C80406D54EF6FF70C6F8440C0020FFF75E
:1094900069FB68883988084000050CD53848007891
:1094A00010B1FFF7EFFE02E00220FFF75BFB4FF287
:1094B000FF70C6F8440C698838880140890507D5D3
:1094C0004FF6FF51C6F8441C297801F101012970BB
:1094D00069880140C80547D54FF6FF60C6F8440CBF
:1094E000D6F8480C002100043AD56868401C686032
:1094F0006868032835D9D6F8400C000731D4D6F86F
:10950000400C80B2A8606A4606EB8400D0F8000CDC
:1095100080B242F82400641C082CF5D3A86840F0FF
:109520000100A860A86880B2C6F8400CA86820F0C6
:109530000100A860A86880B2C6F8400CD6F8440CB8
:109540004005FBD5C6F8448C5FF0000052F820308F
:1095500006EB80049BB2C4F8003C401C0828F5D3FD
:1095600069600720FFF7FEFA08B0BDE8F08100004F
:10957000005000408001002090020020E401002003
:1095800070020020FFF754BF054800214160054AE2
:109590004FF43F41118001604FF000007047000020
:1095A000405C004090020020FEE70000084B10B530
:1095B000521C520803EB410108D003784478801C08
:1095C00043EA042321F8043B521EF6D110BD0000EB
:1095D0000060004002E008C8121F08C1002AFAD14A
:1095E00070477047002001E001C1121F002AFBD123
:1095F0007047000010B50A4C20680A490840B0F1D5
:10960000005F0BD1002000F0AFF960680649886068
:109610004860216881F308888047FEE710BD00009C
:10962000003000080000FE2F1400002042F6E06227
:1096300004E0401E0021491C9142FCDB0028F8DCBC
:10964000704700000024FFF771F8FFF7A3F8C82661
:10965000282577000A20FFF7E9FF0020FFF77EF8B2
:1096600002280CD0B44201D3FFF7C4FF04F1140068
:10967000A84207D80020FFF785F8002008E004F191
:109680006406F3E7AC4206D80120FFF77BF801201F
:10969000FFF770F801E004F128050A34BC42D9D381
:1096A000002000F061F93220FFF7C0FF012000F038
:1096B0005BF91A490A2008700C3108700871FFF72D
:1096C000D7FBFFF705FCFFF77FFE0024C8263225F5
:1096D0000A20FFF7ABFF0A340020FFF73FF802280B
:1096E0000CD0B44201D3FFF785FF04F1C800A842B3
:1096F00007D80020FFF746F8002008E004F57A7646
:10970000F3E7AC4206D80120FFF73CF80120FFF751
:1097100031F8DDE704F5C875DAE700001400002031
:1097200070B5044600F0E0F80D4D10212846FEF714
:1097300076FFD82000F0A8F8C4F3074000F0A4F8A2
:10974000C4F3072000F0A0F8E0B200F09DF810216B
:109750002846FEF766FFBDE8704000F0AFB8000095
:109760000008014010B586B000F02EF81021144812
:10977000FEF757FF0020ADF800004FF48271ADF8FE
:109780000210ADF804000221ADF806100121ADF879
:1097900008104902ADF80A100821ADF80C10ADF818
:1097A0000E000720074CADF8100069462046FFF771
:1097B00089FA01212046FFF733FA06B010BD0000F8
:1097C000000801400030014038B501210420FFF7B6
:1097D000A3F901210803FFF79FF92020ADF800004D
:1097E00003208DF802001820104C8DF80300694604
:1097F0002046FEF78FFE8020ADF800006946204627
:10980000FEF788FE4020ADF8000004208DF803002C
:1098100069462046FEF77EFE1021ADF800108DF857
:10982000031069462046FEF775FE38BD000801406A
:109830002DE9F041134F05460E46144610213846D7
:10984000FEF7EDFE032000F01FF8C6F3074000F01E
:109850001BF8C6F3072000F017F8F0B200F014F878
:1098600004E0A52000F010F805F8010B2000A4F199
:109870000104A4B2F5D13846BDE8F0411021FEF74D
:10988000D0BE00000008014070B50B4C0546022117
:109890002046FFF7CFF90028F9D029462046FFF7E8
:1098A000D2F901212046FFF7C5F90028F9D020465A
:1098B000FFF7C7F9C0B270BD0030014010B5094CC8
:1098C00010212046FEF7ABFE0520FFF7DDFFA520A7
:1098D000FFF7DAFFC007FAD12046BDE8104010219B
:1098E000FEF79FBE0008014010B5074C102120462E
:1098F000FEF795FE0620FFF7C7FF2046BDE81040A3
:109900001021FEF78EBE0000000801402DE9F04155
:1099100005460E461446FFF7E7FF124F1021384662
:10992000FEF77DFE0220FFF7AFFFC6F30740FFF70B
:10993000ABFFC6F30720FFF7A7FFF0B2FFF7A4FFC6
:1099400003E02878FFF7A0FF6D1C2000A4F10104BC
:10995000A4B2F6D110213846FEF763FEBDE8F0410F
:10996000FFF7ACBF0008014010B5044601210420F8
:10997000FFF7D2F80F49D1F8400C80B224B120F0A3
:109980000200C1F8400C10BD40F00200C1F8400CCC
:109990000948016821F47F210160016841F44C31DC
:1099A0000160BDE810404FF48051A0F10400FEF7C3
:1099B00036BE00000050004004080140B80B1400FF
:1099C000E803190032003200E8031900E8032D0013
:1099D000F021000800000020980200004801000863
:1099E000202300089802002020080000E41D000841
:1099F000012613120132011640830412DF100902FE
:109A00000102030109022413010135C03209041DBA
:109A1000FE010204092A0109260509210BFF100B8A
:109A2000041A010403090426035212611264126924
:109A3000126F1A4C06126E126BFA20020A131C26C1
:109A40001241125412391C1A035308124D1233F2E8
:109A500032146203401A492C127412651A720812E9
:109A6000611A6C361A4606126112733A685A122F3E
:109A700012301A78041A38048902122F1A314E3A19
:109A80002A0C12311A4B30122C3A350E89145A67AF
:109A90006212531A5066C9581A3A041A4D421A35BE
:109AA0001C12367A3466C90249661A385429244988
:109AB00052011C13D9100A320804D112302308268F
:109AC0003320121A38083224137506140805051BB2
:109AD00008D5041AD90413910314084D041B083D3A
:109AE000041A11041A05041A1D044132401A5C3884
:109AF00032041A6008194C111A8608321C1AA2087E
:109B0000321A1ABC0832624B1E01084B0101BC2AF2
:109B1000B1600915A41AC91C41192B0125000000C8
:04000005080051316D
:00000001FF
