:020000040800F2
:107000000000000000000000000000000000000080
:107010000000000000000000000000000000000070
:107020000000000000000000000000000000000060
:107030000000000000000000000000000000000050
:107040000000000000000000000000000000000040
:107050000000000000000000000000000000000030
:107060000000000000000000000000000000000020
:107070000000000000000000000000000000000010
:107080000000000000000000000000000000000000
:1070900000000000000000000000000000000000F0
:1070A00000000000000000000000000000000000E0
:1070B00000000000000000000000000000000000D0
:1070C00000000000000000000000000000000000C0
:1070D00000000000000000000000000000000000B0
:1070E00000000000000000000000000000000000A0
:1070F0000000000000000000000000000000000090
:10710000F0170020ED720008837B00087B7B0008ED
:107110007F7B0008B57700083F850008000000006D
:10712000000000000000000000000000498100088D
:10713000B977000800000000497C00081D820008A3
:107140000773000807730008077300080773000837
:107150000773000807730008077300080773000827
:107160000773000807730008077300080773000817
:107170000773000807730008077300080773000807
:1071800007730008077300080773000807730008F7
:1071900007730008077300080773000807730008E7
:1071A00007730008077300080773000807730008D7
:1071B00007730008077300080773000807730008C7
:1071C00007730008077300080773000807730008B7
:1071D000077300088182000807730008077300081E
:1071E0000773000807730008077300080773000897
:1071F0000773000807730008077300080773000887
:107200000773000807730008077300080773000876
:107210000773000807730008077300080773000866
:107220000773000807730008077300080773000856
:1072300000F002F800F04AF80AA090E8000C82443E
:107240008344AAF10107DA4501D100F03FF8AFF21B
:10725000090EBAE80F0013F0010F18BFFB1A43F034
:1072600001031847BC1A0000DC1A0000103A24BFC2
:1072700078C878C1FAD8520724BF30C830C144BF9B
:1072800004680C60704700000023002400250026DD
:10729000103A28BF78C1FBD8520728BF30C148BF79
:1072A0000B607047642900F0A180782900F0DA8033
:1072B000632900F01182732900F0168200207047C4
:1072C0001FB501F0CDFC1FBD10B510BD00F03EFA9A
:1072D0001146FFF7F5FF01F0BBF900F05CFA03B4CB
:1072E000FFF7F2FF03BC01F02CF9000009488047CA
:1072F00009480047FEE7FEE7FEE7FEE7FEE7FEE798
:10730000FEE7FEE7FEE7FEE704480549054A064BAF
:10731000704700002182000831720008F01100203F
:10732000F0170020F0130020F01300207047000039
:107330000FB4044910B503AA029800F0D9F910BCA3
:107340005DF814FB3C00002070B5044685690068B8
:107350003026C10600D42026C00708D070BDD4E96D
:10736000012130469047206A00F1010020626D1E25
:10737000F5D570BD70B5044685690068C00708D1B1
:1073800070BDD4E9012120209047206A00F101005E
:1073900020626D1EF5D570BD70B505460C46012AFC
:1073A00005D02868800600D5EA69002302E00123A1
:1073B00005E05B1C934202D2E05C0028F9D1A86989
:1073C000E618C01AA861286A184428622846FFF700
:1073D000BBFF04E0D5E9012114F8010B9047B4424A
:1073E000F8D32846FFF7C6FF70BD00002DE9F04135
:1073F0000746002510687529394616A411D0AFF349
:107400000080002803DAC0F1000013A407E0396807
:107410008A0701D511A402E0490704D510A401256B
:1074200001E0AFF3008000210A2307F1240607E002
:10743000B0FBF3F203FB1200303070541046491CCD
:107440000028F5D12B4622463846BDE8F04100F031
:10745000DFB80000000000002D0000002B0000003D
:107460002000000070B504460D4621461068AFF3B9
:1074700000802168090502D5104A7A4402E00F4ACB
:107480007A440E32002104F1240307E000F00F06D5
:107490004FEA1010965D5E5401F101010028F5D10C
:1074A00020680023000704D5702D02D009B11132E5
:1074B00002232046BDE8704000F0AAB86918000019
:1074C0002DE9F05F4FF0000B044689464FF0010AAA
:1074D000C0F820B02046E168884700287ED02528E3
:1074E00006D0D4E901219047206A401C2062F1E7D0
:1074F000444F00267F442046E168884720280546FF
:1075000008DB312D06D207EB050010F8200C08B17E
:107510000643F0E7B00701D526F00406C4F81CB016
:107520000027C4F818B02A2D0DD05246A5F130011D
:107530000A292DD2BAF1000F2AD0924604EB87080F
:10754000C8F8181019E059F8041B204604EB87020C
:107550009161E1688847012F05461BD1E069002849
:1075600023DA26F0200620E0D8F8180000EB80008F
:1075700005EB40003038C8F818002046E16888471D
:10758000A0F1300105460A2902D2BAF1000FEBD171
:10759000012F0AD02E2D08D12046E16888477F1C94
:1075A0000546022F46F02006BDDBA069002803DA5D
:1075B000404246F00106A061F00701D026F0100617
:1075C00065B1A5F14100192802D8203546F40066BE
:1075D0004A462946204626604E4600E00FE0FFF767
:1075E00061FE50B1012805D0F61D26F0070000F11C
:1075F00008096FE706F104096CE7284671E7206A7D
:10760000BDE8F09F1718000070477047704770473B
:107610002DE9F0470D4604469246994600F12408AC
:107620000168880604D5E06921F01001216000E0BE
:1076300001200027A84201DDA0EB0507A16907EBA7
:10764000050202EB0300A1EB0000A0612068C00668
:1076500002D42046FFF778FE002608E0D4E9012195
:107660001AF806009047206A401C761C20624E459E
:10767000F4DB2068C0060AD52046FFF765FE06E069
:10768000D4E9012130209047206A401C2062381E36
:10769000A7F10107F4DC07E0D4E9012118F805009F
:1076A0009047206A401C2062281EA5F10105F3DCEA
:1076B0002046FFF75FFE21680220090600D4012062
:1076C000BDE8F08710B5436913B1AFF3008001E066
:1076D000FFF762FE012010BD126800F124010A705C
:1076E00000224A700122EDE711684FF0FF32E9E70E
:1076F000074B70B50C467B4400F011F80546204658
:1077000000F020F810B14FF0FF3070BD284670BD7A
:107710003B0F000001694A1C02610878704700B500
:107720008FB0CDE901310021059105497944CDE9BA
:10773000031011466846FFF7C3FE0FB000BD0000FE
:10774000E5FFFFFFC06800F080007047754600F05D
:1077500029F8AE4605006946534620F007008546E5
:1077600018B020B5FFF7D0FDBDE820404FF000066F
:107770004FF000074FF000084FF0000B21F0070119
:10778000AC46ACE8C009ACE8C009ACE8C009ACE85C
:10779000C0098D4670470446AFF300802046FFF7CE
:1077A0009EFD0000004870478C1100200048704783
:1077B0009011002000BFFEE77047000030B504467E
:1077C00004254FF4302000F0C5F80546042D17D1EC
:1077D0000C48006940F002000A490861084644610B
:1077E000006940F0400008614FF4302000F0B2F82A
:1077F00005460448006941F6FD71084001490861E9
:10780000284630BD0020024004200C49C96801F020
:107810000101012901D101200EE00849C96811F0D8
:10782000040F01D0022007E00449C96811F0100FCD
:1078300001D0032000E00420704700000020024037
:107840002DE9F04107460E461546002415F0030FBA
:107850000BD02C4602E0FF203055641C4FF6FC7123
:1078600005EA0100001DA042F5D8002405E03159C9
:10787000384600F031F83F1D241DAC42F7D30020FC
:10788000BDE8F0810348006940F0800001490861CB
:10789000704700000020024070B504460D460426E3
:1078A000F00200F057F80646042E11D1094800698D
:1078B00040F00100074908612580F00200F04AF815
:1078C00006460448006941F6FE7108400149086116
:1078D000304670BD00200240F0B504460D46042637
:1078E0000027F00200F036F80646042E22D1124896
:1078F000006940F00100104908612580F00200F0A5
:1079000029F80646042E0ED1A71C280C3880F00258
:1079100000F020F806460848006941F6FE7108406C
:107920000549086106E00448006941F6FE71084017
:10793000014908613046F0BD002002400248034979
:1079400048600348486070472301674500200240B3
:10795000AB89EFCD00B502460423FFF755FF034680
:1079600003E0FFF751FF0346521E012B01D1002A0D
:10797000F7D102B90523184600BD00000749086089
:107980000968FF2904D84FF48061054A116003E0BB
:107990004FF40061024A1160704700002C00002083
:1079A000300000202DE9F04102460025002600208D
:1079B00000230024002791F803C00CF00F0591F874
:1079C00003C01CF0100F03D091F802C04CEA05056B
:1079D000B1F800C01CF0FF0F31D0146800202BE07C
:1079E0004FF0010C0CFA00F3B1F800C00CEA0306EA
:1079F0009E4220D183004FF00F0C0CFA03F7BC43DA
:107A000005FA03FC4CEA040491F803C0BCF1280F0A
:107A100006D14FF0010C0CFA00FCC2F814C00AE0C9
:107A200091F803C0BCF1480F05D14FF0010C0CFADE
:107A300000FCC2F810C0401C0828D1D31460B1F873
:107A400000C0BCF1FF0F34DD546800202EE000F1CF
:107A5000080C4FF0010808FA0CF3B1F800C00CEA6A
:107A600003069E4221D183004FF00F0C0CFA03F75E
:107A7000BC4305FA03FC4CEA040491F803C0BCF1D2
:107A8000280F05D100F1080C08FA0CF8C2F8148090
:107A900091F803C0BCF1480F07D100F1080C4FF07A
:107AA000010808FA0CF8C2F81080401C0828CED350
:107AB0005460BDE8F0810000F0B50A4600230024C0
:107AC0000021002500F00046B6F1004F02D11D4E06
:107AD000F16901E01B4E7168C0F3034583B200F405
:107AE0004016B6F5401F08D121F07061154E76683A
:107AF00026F07066134F7E6012E000F48016B6F533
:107B0000801F06D1032606FA05F4A14341F07061F7
:107B100006E0460D360103FA06F6B14341F0706106
:107B200022B1460D360103FA06F6314300F0004655
:107B3000B6F1004F02D1034EF16101E0014E7160D8
:107B4000F0BD0000000001400246002093680B4297
:107B500001D0012000E00020704702460020D368D9
:107B60000B4201D0012000E00020704741617047C6
:107B70000AB1016100E04161704700BFFEE700BF4C
:107B8000FEE7704770B5002100230F22C4784CB384
:107B90001A4C246804F4E064C4F5E0644FEA14214C
:107BA000C1F1040322FA01F2447804FA03F1847863
:107BB00004EA020444EA01014FEA0111104C06787C
:107BC000A155047804F01F054FF0010404FA05F4F0
:107BD00005784FEA65154FF0E02606EB8505C5F8F8
:107BE000004109E0047804F01F050124AC40054D74
:107BF0000678761145F8264070BD00000CED00E0D7
:107C000000E400E080E100E0024A0A400243024B47
:107C10001A60704780FFFF1F08ED00E00848006809
:107C200000F4E060074940EA010000F104004FF071
:107C3000E021C1F80C0DBFF3408F00BFFEE700004C
:107C40000CED00E00000FA05704700002DE9F0415E
:107C5000054600260027002400BF14E055F8240044
:107C60004FF6FF7101EA104655F8240087B24EB175
:107C7000074A52F82410074A52F8240033463A467D
:107C800000F094F8641C072CE8DB0020BDE8F081CC
:107C90005C0000204000002070B502460023002553
:107CA000002400200860486008811068A0F14103AA
:107CB00006255068C4B21068412804D305F141007C
:107CC0001668864202D94FF0FF3070BD102C02D3E7
:107CD0004FF0FF30F9E7074850F8230008600648E6
:107CE00050F823004860054830F81400088100204F
:107CF000EBE70000400000205C000020780000203E
:107D000038B50446606800B938BD0121206800F02C
:107D1000D3F82089ADF8000048208DF80300032037
:107D20008DF8020069466068FFF73CFE00BFEBE794
:107D300070B504460025606808B9002070BD21892F
:107D40006068FFF701FF054605F001052846F5E7E5
:107D500070B504460025606808B9002070BD21890F
:107D60006068FFF7F1FE0546E843C5B205F001057E
:107D70002846F3E738B50446606800B938BD0121EC
:107D8000206800F099F82089ADF8000010208DF8E7
:107D9000030003208DF8020069466068FFF702FEC9
:107DA00021896068FFF7E2FE00BFE7E72DE9F843AD
:107DB00080460E4617461D4600240121404600F02D
:107DC0007BF810208DF8030003208DF802000020BE
:107DD000ADF8000000BF0DE045FA04F010F0010F0F
:107DE00007D0BDF80000114931F814100843ADF870
:107DF0000000641C102CEFDB69463046FFF7D2FD13
:107E000000240FE045FA04F010F0010F09D047FA02
:107E100004F000F00102054830F814103046FFF776
:107E2000A7FE641C102CEDDBBDE8F8837800002071
:107E300070B504460D46606800B970BD05F00102DA
:107E400021896068FFF794FE00BFF6E770B504462D
:107E50000D46606800B970BDED4305F0010221894F
:107E60006068FFF785FE00BFF5E770B504460025A2
:107E7000606800B970BD21896068FFF76EFE054635
:107E800005F00105ED4305F0010221896068FFF767
:107E90006FFE00BFEEE7000029B1064A12690243F7
:107EA000044B1A6104E0034A12698243014B1A61D0
:107EB000704700000010024029B1064A926902434F
:107EC000044B9A6104E0034A92698243014B9A6130
:107ED000704700000010024029B1064AD2680243F0
:107EE000044BDA6004E0034AD2688243014BDA6053
:107EF000704700000010024030B50021002200242D
:107F000000232D4D6D6805F00C0121B1042905D029
:107F1000082923D105E0294D056022E0274D0560A1
:107F20001FE0254D6D6805F47012234D6D6805F452
:107F30008034022505EB92421CB9214D5543056062
:107F40000BE01D4D6D6815F4003F03D01C4D5543EB
:107F5000056002E0194D5543056002E0174D0560CC
:107F600000BF00BF144D6D6805F0F0010909154D03
:107F70006B5C0568DD4045600F4D6D6805F4E061A0
:107F8000090A104D6B5C4568DD4085600A4D6D68DF
:107F900005F46051C90A0B4D6B5C4568DD40C56056
:107FA000054D6D6805F44041890B074D6B5CC56854
:107FB000B5FBF3F5056130BD0010024000127A00F8
:107FC00000093D00180000202800002030B50346BD
:107FD0000C461546002207E0184600F008F824F881
:107FE00012009B1C501C82B2AA42F5DB30BD014638
:107FF000088870472DE9F04105460E4617460024D3
:1080000007E036F814102846FFF746FCAD1C601C4C
:1080100084B2BC42F5DBBDE8F08100002DE9F05FE1
:1080200007468A461646B7F1006F06D343480068F4
:10803000800200F10060B84202D80120BDE8F09F44
:10804000FFF77CFCA7F1006B3D480068BBFBF0F834
:108050003B480068BBFBF0F100FB11B0C0F34F09D7
:1080600037480068C9EB500084B2A64200DC3446B1
:108070005EE033490968C1F34F02314B1B6808FBCE
:1080800003F101F100602F49FFF7A0FF00250BE08D
:1080900009EB05002B4931F81000A0F57F41FF39AD
:1080A00000D003E0681C85B2A542F1DB00BFA54209
:1080B00022DA234A126808FB02F101F10060FFF79F
:1080C0007DFB002508E03AF8150005EB09011D4A83
:1080D00022F81100681C85B2A542F4DB1849096832
:1080E000C1F34F02164B1B6808FB03F101F100605E
:1080F0001449FFF77FFF04E0224651463846FFF758
:1081000079FFA64200D114E008F101084FF0000900
:108110000AEB440A2744301B86B209480068B6EBD4
:10812000500F04D906480068C0F34F0400E03446FD
:108130009FE700BFFFF7A6FB00207FE72C00002091
:1081400030000020C4080020704710B500F002F88D
:1081500010BD0000002100202E4A126842F4803237
:108160002C4B1A6000BF2B4A126802F40030491CE5
:1081700010B9B1F5A06FF6D1264A126812F4003F8B
:1081800001D0012000E00020012842D1224A1268DB
:1081900042F01002204B1A601A46126822F00302C5
:1081A0001A601A46126842F002021A60194A5268AE
:1081B000184B5A601A4652685A601A46526842F47E
:1081C00080625A601A46526822F47C125A601A463B
:1081D000526842F4E8125A601A46126842F08072FD
:1081E0001A6000BF0B4A126812F0007FFAD0094AE9
:1081F000526822F00302074B5A601A46526842F056
:1082000002025A6000BF034A526802F00C02082AB8
:10821000F9D1704700100240002002407047000072
:1082200010B51348006840F0010011490860084685
:108230004068104908400E494860084600680E49E9
:1082400008400B4908600846006820F48020086058
:108250000846406820F4FE0048604FF41F00886024
:10826000FFF773FF4FF000600449086010BD000085
:10827000001002400000FFF8FFFFF6FE08ED00E0EE
:1082800010B540F225511D4800F098F810B31B4876
:1082900000F050F9C4B21A48008810F4004F2BD1F6
:1082A0001748008810F4804F0CD00A2C03D000200F
:1082B0001349088020E01248008840F4004010492B
:1082C000088019E00D2C06D10D48008840F480404C
:1082D0000B49088010E00A480088C0F30D000949E6
:1082E0000C5407480088401C05490880084600884F
:1082F000C72801DD0020088010BD000000380140C3
:1083000038000020C410002021B1828942F40052BC
:10831000828104E082894DF6FF731A4082817047A2
:1083200010B504462048844209D101218803FFF793
:10833000D3FD00214FF48040FFF7CEFD32E01B4813
:10834000844209D101214804FFF7A6FD00214FF422
:108350000030FFF7A1FD25E01548844209D1012135
:108360008804FFF799FD00214FF48020FFF794FD6A
:1083700018E01048844209D10121C804FFF78CFDA0
:1083800000214FF40020FFF787FD0BE00A488442EC
:1083900008D101210805FFF77FFD00214FF480106F
:1083A000FFF77AFD10BD0000003801400044004096
:1083B00000480040004C00400050004070B50246AC
:1083C0000024002300250020A1F510666A3E00D19C
:1083D00000BFC1F3421501F01F03012606FA03F3A3
:1083E000012D02D19689334006E0022D02D1168A72
:1083F000334001E0968A33400C12012606FA04F459
:108400001688344013B10CB1012000E0002070BD8B
:10841000F0B503460024002600250020A1F51067D2
:108420006A3F00D100BF1846C1F3421401F01F0695
:10843000012707FA06F5012C01D10C3004E0022CCB
:1084400001D1103000E014301AB107682F430760E3
:1084500002E00768AF430760F0BD00002DE9F04778
:1084600086B005460E460024A24600BFA14600275E
:10847000B08900B100BF2F462C8A4CF6FF70044033
:10848000F08804432C82AC894EF6F3100440B08887
:1084900031890843718908430443AC81AC8A4FF6A3
:1084A000FF400440B0890443AC8201A8FFF724FDDB
:1084B0001F48874202D1DDF810A001E0DDF80CA0D2
:1084C000A88910F4004F08D00AEBCA0000EB0A108C
:1084D00031684900B0FBF1F807E00AEBCA0000EB95
:1084E0000A1031688900B0FBF1F86420B8FBF0F0A5
:1084F00004012009642101FB1089A88910F4004FB0
:1085000008D0322000EBC900B0FBF1F000F007000A
:10851000044308E0322000EB09106421B0FBF1F0C5
:1085200000F00F0004432C8106B0BDE8F087000086
:108530000038014001468888C0F30800704700BF3A
:10854000FEE7014600BF704710B5002429480068C7
:10855000006829490840B0F1005F4AD1102227493C
:108560002748FFF733FDFFF7E9F900BF08E004F102
:108570000060FFF723F90A2000F04EF804F580644C
:10858000B4F5A04FF3D3002416E01A49096808197E
:108590004FF400721B49FFF719FD0A2000F03CF868
:1085A00004F100604FF480621649FFF749F90A2090
:1085B00000F032F804F58064B4F5984FE5D34FF439
:1085C00080620E490E48FFF73BF90A480068FFF742
:1085D000F5F8FFF757F90CA0FEF7AAFE4FF400726A
:1085E00008490748FFF7F2FC282000F015F8FFF7CC
:1085F00015FB10BD040000200000FE2F9804002091
:10860000004C00089800002053797374656D526522
:10861000736574210D0A0000002107E0401E00214F
:1086200000E0491C42F6E0629142FADB0028F5DCEA
:108630007047000000BF044A128812F0400FFAD0C1
:10864000C2B2024B1A807047003801400438014022
:1086500086B00026002700240025002005908346D0
:108660004FF08008012004904FF000090020039093
:1086700002900190DFF87CA2DFF87CA2AAF1006AE8
:1086800051464FF00060FFF7BFFA0AF10060A0F515
:1086900080709A4908600846006800F54050984983
:1086A00008600520002107E0401E002100E0491C71
:1086B00042F6E0629142FADB0028F5DC00BF4FF49D
:1086C000E13000F079FA8F4D4FF4007229468B4863
:1086D000006800F0E5F905F13004E068C0F30040FF
:1086E00005906068C0F3004B5A468748059900F032
:1086F000EDF9864904F10800FFF7CEFA844904F148
:108700001000FFF7C9FA834800681FFA80F8404656
:10871000FFF734F90823122201217FA0FEF708FE9B
:1087200089498AA0FEF704FE89A28CA18EA0FEF7DB
:10873000FFFD414690A0FEF7FBFD7048016892A046
:10874000FEF7F6FD6D4801688FA0FEF7F1FD606849
:1087500082B291A02168FEF7EBFDE06882B294A09E
:10876000A168FEF7E5FD606982B297A02169FEF776
:10877000DFFD9BA00599FEF7DBFD59469CA0FEF7A7
:10878000D7FDD5F80880C8F3006004901FFA88F17F
:108790009BA0FEF7CDFD049808B19DA000E09EA02F
:1087A0000146A0A0FEF7C4FD05F18000FFF74EFAD8
:1087B00005F1800900260FE04FF6FF7CD9F8000094
:1087C0000CEA104382B206F14100C1B298A0FEF754
:1087D000AFFD09F10409761C072EEDD305F1480120
:1087E0009AA0FEF7A5FD05F158019DA0FEF7A0FD9A
:1087F00001210846FFF760FB049820B101219B4846
:10880000FFF75AF903E001219948FFF755F93E486F
:1088100001683E4888473C4801683D4888474FF416
:10882000FA60FFF7F9FE002721E00A20FFF7F4FEC7
:1088300007F11E00B0420AD833480021826833484D
:108840009047314800218268314890470EE0B74296
:108850000AD82D48012182682C4890472A480121D6
:1088600082682B48904701E007F146060A37B7F5C2
:10887000FA6FDAD340F27D127E497FA0FEF758FDF1
:10888000214800218268214890471F4800218268C2
:108890001F4890474FF400721A4919480068FFF7C3
:1088A00095FB1848D0F8000103901648D0F8040151
:1088B0000290782229461148006800F0F1F80195ED
:1088C000019D03982860DDE9015068600C4800684C
:1088D000006872490840B0F1005F05D1782229464E
:1088E00007480068FFF79AFBFFF72EFE01E000F053
:1088F0000DF9FCE70054000800710008000000209A
:108900000400002098000020B008002098080020F3
:10891000A4080020E0F7FF1F5169467265655553B2
:108920004253207570646174652070726F67726164
:108930006D2076657273696F6E2025642E25642E16
:1089400025640D0A000000006E8C000825730000ED
:1089500041707220313720323031350031363A30B3
:10896000303A313400000000446174653A202573C8
:108970002D2D25730D0A0000465F53495A453A25AF
:10898000644B420D0A000000416464726573733ADF
:1089900020253038580D0A004B4559203A204750C1
:1089A000494F25635F50696E2564200D0A00000061
:1089B0004C4544313A204750494F25635F50696E1A
:1089C0002564200D0A0000004C4544323A204750EF
:1089D000494F25635F50696E2564200D0A00000031
:1089E0006C65645F6C6F773A25640D0A00000000C7
:1089F0006B65795F6C6F773A25640D0A00000000A3
:108A0000466C6173683A25644B420D0A0000000011
:108A1000456E61626C650000446973456E61626C0D
:108A2000650000007377643A25730D0A00000000AA
:108A30004750494F25633A2530345820456E6162CE
:108A40006C653A253034580D0A000000426F61729F
:108A500064206E616D653A2025730D0A00000000E8
:108A6000446174653A2025730D0A0000000230004D
:108A700000043000D88C00085B2573204025645D1D
:108A8000207570646174652051694672656555533F
:108A90004253206E6F77210D0A0000000000FE2F68
:108AA0002DE9F04107460D461646002407E03846FA
:108AB00000F009F825F81400BF1C601C84B2B44211
:108AC000F5DBBDE8F081014608887047084B03607C
:108AD000084B4360084B8360084BC360084B03613D
:108AE00009B1084B83600AB1074B0361704700006E
:108AF000757D0008017D0008317E00086B7E00084E
:108B0000317D00084D7E0008517D000870B50025BC
:108B1000002400BF04F12805DC221D491DA0FEF73A
:108B200007FC00BF21E00A20FFF776FD04F11E00DC
:108B3000A8420AD81D48002182681D4890471B485A
:108B4000002182681B4890470EE0AC420AD81748C3
:108B5000012182681648904714480121826815480F
:108B6000904701E004F5FA750A34B4F5FA6FDAD3E8
:108B70000E48012182680E4890470C480121826806
:108B80000C4890474FF4FA60FFF746FD70BD0000B7
:108B9000C28C00085B2573204025645D20776169E5
:108BA00074696E67202E2E2E0D0A0000B00800207A
:108BB00098080020A408002010B586B004460121C2
:108BC00044F20400FFF778F92348FFF7A9FB4FF4BC
:108BD0000070ADF8140003208DF8160018208DF8F1
:108BE000170005A91D48FEF7DDFE4FF48060ADF8C3
:108BF000140004208DF8170005A91848FEF7D2FECE
:108C000025208DF8000003208DF801008DF802006A
:108C100001208DF803006846FEF7B4FF01940020A0
:108C2000ADF80800ADF80A00ADF80C00ADF8100082
:108C30000C20ADF80E0001A90748FFF70FFC012238
:108C400040F225510448FFF7E3FB01210248FFF7FA
:108C50005BFB06B010BD0000003801400008014079
:108C600010B5FEF7A3FD4FF00001016010BD2A20F2
:108C7000417574686F722020203A206D65726166BC
:108C80006F75722E626C6F672E3136332E636F6D87
:108C90000D0A2F2F2A2056657273696F6E20203AB5
:108CA0002056312E302E300D0A2A20446174652062
:108CB000202020203A20322F32362F323031350D0D
:108CC0000A00766F696420746573745F656E7472F0
:108CD0007928766F69642900696E74206D61696E08
:108CE00028766F69642900303132333435363738AD
:108CF00039414243444546403058003031323334E4
:108D0000353637383961626364656640307800040F
:108D10000000080000000000000002000100001038
:108D2000408D000800000020980000006C720008D0
:108D3000D88D00089800002058170000887200089D
:108D40000050000800A00008000000000000000023
:108D50000000000000000000000000000102030409
:108D600001020304060708090204060800010000C6
:108D700000080000000000000000000000000000EB
:108D800004000000080000001000000020000000A7
:108D900040000000800000000001000000080140C9
:108DA000000C014000100140001401400018014077
:108DB000001C0140002001400100020004000800E6
:108DC00010002000400080000001000200040008A4
:088DD0000010002000400080AB
:04000005080072314C
:00000001FF
